:020000041000EA
:1000000000B5324B212058609868022188439860DF
:10001000D860186158612E4B002199600221596106
:100020000121F02299502B49196001219960352056
:1000300000F044F80222904214D00621196600F024
:1000400034F8196E01211966002018661A6600F04E
:100050002CF8196E196E196E052000F02FF8012189
:100060000842F9D1002199601B49196000215960AB
:100070001A491B48016001219960EB211966A021F2
:10008000196600F012F800219960164914480160C1
:100090000121996001BC002800D000471248134993
:1000A000086003C880F30888084703B5996A0420EC
:1000B0000142FBD001200142F8D103BD02B5186610
:1000C0001866FFF7F2FF186E186E02BD00000240BE
:1000D000000000180000070000035F00212200005C
:1000E000F4000018222000A00001001008ED00E03C
:1000F00000000000000000000000000074B24E7A12
:1001000000200420F7010010CB010010CD010010E9
:10011000C9010010C9010010C9010010C901001077
:10012000C9010010C9010010C9010010CF01001061
:10013000C9010010C9010010D1010010D301001045
:10014000C1010010C1010010C1010010C101001067
:10015000C1010010C1010010C1010010C101001057
:10016000C1010010C1010010C1010010C101001047
:10017000C1010010C1010010C1010010C101001037
:10018000C1010010C1010010C1010010C101001027
:10019000C1010010C1010010C1010010C101001017
:1001A000C1010010C1010010C1010010C101001007
:1001B000C1010010C1010010C1010010C1010010F7
:1001C000EFF30580103800BE00BE00BE00BE00BECA
:1001D00000BE00BEF2EB8871BC610110E461011049
:1001E0003802001090A31AE71E481F49086006C88D
:1001F00081F3088810471D480068002801D019487D
:10020000F3E70DA40ECC002902D000F012F8F9E7B4
:100210001749184A002000E001C19142FCD116495B
:100220008847164988471649884700BEFDE701C937
:1002300001C29A42FBD37047E4610110C000002064
:1002400010190020347A011000000420000004205E
:10025000347A011000100420001004200000000077
:10026000704700000000000008ED00E0000000D032
:1002700010190020182A0020A5880010390C001041
:100280009D880010F8B5C04606480749091A8B102A
:10029000C90FC91810B5491003D0044B002B00D06A
:1002A000984710BD10190020101900200000000010
:1002B000054B10B5002B03D00449054800E000BFF2
:1002C000FFF7E2FF10BDC046000000000C2900202F
:1002D000D44A011010B504001F2104F025FB0022B0
:1002E0002000002104F03AFB0021200004F04AFB2A
:1002F00010BDC046F0B5364F0400C3590E000220B1
:1003000083B0CB1A632B01D803B0F0BD684600F070
:100310000FFE009806F0F4FC2E4B0500E25C002A6C
:1003200042D02D4BE159E758FA239B009C46711AA5
:100330004801401A80004018C000614405F080FD6B
:10034000FA21ED1B6843890005F052FDC5195320C1
:10035000214B0A21E550214BE3585B1B584305F024
:1003600047FD1F4BE7581F4BF71BE15A80235B01EA
:1003700099421CD0013189B280235B029C46E35A2A
:100380001A01A21855600225176090601573624625
:1003900001331B051B0DA352124BE152124BE050CF
:1003A0000B4B0320E650AFE70132E254CFE70F4A90
:1003B0000F4BA25CE35A002A03D00E4AA25A9A427B
:1003C000ECD001330A4A1B051B0DA352D4E7C046EB
:1003D0001C0001004C000100480001000C0001005D
:1003E00018000100040001001400010008000100D1
:1003F0000200010006000100F0B5C646FA2700B56C
:10040000384B04009846C3580E0082B0CB1ABF0088
:10041000BB4204D2042002B080BCB846F0BD68469E
:1004200000F086FD009806F06BFC2F4B0500E25CA7
:10043000002A44D04346E1582C4B711AE358480136
:100440009846FA239B009C46401A80004018C00042
:10045000614405F0F5FC4346ED1A6843390005F0A8
:10046000C7FC404405005320204B0A21E550204B97
:10047000E3585B1B584305F0BBFC1E4BE7581E4B73
:10048000F71BE15A80235B0199421BD0013189B2ED
:1004900080235B029C46E35A1A01A218556004258A
:1004A000176090601573624601331B051B0DA35244
:1004B000114BE152114BE0500A4BE650AAE70132D2
:1004C000E254D0E70E4A0F4BA25CE35A002A03D055
:1004D0000D4AA25A9A42EDD001330A4A1B051B0D60
:1004E000A352D5E71C0001004C00010048000100A8
:1004F0000C000100180001000400010014000100BC
:10050000080001000200010006000100F0B5CE461F
:10051000474680B53C4D040043590E0083B0CB1ACA
:10052000092B05D8002003B0C0BCB946B046F0BDC9
:10053000684600F0FDFC63590A27002B00D0F71A2B
:10054000009806F0DDFB314B0500E25C002A57D035
:100550002F4B7801E358C01B9846FA2380009B007C
:10056000C019F918C00005F06BFC4346FA21ED1ADA
:100570006843890005F03CFC404405005327244BA8
:100580000A21E550234BE3585B1B5F43380005F01D
:100590002FFC214BE15A80235B01994220D001318D
:1005A00089B280235B029C46E35A99461A010023D4
:1005B000A218136013734B46556090606246013376
:1005C0001B051B0DA352144BE152144BE0500E4B74
:1005D000E650134B9F42A5DD124B0120E650A2E7E7
:1005E000114A124BA25CE35A002A03D0104AA25AC5
:1005F0009A42EAD001330D4A1B051B0DA352D0E7E6
:100600000132E254BAE7C0461C0001004C00010070
:10061000480001000C00010004000100140001006A
:100620001927000018000100080001000200010065
:1006300006000100F0B5464F0400C3590E0083B018
:10064000CB1A632B02D8012003B0F0BD684600F03E
:100650006FFC009806F054FB3E4B0500E25C002A5C
:100660006FD03D4BE159E758FA239B009C46711A25
:100670004801401A80004018C000614405F0E0FBCA
:10068000FA21ED1B6843890005F0B2FBC519532020
:10069000314B0A21E550314BE3585B1B584305F0C1
:1006A000A7FB2F4BE7582F4BF71BE15A80235B0129
:1006B000994236D0013189B280235B029C46E35ACD
:1006C0001A01A218556001251760906015736246E3
:1006D00001331B051B0DA352224BE152224AA358A2
:1006E000834205DAA050214BE050194BE650AAE7AF
:1006F0001F4A944663448342F5DD80235B02E35A3C
:10070000312B21D81B4A944663449BB21A4AA35208
:1007100001221A4BE254154BE0500D4B0220E650DB
:1007200092E7164A164BA25CE35A002A03D0124AFB
:10073000A25A9A42D2D00133114A1B051B0DA35273
:10074000BAE70132E254A2E7323B9BB2DEE7C04691
:100750001C0001004C000100480001000C000100D9
:100760001800010004000100100001001400010045
:1007700018FCFFFFCE0F000006000100080001007A
:1007800002000100F0B54746CE4680B57C4F04001C
:10079000C3590E0083B0CB1A312B05D8032003B008
:1007A000C0BCB946B046F0BD684600F0C1FB009839
:1007B00006F0A6FA734B0500E25C002A00D1C8E0FF
:1007C000714BE159E758FA239B009C46711A480186
:1007D000401A80004018C000614405F031FBFA2146
:1007E000ED1B6843890005F003FBC5195322664BD6
:1007F0000A21E550654BE3585B1B5A4310009046B5
:1008000005F0F6FA624B0700E358F31A9C46614B79
:10081000E15A80235B01994200D189E0013189B21C
:1008200080235B029946E35A60461A01A21855607C
:1008300003251060976015734A4601331B051B0D95
:10084000A352544BE152544B6421E058C01B05F0B5
:10085000CFFAFA2105008900404605F0C9FA4F4B4E
:100860008146E35C002B35D14D4BE35C002B09D175
:100870004C4BE35C012B6FD0022B11D04A4BE35C55
:10088000002B2FD0494B984505DC494AA358FB1A49
:100890006333C62B47D9464BE750394BE6507DE7CB
:1008A000444BE35A8342E9DBD02380221B06120229
:1008B0005A61802292035A610122394BE25404F0BA
:1008C000E7FE002957D0FA220023920005F0F6FA3D
:1008D000394BE050344BE35C002BD3D1304BE35C1D
:1008E000002BCFD1354BE35C012B3AD0022BC9D181
:1008F000334BE35A4B45C5DBD02380221B06120243
:100900005A618022D2035A610222254BE25404F03C
:10091000BFFE00292AD0FA220023920005F0CEFA69
:10092000254BE050AEE7164BA7500420E65036E7C3
:10093000244A254BA25CE35A002A04D0234AA25A37
:100940009A4200D17FE701331F4A1B051B0DA352BA
:1009500066E70132E25449E7164BE35AAB42A3DDA6
:100960008CE7174BE35AAB42C6DD8BE7FA218900CF
:1009700005F066FAD4E7FA21890005F061FAA7E7E5
:100980001C0001004C000100480001000C000100A7
:100990001800010004000100100001002400010003
:1009A000260001003E000100250001008713000021
:1009B0001400010040000100280001004200010075
:1009C00044000100080001000200010006000100CF
:1009D000D0238022F0B5D6464F4646461B069203EA
:1009E000C0B59A618022D2039A61802212025A61B4
:1009F00080460A208A4604F035FDE0238020DB0192
:100A000099460423400000279C460100224A234EB9
:100A1000234D4C4613682340336063462B601368B4
:100A20000B42FCD0536801381B041B0C80B2FF182A
:100A30000028EED143463F091F8080235B01994681
:100A4000E0238021DB019846144B490000269C4698
:100A500004270800104A124D4C4613686340444670
:100A60002340644623602F6013680342FCD0536820
:100A700001391B041B0C89B2F6180029ECD153462E
:100A800036091E808022D02312021B069A61E0BC28
:100A9000BA46B146A846F0BD00C0044000D00440AC
:100AA00000E00440F0B5DE4657464E464546E0B508
:100AB0008946A3B05149050010001F0005F098F9C0
:100AC00002AE030080214E4A300007F08DFE33183D
:100AD0009A46FA2180230400984689001B1A48464A
:100AE0009B4605F0ADF98146032F44D8454BBA002B
:100AF000D3585946444A504607F076FE43462418D8
:100B0000191B30194B46414A07F06EFE2418002F7E
:100B100040D143463019191B3D4A07F065FE0834A1
:100B200080213C4B091B30193B4AEB1807F05CFE57
:100B30003478002C18D03000002120220D26374BAD
:100B400000255D5F364B00294CD1A54251D09969F3
:100B50000A42FCD11C60017801300D394C426141E0
:100B60000478C9B2002CEED123B0F0BCBB46B2462B
:100B7000A946A046F0BD09235946234A504607F02E
:100B800033FE43460334191B30194B461F4A07F006
:100B90002BFE2418802398461B1B9C46214B3019A2
:100BA000EB5C08345A4253411F4A1B01AA5C3133A3
:100BB00051424A411D491201323200920A006146F7
:100BC00007F012FE012FABD0194B1E21E85805F09B
:100BD0000FF941460300091B3019164A07F004FEBD
:100BE00024189DE799690A42B4D099690A42F9D15B
:100BF000B0E799690A42FCD11E60A8E7E80B000043
:100C0000D84A0110805B0110E04A0110E84A011047
:100C1000F04A011035000100144B0110F0290020AA
:100C2000004003402400010025000100FC4A01109F
:100C300010000100084B0110F0B5C64600B5934CFA
:100C4000A5440AF075FE01236A4604A91382002018
:100C500008F02CFB07F064FF8D4807F0AFFFE1219F
:100C60008C48490204F062FD0221002003F05CFE82
:100C70000221012003F058FE874988480AF000FE4F
:100C80000321082003F050FE0321092003F04CFE4D
:100C900000220121082003F061FE00220121092029
:100CA00003F05CFE0AF028FE1A20FFF713FB1B205E
:100CB000FFF710FB0F2003F079FE152003F076FEFE
:100CC000162003F073FE102003F070FE8024D02362
:100CD0008020802180221B0624028003C903520247
:100CE0005C62586259625A629C61986199619A612A
:100CF00000F0F8F8002804D0FA20800004F0B2FBDD
:100D0000FAE70021664A04A806F0F8F8654A664B3F
:100D10006A4413CB13C213CB13C21B88634E1380D8
:100D2000634B01A83360634B0A257360624B002458
:100D3000B360624BF360624B33616B46991DFFF702
:100D400047FE02A800F0F4F8200005F0B7FF029972
:100D500005F05EFF05F0D4FF013D0400642004F0BF
:100D600081FB002DEDD10A21200005F041F86A46F3
:100D70001021544B5218D050FA239B009846524DE4
:100D800044E0FA220023920005F098F804000120C4
:100D90000021404208F004FB6A4610214B4B5218D8
:100DA000D35C002B1ED06846494A41188A58FA2164
:100DB000A21A49008A4215D3012B56D0D023802293
:100DC0001B06D2039A6180226946120210209A61A2
:100DD0000122404B0918CA546946102000223B4B9F
:100DE0000918CA5410236A463B4FD218D35D10002D
:100DF0009B00F3582100984710236A46D218D0551B
:100E00006A46D3185B59E31A434509D204F040FC03
:100E10000029B6D1FA21890005F012F80400B6E7DE
:100E200002A800F085F8029805F06AFF10226946D2
:100E3000244B8918CB580A211B1A5320584304F01D
:100E4000D7FF6B46020010201B18DB5D002B1AD069
:100E50006F46224938184158611A04A8FFF722FE4C
:100E60006B4610229B185C51D0E7D02280211206DD
:100E70008903916180210902916110206946184A15
:100E800009188B54A8E70021E7E7C046A0FFFEFF42
:100E90001C4B011000400340801A0600A8130020DC
:100EA000500001003C000100905B0110D42900209B
:100EB0000D05001035060010F50200108507001022
:100EC000F90300100C0001002000010026000100C1
:100ED0002800010025000100460001001800010063
:100EE0002400010010B500F035F8002810D100F002
:100EF00069F9002804D10A4807F060FE002010BDFF
:100F00000223084C0848237007F058FE2078F6E7C3
:100F10000123044C0548237007F050FE2078EEE7CB
:100F2000844B0110112A0020604B0110384B011036
:100F300010B5074B1B78012B06D0022B02D100F015
:100F4000EBF910BD0020FCE700F06AF8F9E7C046B5
:100F5000112A00207623F0B55746DE4645464E4618
:100F60009A462B4BE0B59B4687B02A4F05AD5346BA
:100F70003B701E232B7000232A00009351465846D5
:100F800001330AF0A5FC01280DD053467722013326
:100F90009246782BEBD1002007B0F0BCBB46B2469E
:100FA000A946A046F0BD093004F05CFA1A4B02AA2B
:100FB0001E00944603930B23634498460123A02408
:100FC000994643461C704B46397842460093584632
:100FD00001230AF07DFC0128D7D1002339782A00AB
:100FE0000093584602330AF07DFC0228CDD12B88AD
:100FF00002345BBAE4B233800236B02CE1D1039BF9
:10100000064A1B88013B9BB29342BED80120C3E72E
:10101000A8130020142A002034290020FDFF00001E
:10102000F0B5DE4657464E464546E0B587B0482304
:101030006A4600255F4E604F137531780290009527
:101040003800473B05AA0AF043FC0400012807D0FA
:10105000002007B0F0BCBB46B246A946A046F0BD92
:101060000A2004F0FFF902A884460B2202ABDD72CD
:10107000317801233800009462440AF029FC0128E9
:10108000E6D1317803233800009505AA0AF02AFC3E
:101090000328DDD102AB1C7B5B7B6A46039302AB6A
:1010A0009B7B317898465823380013750095573B41
:1010B00005AA0AF00DFC83460128C9D10A2004F0D4
:1010C000D1F902AB02A88446DD720B225B4631786F
:1010D00038000093624401230AF0FAFB0128B7D1DB
:1010E000317803233800009505AA0AF0FBFB03289A
:1010F000AED16B4602AA527B1B7D12021B04134326
:1011000002AA927B002113432C4A91465289120273
:101110009B1A9A46DB179B464B465246D8885B463D
:1011200005F056FD4F06CB114946C2093A434F8898
:101130000021380480185941039B22041D024346B4
:101140002A431A43002305F043FDCB02440D1C4300
:101150004B46524618894D155B46002105F038FD77
:101160008E068B114946820932438E88F10B70043A
:1011700012184B41A41A9D416B04E40B1C434B46CF
:101180005246988900215B4605F022FDFA23DB00D8
:101190009C464902C00D0843604405F08FFD084994
:1011A00005F039FD029D6860200005F087FD28608C
:1011B00001204EE7142A0020A81300203429002023
:1011C0000000C842D023F0B54E4645465746DE469D
:1011D0009946CF3B76249846E0B5404F8BB0404EC1
:1011E00004AD4B462B7043463C702A00009321000F
:1011F000012330000AF06CFB01280BD0631C77241C
:10120000782BEED100200BB0F0BCBB46B246A9460D
:10121000A046F0BD0E236B449A46002339789B46C6
:1012200000935246300001330AF05CFB0128E5D1FF
:1012300053461B78582BE1D16A463033D3730F22C3
:101240003978873B00906A4430000AF041FB01285E
:10125000D4D15B4639782A000093300018330AF065
:1012600041FB1828CAD11F4B2A8830001A801E4B18
:101270006A881A801D4BAA881A801D4BEA881A803A
:101280001C4B2A891A801C4B6A891A801B4BAA891D
:101290001A801B4BEA891A801A4B2A8A1A801A4B29
:1012A0006A8A1A80194BAA8A1A80EA8A184B3978F6
:1012B0001A80184B2A002B805B46009302330AF0F9
:1012C00007FBF5232B805B4639782A00009330001A
:1012D00002330AF0FDFA012095E7C0460F2A0020EC
:1012E000A8130020062A0020082A00200A2A00202D
:1012F000F4290020F6290020F8290020FA290020EE
:10130000FC290020FE290020002A0020022A0020BB
:10131000042A0020F4B7FFFFF0B54E464546DE46EE
:101320005746F723E0B58DB006AA814606A8D373C9
:1013300084460F227F4E804DF63B31782800009383
:1013400062440AF0C5FA012807D000200DB0F0BCB5
:10135000BB46B246A946A046F0BD00230AAC317890
:1013600022000093280006330AF0BCFA0628ECD1CC
:10137000E37822791B0312011343704962790988CB
:1013800012091A431B095B1AD2104900521A6C4900
:101390005B430020095E1B135143C9128A46694A08
:1013A000694D0020125E53439B139A445544EB173A
:1013B0002A0019002800984605F00AFC634B0290A9
:1013C0000020185E8B462A004346C11705F000FC3A
:1013D000030D0F031F435E4B06030020185E029AA5
:1013E0005B46C11705F0F4FB0B06020A1A430B1209
:1013F0001000190080238019794100221B028018F7
:101400005941544B1A88002305F0E2FB4F103B0072
:10141000CE17334399D0504B029A0020185E5B469A
:10142000C11705F0D5FB4D4B04900020185E2A0033
:1014300043460591C11705F0CBFBC50B4B042B436D
:1014400042040498059912184B4102920393617863
:10145000A07809010009014320788024000301439A
:101460006403641A6508E117E0073D4CC9070022D0
:10147000A35E00242943DD00029A039BA4185D416A
:101480000023001BA941374A05F0A2FB3A003300B4
:1014900004F0FCFC06900791069E079FFB04740B6A
:1014A0001C43314B7D130020185E22002B00C11716
:1014B00005F08EFB22002B0005F08AFBCB01440EC9
:1014C0001C432A4B32000020185E4D163B00C1170A
:1014D00005F07EFBA4197D41C20C4E033243CB14B0
:1014E00012196B4119121C06214B100A20430024CB
:1014F0001C5FE617250F33012B43220112184B41C5
:101500001D0053469800504480300012140005F02E
:10151000D5FB184905F07FFB4B4629005860200099
:1015200005F028FCEE21890505F089FB4B46186083
:1015300001200BE70F2A0020A8130020062A002014
:10154000082A00200A2A0020000CFEFFF6290020AD
:10155000F8290020F4290020FE290020FC29002081
:10156000FA290020350C0000042A0020022A00205D
:10157000002A00200000C84200487047145C011097
:1015800000487047B05B011070B5002823D00528D3
:101590002CD8174B8000C558280013F085F8C0B22E
:1015A000041C1F2812D8E4B2002808D00023114AD6
:1015B000E95C01331180D9B202328C42F8D8C022E2
:1015C0000134E3B25B00920013430CE01F24E4B249
:1015D0000028EBD1F3E7064B02221968054805F015
:1015E00093FCC1239B000448038070BD0020FCE7EE
:1015F000D0100020BE1F0020BC1F0020F0B5C64642
:1016000000B588B08C4601A998460B00104C170015
:1016100024CC24C3227804AD1A702B000D4C45CC89
:1016200045C3227860461A700B4B0822009305F0E0
:101630006BFC29000C22380005F066FC0322694689
:10164000404605F061FC08B080BCB846F0BDC0461D
:10165000E04B0110EC4B0110312E3000012070479F
:1016600070B50D00140002F0B1FD802292002860D8
:1016700001002280014807F025FB70BDFC4B0110E2
:1016800001207047F8B5069A06000E481F000C00AE
:1016900007F018FB0C4D2B78002B07D030003A00D8
:1016A0002100069B02F0ACFD0698F8BD074802F049
:1016B000FBFC012002F010FD02F062FD01232B7003
:1016C000ECE7C0462C4C0110132A0020285C0110C6
:1016D0000120704710B51A00029B02F089FE0298A3
:1016E00010BDC04610B500232022052108F09AFF46
:1016F0000120404210BDC04610B5034807F05EFA15
:101700000022024B1A7010BD4C4C0110132A00200D
:1017100010B5044807F052FA02F0E4FC002002F091
:10172000DBFC10BD5C4C01100020704770B5EFF37E
:10173000108472B6056AC36909036B43C81A802313
:101740009B0380229C465101604413F059F984F3B5
:101750001088002070BDC04670B50C001900EFF372
:10176000108572B680239B039C46066AC369624457
:1017700073432403D01A0019049A13F031F985F346
:101780001088002070BDC04610B5040018009923D1
:101790005B059C4609036244E3698918226A534346
:1017A000029AC91A05F0B0FB002010BDF0B5304B0D
:1017B000304E314D1B68C5B03100280002AA1F6AA7
:1017C000DC6910F015FE023042D004232B4E2C4A67
:1017D0003100FF33280010F0FBFE6A46294B280039
:1017E000198811809B7831009370032311F050F811
:1017F0000100032838D17C430322002101A805F011
:101800007DFB600A05F055FAFC21890505F017FA01
:101810000021071C05F048FA0024002809D115E032
:101820000134200005F045FA391C05F037FA00288C
:101830000CD003233100280001AA11F029F8032855
:10184000EED0114B0100180007F03CFA45B0F0BD96
:101850003100280011F006FA0028B6D00B4B010029
:10186000180007F02FFAF1E7074807F02BFAEDE729
:1018700004290020704C011044290020A4240020D9
:10188000AC4C0110DC4C0110B84C0110784C01102C
:10189000F0B583B0040005F011FAFC21051C8905A0
:1018A00005F0CDF9291C05F0B3F905F071FA04F043
:1018B0003BFE04F0DBFD184F184E82B200233900C6
:1018C000300011F031F800281EDB002301AD390093
:1018D0002B802A003000023310F0C6FF011E0FDB00
:1018E0002A786B78E40705D510091B01184380B2EC
:1018F00003B0F0BD1802F0231B0118401043F6E7B7
:10190000074807F0DFF9EBE7064B0100180007F086
:10191000D9F90548ECE7C046A4240020442900205A
:10192000044D0110E04C0110FF0F0000F0B50E0057
:10193000FA21DBB08900040004F082FA0A2104F0E5
:101940007FFA20000F000A21029404F079FA0A219C
:1019500004F076FA20000191642104F071FA0A2162
:1019600004F06EFA00918021194D3B002A004900D5
:101970001AA806F039FF174D012328001AAA05A955
:1019800010F026FE041E0AD0831C02D120005BB09A
:10199000F0BD22001AA9104807F094F9F6E7802755
:1019A000BF0032003B00280005A910F05DFF0200D7
:1019B000B84208D01AA9094807F084F9280005A9F7
:1019C00010F018FEE2E7280005A910F013FEDDE78D
:1019D000284D011044290020404D0110704D011088
:1019E000F0B5C64600B52C4C0500A5442B4C0200B2
:1019F00003A9200011F030FA002834D1284B52AE50
:101A0000984654AF3200200003A911F081FA002853
:101A100025D0002831DB39882E29F3D0214B99427B
:101A200027D084212B0042460097490010A806F0D9
:101A3000DBFE3378022B2BD0200010A910F064F9C4
:101A40000028DFD0184B020010A9180007F03AF95F
:101A50003200200003A911F05BFA0028D9D1200040
:101A600003A911F045FA94239B009D4480BCB8461D
:101A7000F0BDBB78002BC5D0D3E70C4B020029008A
:101A8000180007F01FF9200003A911F031FAEAE766
:101A900010A8FFF7A5FFCFE7B0FDFFFF4429002006
:101AA000D84D01102E2E0000E04D0110A04D011068
:101AB000802370B59B0004000F2598B0C6180AE07B
:101AC0000B222100684605F01FFA00236A462034E5
:101AD000D372B44226D02378002B23D0E37A2B4054
:101AE0000F2BEDD1611C0A2203A805F00DFA162375
:101AF00021006B4418000C220E3105F005FA21007C
:101B0000222004221C31684405F0FEF900236A46B5
:101B10003521D3840AA80D3303AA203402F0A0FE95
:101B2000B442D8D118B070BD30B589B004AC05004E
:101B30000B22200012F0BEFC2378202B34D001AA07
:101B400013706378202B3BD05370A378202B39D0AF
:101B50009370E378202B39D0D3702379202B37D0A2
:101B600013716379202B35D05371A379202B33D097
:101B70009371E379202B31D0D37100231372217A32
:101B8000202916D06B461970617A202916D0597019
:101B9000A17A202918D0997000212800D970104905
:101BA00006F00CFE09B030BD002301AA0021D1547B
:101BB000E3E700216B4600205854EDE70121FAE7E6
:101BC0000123F3E70223F1E70221F4E70323EDE722
:101BD0000423EBE70523E9E70623E7E70723E5E727
:101BE000104E0110F0B557464E464546DE46E0B56C
:101BF00085B00393002398465F4B0E0099460F2350
:101C00009A465E4F019002920B223900300012F08A
:101C10001DFC002864D00B224946300012F016FC4F
:101C200000285DD05246F37A1A400F2A58D01B077D
:101C300056D40822337800259346019CE52B66D0C4
:101C40004B46B1461E0008E04B465A8B638B9A42C6
:101C500054D001352034102D36D00B22390020000D
:101C600012F0F4FB0028F4D00B223100200012F017
:101C7000EDFB0028EDD05246E37A1A400F2AE8D057
:101C80005A461A42E5D10B222100484612F0DEFBEB
:101C90000028D9D0A845DCD14B465A8B638B9A4299
:101CA000D7D14B46DA69E3699A42D2D13300039D1A
:101CB0004E4699462B0007CC07C307CC07C32035F7
:101CC00006CC06C3039502E033004E469946029CBB
:101CD00020223100200005F017F923002033029361
:101CE00001239C46E04443462036102B8CD105B09E
:101CF000F0BCBB46B246A946A046F0BD4B46DA69E9
:101D0000E3699A42A5D133004E469946E8E710218F
:101D1000230000228C46083503E001322033102ACC
:101D2000DED0D97A0D42F8D1748B588B8442F4D12D
:101D3000F069DC69A04214D064460C42EDD0002862
:101D4000EBD11978E529E8D09045E6D1039D2A002A
:101D500013CB13C213CB13C2203503CB03C203959D
:101D6000BEE71C78E52CD8D00028EFD1C906D4D521
:101D70009045D2D1EAE7C046244E0110184E01101A
:101D80000123F0B5DBB00293802100231A4A0193AE
:101D90000093490006001AA806F026FD174D0123FE
:101DA00028001AAA05A910F013FC041E0AD0831CEF
:101DB00002D120005BB0F0BD22001AA9104806F045
:101DC00081FFF6E78027BF0032003B00280005A90D
:101DD00010F04AFD0200B84208D01AA9094806F0DE
:101DE00071FF280005A910F005FCE2E7280005A90D
:101DF00010F000FCDDE7C046284D0110442900200A
:101E0000404D0110704D0110F0B5C64600B582B0CE
:101E1000040004F04EFFFC21051C890504F00FFFAF
:101E2000291C04F0F5FE04F0B3FF04F07DFB002351
:101E300001AD2B8004F01AFB214B224F9846020083
:101E4000414606000023380010F06EFD011E2CDB19
:101E500002232A004146380010F006FD002828DB46
:101E6000E4071DD40F236A781A43F03341466A70A1
:101E70002B7032000023380010F056FD011E14DBD9
:101E8000414602232A00380010F002FD010002281A
:101E900002D00D4806F016FF02B080BCB846F0BD77
:101EA000F0222B7813430F32E0E7084806F00AFFD0
:101EB000F2E7074B0100180006F004FFECE7C0460C
:101EC000A424002044290020804E0110304E01102F
:101ED000584E0110F0B5C64600B5204C0378A54415
:101EE00090460C00002B34D004231D4D0200FF331C
:101EF000280001A910F06CFB00281ED18026194F84
:101F0000B60010E0802328009B0016AA01A910F05B
:101F1000BFFCB0420DD12000FFF7BAFC431E9BB2BC
:101F2000BB4210D80400200016A9FFF7FFFC0028D0
:101F3000E8D0280001A910F05DFB96239B009D448A
:101F400080BCB846F0BD4246280001A910F066FDED
:101F5000EFE7054806F0B6FEEFE7C046A8FDFFFF35
:101F600044290020F60F0000A84E0110F0B5CE461F
:101F7000474680B5474C8946A5440A21040003F032
:101F80005FFF0A2103F05CFF20008846642103F014
:101F900057FF0A2103F054FF0F00FA2120008900A7
:101FA00003F04EFF0A2103F04BFF0B000E008021CF
:101FB000394A49001AA806F017FC384D5AAA2800D9
:101FC0001AA910F015FA023045D08021344A490090
:101FD000330000971AA806F007FC28005AAA1AA98D
:101FE00010F006FA023041D0434680212D4A019379
:101FF0004900330000971AA806F0F6FB28005AAAF9
:102000001AA910F0F5F9023037D043468021264A4C
:10201000019349003300029400971AA806F0E4FBEC
:1020200004231AAA2800FF3305A910F0D1FA021ED2
:102030002AD1802305A94A4628009B0010F028FCDD
:10204000280005A910F0D6FA9D239B009D44C0BC32
:10205000B946B046F0BD28001AA910F003FE021ED2
:10206000B3D01AA9114806F02DFEEDE728001AA9F1
:1020700010F0F8FD021EB7D0F3E728001AA910F0FF
:10208000F1FD021EC1D0ECE71AA9094806F01AFEBC
:10209000DAE7C0468CFDFFFFDC4E0110442900202A
:1020A000244F0110344F0110284D0110E84E01104B
:1020B000484F0110F0B5DE4657464E464546E0B55E
:1020C000964C0D00A54404928022FFAE1C360400FD
:1020D00000213000920004F011FF0027002D4DDB9D
:1020E0008F4BA346059302952B00012B40DD0298F0
:1020F00086A9FFF71BFC00283FD100239A46894B95
:1021000086AC9846884B9946E37A082B65D02578AB
:10211000002D27D02268424540D04A454BD0E52DBE
:102120001DD0DA4312075ED0DB0616D55346002BCE
:1021300000D181E004AB9C46C12246AB9A46802187
:102140008023D20062449B005046490002F088FB85
:10215000638B049A934200D1A5E000239A46203471
:10216000A642D1D17B1C08D03B000297012BBEDCDC
:1021700086A8FFF705FE0028B9D05C46FF22310093
:10218000200012F097F9FF230022E254674B9D4490
:10219000F0BCBB46B246A946A046F0BD64496068A3
:1021A0008842BAD1634920898842B6D1A17A2029D0
:1021B000D5D04A45B3D15E4A61689142AFD15D4AFC
:1021C00021899142ABD1A27A202AA8D1638B1F1C0E
:1021D000002B00D10127BFB2C1E72034A642CCD0EA
:1021E00001277F4290E7C12304AA9446DB006344A1
:1021F00003936B0675D40F232B40013B5A00D21872
:102200009200D518039B68009C46611C60440A221A
:1022100004F07AFE2100039B05356D0058190C224D
:102220000E3104F071FE2100039B0C350422581975
:102230001C3104F069FE92E746AD2100280012F03F
:1022400027FAAB7AAA46202B54D16B7A202B53D194
:102250002B7A202B52D1EB79202B51D1AB79202B2B
:1022600050D16B79202B4FD12B79202B4ED1EB788D
:10227000202B4DD1AB78202B4CD16B78202B4BD120
:102280002B78203B5A1E93412B4A9B1804AA944654
:102290002A4A63449446002263441A70638B049A6A
:1022A000934200D059E706AC3100200012F0F0F95B
:1022B00023785546002B0BD1802229003000920054
:1022C00012F0F8F8FF230022F254029B049349E72E
:1022D00080212B003000059A0094890006F084FAD2
:1022E000F0E78022FF210398920004F007FE01230B
:1022F0009A4680E70B23C7E70A23C5E70923C3E70C
:102300000823C1E70723BFE70623BDE70523BBE793
:102310000423B9E70323B7E70223B5E7E4F7FFFF98
:10232000D84D01102E2020202E2E20201C08000029
:1023300020202020202000000808000000F9FFFFD6
:10234000F0B54546DE4657464E46E0B5B24C0D0068
:10235000A5440400002900D1013504928022FFAE7B
:102360001C3600213000920004F0C8FD002D49DB2E
:1023700000230127A3460393012D00DC16E128006A
:1023800086A9FFF7D3FA002800D02AE100239A4655
:10239000A24B86AC9846A24B9946E37A082B4FD0C5
:1023A0002578002D28D0226842453BD04A454DD0A3
:1023B000E52D1ED0DA43120700D17EE0DA0657D5AC
:1023C0005346002B00D1A2E004AAC1239446DB00AF
:1023D00063441A008021802346AD9B0028004900F9
:1023E00002F03EFA638B049A934200D1C7E00023C7
:1023F0009A462034A642D0D1039B3D0004937B1C17
:10240000BAD15C46FF223100200012F053F8FF23BE
:102410000022E254834B9D44F0BCBB46B246A94621
:10242000A046F0BD804960688842BFD17F492089BD
:102430008842BBD1A17A2029B8D1638B0393D8E716
:102440002034A642DDD001277F42A6E7764A6168A4
:102450009142ADD1754A21899142A9D1A27A202A0F
:10246000A6D1638B1F1C002B00D10127BFB2C0E790
:102470009A0601D4002BBCD15346002B00D1A1E019
:1024800004AAC1239446DB0063441A008021802300
:1024900046AD28009B00490002F0E2F9638B049AE4
:1024A0009342A4D12900300012F0F2F8039B3D00C2
:1024B00004937B1C00D05FE7A3E7C12304AA9446E2
:1024C000DB00634405936B0600D581E00F232B40AE
:1024D000013B5A00D2189200D518059B68009C4613
:1024E000611C60440A2204F00FFD2100059B0535A4
:1024F0006D0058190C220E3104F006FD2100059BD9
:102500000C35042258191C3104F0FEFC71E746AB6F
:102510009A4655461800210012F0BAF8AB7A202BE3
:1025200065D16B7A202B64D12B7A202B63D1EB7988
:10253000202B62D1AB79202B61D16B79202B60D11C
:102540002B79202B5FD1EB78202B5ED1AB78202B21
:102550005DD16B78202B5CD12B78203B5A1E9341A8
:10256000334A9B1804AA9446324A63449446002294
:1025700063441A70638B049A934200D037E706AC29
:102580003100200012F084F880212B002A4A30000C
:102590000094890006F028F9FF230022F254039BDF
:1025A0003D0004937B1C00D0E6E62AE786A8FFF7EF
:1025B000E7FB002800D1E2E6012120485C4606F056
:1025C00081FB1FE746AD21002800FFF7ADFA65E764
:1025D0008022FF210598920004F090FC01239A4686
:1025E00074E7290015485C4606F06CFB0AE70B23EC
:1025F000B6E70A23B4E70923B2E70823B0E70723C5
:10260000AEE70623ACE70523AAE70423A8E70323E4
:10261000A6E70223A4E7C046E4F7FFFF2E20202010
:102620002E2E20201C08000020202020202000002A
:102630000808000000F9FFFFD84D0110804F01107D
:10264000F0B557464E464546DE468846E0B52F4C27
:102650008146A544694640461700EA46FFF766F9F9
:1026600000284FD143465D1E6B1E9D4110239B46A3
:1026700001356C01264E54440B223100200011F02C
:10268000E5FE002811D02378E52B0ED0002B10D0CA
:10269000618BE37AB94216D05A461A4205D03A0005
:1026A0004846FFF7CDFF002804D101352034102D16
:1026B000E2D1002081239B009D44F0BCBB46B24682
:1026C000A946A046F0BD4946012240461B110A70AA
:1026D0001A408623486048466D0155440A72E969EC
:1026E0005B00C150002A06D009303A004146FFF78E
:1026F000E1FC0120DEE709303A004146FFF720FE09
:102700000120D7E701204042D4E7C046FCFDFFFF8F
:10271000244E0110F0B5DE46454657464E4680230E
:10272000E0B5404C9B009B46A5448846040083448A
:102730002378002B08D1D9239B009D44F0BCBB46D5
:10274000B246A946A046F0BDE37A628BDB0611D5FE
:1027500018AB414618009946FFF7ACFC4B461B7876
:10276000002B03D0494630480FF0CEFA20345C45A8
:10277000DED1E0E718AB180041469946FFF7E0FDCF
:1027800080220021920058A8658B04F0B7FB264FE9
:102790004A460123380003A90FF01AFF021E3BD15D
:1027A000224B00269A469D4228D8019412E08023AD
:1027B00038009B0058AA03A910F056F8002822DB25
:1027C000200058A9FFF7D2FB80239B009C4666445B
:1027D00055451FD82800FFF75BF82C0000230500A3
:1027E0003200380003A910F09FF80028DFDA104B00
:1027F000020031001800019C06F064FA380003A9B9
:102800000FF0F8FEAAE70B4B01001800019C06F040
:1028100059FAF3E7019CF1E74946074806F052FAF6
:102820009CE7C0469CFCFFFF44290020F70F0000F6
:10283000DC4F011018500110A84F0110F0B54746A9
:10284000CE4680B52A4C8046A54468460E00FFF768
:1028500097FA002848D1102301259946254F08AC46
:102860000B223900200011F0F1FD002811D023784F
:10287000E52B0ED0002B10D0618BE37AB14214D03F
:102880004A461A4205D032004046FFF7D9FE0028DA
:1028900004D101352034102DE2D1002081239B008A
:1028A0009D44C0BCB946B046F0BD414601221B1153
:1028B0006D010A704A601A402B006B440A72D96994
:1028C000862340465B00C150002A06D00930320002
:1028D0000121FFF7EFFB0120E0E709303200012181
:1028E000FFF72EFD0120D9E701204042D6E7C04680
:1028F000FCFDFFFF244E0110F0B5DE464E46454676
:1029000057468022E0B5C24C8846A5449200060096
:102910000021C2A804F0F2FA002342AA1370434631
:10292000012B59D0802300249B00F7183378002B0B
:102930002DD0E52B28D0052B26D03268B5498A4208
:102940002DD0B5498A423BD00F21F27A11400F2990
:1029500000D18AE1D30600D58AE093062BD5002C5E
:1029600000D046E102AC31002000FFF7DDF8728BA9
:10297000002A0CD041462000FFF7E2FC2000F2695B
:10298000718BFFF7A7FA00242036B742CED1A34BB4
:102990009D44F0BCBB46B246A946A046F0BDA04946
:1029A00070688842CDD19F4930898842C9D1B17AB7
:1029B0002029C6D1E8E7002AE5D1002CD2D018E1C1
:1029C000974A71689142BFD1964A31899142BBD1F1
:1029D000B27A202AB8D1D7E780239B0099468E4B44
:1029E000B1443400002598464E468A4F2378002B88
:1029F000CDD0E52B2CD0052B2AD02268BA422BD083
:102A0000424500D1E6E00F21E27A11400F2900D1C2
:102A1000D0E1D30600D54FE1930600D4F3E0002DBA
:102A200000D1F2E18023802102AD28009B00C2AAE0
:102A3000490001F015FF628B002AA8D0280001216F
:102A4000FFF77EFC2800E269618BFFF743FA00255F
:102A50002034A642CAD19AE7714960688842CFD132
:102A6000704920898842CBD1A17A2029C8D1EFE7CB
:102A7000002C00D0F0E002AC3100200011F008FE84
:102A8000A37A202B00D00EE2637A202B00D008E23C
:102A9000237A202B00D008E2E379202B00D008E233
:102AA000A379202B00D002E26379202B00D004E22E
:102AB0002379202B00D0FEE1E378202B00D000E228
:102AC000A378202B00D0FAE16378202B00D0FAE124
:102AD0002378203B5A1E93410022D200EC469B18DB
:102AE000002263449446002263441A724146728B6A
:102AF00042A8FFF7DFFAA02402AB9C464A4DE4004F
:102B000064442200280042A90FF072FC002803D080
:102B1000280042A910F0A6F88022738B0021200023
:102B20009200994604F0EAF98021404D404B2A007A
:102B3000490082A8019505F057FE0B22200082A9CA
:102B400004F0E2F9102302AA9446E3729B46394B43
:102B5000394963441960A2233848DB006344186094
:102B6000374B384D63441D604B46802163830023FF
:102B7000354DE3619A46019A344B2583490082A87A
:102B800005F032FE82AB190002A8A4238446DB00C4
:102B900063440B22180004F0B7F92B235A46E25481
:102BA00002AB9C462A4A244962441160A62223486B
:102BB000D20062441060274A224B624413604346AD
:102BC0006387534621002587E3634846FFF7CEF924
:102BD0000024D9E6124A6168914200D013E7114AF5
:102BE0002189914200D00EE7A27A202A00D00AE77C
:102BF0002EE78023802102AC20009B00C2AA49005E
:102C000001F02EFEB3E6002A00D108E700251FE7F9
:102C1000F4F8FFFF2E2E20202E2020200C0700008D
:102C200020202020202000004429002048500110AE
:102C3000D04D01100C05000000C66D524365436580
:102C40001405000000006D5243650000D44D0110D2
:102C50002C05000034050000802380219B00C2AABF
:102C6000490002A801F0FCFD40E75A0600D504E146
:102C70000F221340013B5D00ED18AD00ED186B0015
:102C8000C2AAD018711C0A2204F03EF931000535A1
:102C9000C2AB6D0058190C220E3104F035F9310029
:102CA000C2AB0C35042258191C31203604F02CF923
:102CB000B74200D03AE66AE6002D00D1ABE08023AF
:102CC00080219B00C2AA490002A801F0C9FD012190
:102CD000628B42A8FFF7EEF9A02502AB9C46ED00FF
:102CE000834B65442A00180042A999460FF080FBE7
:102CF000002803D0484642A90FF0B4FF8022638B1E
:102D00000021280092009A4604F0F8F88021794AC0
:102D1000794B490082A8914605F066FD0B222800F8
:102D200082A904F0F1F8102302AA9446EB729B46A4
:102D3000724B734A63441A60A2237249DB006344F6
:102D40001960714B714863441860714B80212B836B
:102D500053466B8300234A46EB6149006D4B82A8C2
:102D600005F042FD02ABA4209C46C0000B2282A9C4
:102D7000604404F0C9F82B235A46EA5402AB9C463F
:102D800065495F4A61440A60A6225E49D2006244F6
:102D90001160624A5D4862441060A7225C4BD20019
:102DA0006244136000232900EB635046FFF7DEF80E
:102DB00000254DE65A066BD40F221340013B5A0002
:102DC000D2189200914699444B46C2AA5B00D01893
:102DD000611C0A2204F098F84B4605335B009946C3
:102DE0002100C2A80C220E31484404F08DF84B4655
:102DF00021000C33C2AAD0181C310422203404F064
:102E000083F8A64200D0F1E5C1E502AD210028001B
:102E1000FEF78AFE0FE602AD2100280011F038FC13
:102E2000AB7A202B51D16B7A202B52D12B7A202BCD
:102E30004DD1EB79202B4ED1AB79202B26D16B795C
:102E4000202B4CD12B79202B47D1EB78202B4CD148
:102E5000AB78202B47D16B78202B42D12B78203BAD
:102E60005A1E93410022D200EC469B180022634474
:102E70009446002263441A7229E78022F0319200BE
:102E8000C2A804F03BF801243378F1E60723E9E710
:102E90008022FF219200C2A804F030F80125237897
:102EA0008AE70A2318E60B2316E6092314E607230C
:102EB00012E6082310E605230EE606230CE603239C
:102EC0000AE6042308E6022306E60B23CAE70923E1
:102ED000C8E70A23C6E70823C4E70523C2E7062399
:102EE000C0E70223BEE70323BCE70423BAE7C046DA
:102EF0004429002048500110D04D01100C0500005D
:102F000000C66D52436543651405000000006D5214
:102F100043650000D44D01102C050000340500006D
:102F20000823F0B54E464546DE4657469946E0B57D
:102F3000CC4C0B7AA5440E000400150089442E2BBE
:102F40002CD14B465B78002B28D16B1E5A1E934127
:102F50005B421D4080214B46C34A490012A805F040
:102F600043FC0B22200012A903F0CEFF1023E372D2
:102F7000BE4B6583E360BE4B2361BE4B6361BE4BBA
:102F800023830023E3612000203093239B009D4492
:102F9000F0BCBB46B246A946A046F0BD337A2E2B04
:102FA00000D12FE1484611F07FFB0B2815D80223F2
:102FB0004A4607219C46B14813361378002BC9D0E6
:102FC000C75C394200D028E1402B00D935E1222BE3
:102FD00000D93AE1212B00D123E112AB9B4680219D
:102FE000A14A49004B46584605F0FEFB10230AAFA4
:102FF000FB729E4B7D830D939D4B0E939D4B0F93C8
:103000009D4B3B830023FB6111F0FEF89C4902F0CD
:10301000EFFE9C4A0B0058460C2105F0E5FB594693
:103020000B22380003F070FF3A7848465308D2016B
:1030300013437A789B18DAB25208DB011A43BB7843
:10304000D2B2D218D3B25B08D2011343FA78DBB202
:103050009B18DAB25208DB011A433B79D2B2D2187C
:10306000D3B25B08D20113437A79DBB29B18DAB290
:103070005208DB011A43BB79D2B2D218D3B25B0833
:10308000D2011343FA79DBB29B18DAB25208DB01A2
:103090001A433B7AD2B2D218D3B25B08D20113439F
:1030A0007A7ADBB29B18DAB25208DB011343BA7AA0
:1030B0009B18DBB2984611F0F7FA802103004A46CC
:1030C0005846890001F026FBFF280FD801258021F2
:1030D0000300002642005A446D424900834200D159
:1030E000A4E00133158002328B42F7D10D21013863
:1030F00002F0A6FE1A23260043435B441D00040091
:10310000B2468146631CDBB229001A2203A8009351
:1031100003F0FAFE0A22701C03A903F0F5FE02ABCD
:103120009C4630000E210C2261440E3003F0ECFE70
:1031300002AB9C4630001A2104221C30614403F08B
:10314000E3FE4022009B013C134333700F234246B1
:10315000F372002372733373B376F3761A3D20361D
:10316000A145CFDD54464D4620346B1E9A4601934F
:1031700000945A1C40D01A260F236E431A3E5E4418
:103180009B46002399465346AA461D0000E0013D98
:1031900031001A2203A803F0B7FE0A22601C03A91B
:1031A00003F0B2FE02A98C460E23200063441900EE
:1031B0000C220E3003F0A8FE02A98C461A23200030
:1031C0006344190004221C3003F09EFE5346237012
:1031D0005B46E3724B462373434663734B46AA46F2
:1031E000A376E3761A3E2034002DD0D1019B5C01FA
:1031F000009B9C466444203420223900200003F0C8
:1032000083FEC0E64B465B782E2B00D0CAE64B46C9
:103210009B78002B00D198E6C4E663463B4200D081
:10322000DBE60132B24200D0C7E693E601331680F6
:1032300002328B4200D051E758E77B2BF1D00CD8FB
:103240005E3B022B00D9C8E6EBE70F4F233BDBB216
:10325000DF40FF0700D4C0E6E3E77D3B012B00D948
:10326000BBE6DEE7B4FDFFFF4850011000C66D521B
:103270004365436500006D5243650000B96001106D
:10328000FFFF0000505001107F040020F0B5DE4623
:1032900057464E464546136893468022E0B5C34CD8
:1032A0009200A5440C9009910C006EA80021069391
:1032B00003F024FE6EAB0393002C00D18CE2069841
:1032C000FEF7A2FDBA4B0C9A18001FA902930FF04B
:1032D000C3FD2CAB051E994600D05BE382464A46EF
:1032E00002981FA90FF014FE002800D1B9E10028B0
:1032F00000DA69E24B461B78022B00D1C3E1012BB7
:10330000EDD15B461B680EAA089301330E934B4622
:103310005C68B0239446DB0063449846002C00D0E0
:103320007FE24B461B7A2EAD2E2B00D177E2802216
:1033300029005200404611F0BDF89E4E4046310033
:1033400011F000F9040011F0AFF9082800D80FE2DD
:10335000802229005200404611F0ACF8310040466E
:1033600011F0F0F831000400002011F0EBF880219A
:103370002300914A0090490017A805F035FA2F2143
:1033800020230EAA521813708C4B0EAA1A938C4B42
:1033900040461B938B4B1C938B4B93874B465A6831
:1033A0001300591E8B411E9280220E995B421940D8
:1033B0000EABD9875200290011F07CF8310040464D
:1033C00011F0C0F83100002011F0BCF80023C370E8
:1033D00003780400002B0CD0032602007B48C15C5C
:1033E0003140022900D1E0E1137053780132002B03
:1033F000F5D110F009FF764902F0FAFC754A0B008E
:1034000000940C2110A805F0EFF917AB10AA03CA1D
:1034100003C311880EA8198092780EAC9A702423E9
:10342000C01800784308C001034320002524001978
:10343000007801341B18D8B24008DB0118430EABEA
:103440001B191B78C0B2C018C3B25B08C00103438C
:1034500001340EA800190078DBB21B18D8B240085E
:10346000DB01184301340EAB1B191B78C0B2C01826
:10347000C3B25B08C001034301340EA800190078F1
:10348000DBB21B18D8B24008DB01184301340EAB85
:103490001B191B78C0B2C018C3B25B08C00103433C
:1034A00001340EA800190078DBB21B18D8B240080E
:1034B000DB011843C0B2CBB2C018C3B25B08C00175
:1034C0000343090ADBB25B18D9B24908DB010B439D
:1034D0009B18DBB22800049311F0E6F8802103006A
:1034E0002A004046890001F015F9FF280FD8012471
:1034F0008021030000254200424464424900834287
:1035000000D15AE10133148002328B42F7D10D21F0
:10351000013802F095FC1A2304000F274343039D52
:10352000434407930590059B1A22079910A85E1C37
:1035300003F0EAFC0A22681C10A903F0E5FC0EABBC
:103540009C46280012210C2261440E3003F0DCFC62
:103550000EAB9C4628001E2104221C30614403F05F
:10356000D3FC00234020079A2B73AB76EB76F6B2A0
:10357000059B06430498013B1A3A2E70EF7268735C
:103580000593203507929C42CDDD039B651E2033B9
:103590002F00039305936B1C53D01A260023664318
:1035A0001A3E464407979846039F16E044F8FFFFEB
:1035B00044290020D04D0110B851011000C66D52B1
:1035C0004365436500006D5243650000B96001101A
:1035D000FFFF0000C4510110013D31001A2210A864
:1035E00003F092FC0A22781C10A903F08DFC0EA9AE
:1035F0008C4612233800634419000C220E3003F06D
:1036000083FC0EA98C461E23380063441900042253
:103610001C3003F079FC0F23FB7243463B73049B81
:103620003C707B7343462C00BB76FB761A3E2037FA
:10363000002DD1D1059B079F9C467F016744203711
:1036400003972022039817A903F05EFC039B4A46C8
:10365000203302981FA903930FF05AFC002800D0D2
:1036600045E655461FA902980FF042FC06986EA940
:10367000FEF77CFC2800D04B9D44F0BCBB46B24614
:10368000A946A046F0BD099B002B26D12EAD2800EF
:10369000CA4910F0B9FF002800D120E62B782E2B64
:1036A00061D02B782E2B03D16B782E2B00D177E1B4
:1036B0005B461868EEAC01301860FEF7A5FB5B4670
:1036C00049461A680398FFF72BFC802203902900D3
:1036D0002000920010F0EEFE33E02EAD2B782E2B62
:1036E00009D16B78002B06D14946069A0398FFF75B
:1036F00017FC0390F3E52B782E2B0CD16B782E2B37
:1037000009D1AB78002B06D14946099A0398FFF7F7
:1037100007FC0390E3E55B461868EEAC01301860E7
:10372000FEF772FB5B4649461A680398FFF7F8FB01
:1037300080210390A24A20000C9B0095890005F08F
:1037400053F80022FF232000E25406995A46FFF75F
:103750009DFD002800DBC2E504001FA902980FF0C0
:10376000C7FB250086E76B78002B00D1B7E598E70B
:103770003100002010F0E6FE070010F095FF03284E
:1037800000D9E5E52378002B00D194E18D48C25C97
:10379000510700D079E1402B00D97FE2222B00D9DC
:1037A00069E2212B00D0D3E572E1203B13705378FE
:1037B0000132002B00D012E61BE6013315800232E5
:1037C0008B4200D09BE6A2E67F4B02000C991800CA
:1037D000554605F077FA45E70EA9B0248C46E4007B
:1037E00064447A4B0C217A4A200004F0FDFF0B223E
:1037F00021006EA803F088FB8C2108230EAAFF315C
:1038000052181370734B099A7393734B719274939C
:1038100076AB039301237292759206934FE56F4E38
:1038200096E50E9A02989446530063449B0A5E0202
:1038300005936B4B32001900049300230FF074F8CA
:103840003700011E00DA9EE00EAAB0239446DB008A
:103850006344984680234246049902989B000FF0E7
:1038600003F8002800DAA1E000D18FE0200002F088
:10387000BDFD00225B4B02F04EFD02F0AFFE02F0F8
:10388000F5FD051E00D1E7E00E9C431EA4468444CE
:103890000A93634645460B930F9057E0671CFAB2B4
:1038A000012121400791591C0D910121B04621426F
:1038B00000D1A3E0E95C12018C460F216046014073
:1038C0000A43EA54591C3A096A54FF2252009342AF
:1038D00035DB00233200049902980FF025F8002808
:1038E00000DAA1E080232A00049902989B000EF0E0
:1038F000CFFF002800DAA4E000D1C9E280239B00BA
:103900009846B04400234246049902980FF00CF800
:10391000002836DB80232A00049902989B000EF0D1
:10392000A3FF002841DB00D1B2E2079B002B00D1AE
:1039300080E03B09DBB2059A2B70013205920B9BAC
:1039400001349C4200D183E0059B5E0260000019B7
:1039500002F04CFD0022244B02F0DDFC02F0E4FDFD
:1039600002F060FDC217D20D8318DB05DB0D9B1A38
:10397000089A0A99A21A013A91428FD8FF221B4F46
:103980008EE70100A8461A4805F09CF900235A4624
:103990001360C6E42A000C99164805F093F969E60D
:1039A000AB78002B00D19AE482E6A846124B0100C6
:1039B000180005F087F9E9E7BC070000704C01101A
:1039C000D84D0110B9600110A05001105C500110D9
:1039D0004850011000006D4F43650000D04D0110AC
:1039E000A42400200000603F0000E03FFF0F000023
:1039F000D85001106850011010510110EA540F22E4
:103A0000591C695C380A914302400A43591C6A54A4
:103A1000C44A934293D100233200049902980EF0D5
:103A200083FF002800DB5DE70100BF48A84605F0E2
:103A300049F9ABE70F222B783F0A93433A401343EF
:103A400079E7BA4B01001800A84605F03BF99DE75D
:103A500043461F00A8460F9D049900233A00029890
:103A60000EF062FF011E00DA27E18023424604992E
:103A700002989B000EF00CFF002800DA70E100D1E4
:103A800084E7089B02335B1981E7920700D55FE466
:103A90006378002B0FD0C25C510769D1402B00D94D
:103AA000F2E0222B00D910E1212B00D050E463E09A
:103AB000920700D54CE43B78002B2CD09C48C25C8C
:103AC000910700D544E4520700D1CAE07B78002B6F
:103AD00021D0C25C910700D53AE4520708D1402BAF
:103AE00000D967E1222B00D992E1212B00D02FE4ED
:103AF000BB78002B0FD0C25C910700D528E4520799
:103B000009D1402B00D979E1222B00D98AE1212B60
:103B100001D0FFF71DFC802229005200404610F022
:103B2000C9FC3100404610F00DFD040031000020BA
:103B300010F008FD80212300039C49007D4A00907D
:103B4000200004F051FE2023E3727B4BE3607B4BAB
:103B500023617B4B63617B4B23834B465A68130085
:103B6000591E8B410E995B4219406183E2616DE5FC
:103B7000920701D5FFF7ECFBA378002B9BD0C25C2A
:103B8000510761D0920701D5FFF7E2FBE378002BE4
:103B900091D0C25C510700D08AE0402B00D9D5E01B
:103BA000222B00D8E7E0684A233BDBB2DA4013005F
:103BB000DB0701D4FFF7CCFB2379002B00D17AE798
:103BC000C25C51077DD1402B00D9E9E0222B00D9FE
:103BD0000AE1212B01D0FFF7BBFB6379002B00D159
:103BE00069E7C25C510700D082E0402B00D9F1E0C8
:103BF000222B00D920E1212B01D0FFF7A9FBA379CB
:103C0000002B00D157E7C25C510700D0AEE0402B3B
:103C100000D927E1222B00D93CE1212B01D0FFF76D
:103C200097FBE379002B00D145E7C25C510700D038
:103C30003EE7402B00D937E1222B00D94AE1212B66
:103C400001D0FFF785FB36E7402B47D8222B53D90D
:103C50003D4A233BDBB2DA40D20701D4FFF778FBC1
:103C600094E7402B53D8222B00D98FE0212B01D091
:103C7000FFF76EFB2AE7344A233BDBB2DA40D20778
:103C800001D4FFF765FB03E77B2B00D174E777D8FE
:103C90005E3B022B01D9FFF75BFB6DE77B2B00D16D
:103CA000F6E62ED85E3B022B01D9FFF751FBEFE67B
:103CB000920700D480E7FFF74BFB1B4805F002F8A2
:103CC00064E6920789D5FFF743FB1F4A233BDBB22B
:103CD000DA40D20701D4FFF73BFB4DE77B2B00D145
:103CE00054E771D85E3B022B01D9FFF731FB4DE75A
:103CF000920784D5FFF72CFB212B01D0FFF728FB7F
:103D000044E77D3B012B01D9FFF722FBC0E67B2B6B
:103D100000D1DBE600D99FE05E3B022B01D9FFF723
:103D200017FBD3E6FF01000048510110805101103C
:103D3000B9600110B851011000C66D52436543656A
:103D400000006D52436500007F0400207B2B00D1F2
:103D500032E77BD85E3B022B01D9FFF7F9FA2BE75C
:103D6000674B0100180004F0ADFF0FE6920700D486
:103D700057E7FFF7EDFA212B01D0FFF7E9FA1BE730
:103D80007D3B012B01D9FFF7E3FAF5E65D4A233BC2
:103D9000DBB2DA401300DB0701D4FFF7D9FA95E66E
:103DA0007B2B00D119E76DD85E3B022B01D9FFF7C1
:103DB000CFFA12E77B2B00D19AE65DD85E3B022B4F
:103DC00001D9FFF7C5FA93E67D3B012B01D9FFF737
:103DD000BFFADBE67B2B00D111E76FD85E3B022BED
:103DE00001D9FFF7B5FA0AE7464A233BDBB2DA40CE
:103DF0001300DB0701D4FFF7ABFAEEE67B2B00D113
:103E000089E661D85E3B022B01D9FFF7A1FA82E671
:103E10003C4A233BDBB2DA401300DB0701D4FFF757
:103E200097FA65E6374A233BDBB2DA401300DB073B
:103E300001D4FFF78DFA6EE6324A233BDBB2DA405B
:103E40001300DB0701D4FFF783FAD8E67D3B012B93
:103E500001D9FFF77DFAAFE67D3B012B01D9FFF7D2
:103E600077FA33E67B2B00D1DBE63DD85E3B022BB5
:103E700001D9FFF76DFAD4E67D3B012B01D9FFF79D
:103E800067FA35E67D3B012B01D9FFF761FAA4E61D
:103E9000A8467BE51B4A233BDBB2DA401300DB0775
:103EA00001D4FFF755FABCE67B2B00D103E621D8FD
:103EB0005E3B022B01D9FFF74BFAFCE57D3B012B62
:103EC00001D9FFF745FA9AE67D3B012B01D9FFF7AF
:103ED0003FFA20E60B4A233BDBB2DA401300DB0754
:103EE00001D4FFF735FAE6E57D3B012B01D9FFF759
:103EF0002FFA96E67D3B012B01D9FFF729FADAE587
:103F0000805101107F040020F0B54546DE464E4644
:103F10005746E0B55D4D06002B688B461A6ADB6993
:103F200087B053435B0A9846834209D200239946DF
:103F3000484607B0F0BCBB46B246A946A046F0BD15
:103F4000FDF7A6FC0028F1D0514F3B6801339E429B
:103F500005D0002300223A607B600023BB604D49FE
:103F600000238A464C495A460391414602915146E4
:103F700013604A4BBA461F00029BB1460022A84676
:103F800000960191002B6FD043461B68196ADB69CC
:103F90004B435B0A68D0002000210024404D21E003
:103FA0000B09120113433F495A1E8A4202D8009A54
:103FB00093424AD043461B6801341A6ADB69534373
:103FC0005B0A9C4236D2200002F078FEFC21061CDF
:103FD000890502F034FE311C02F01AFE02F0D8FE10
:103FE00002F0A2FA02F042FA002382B2390028005D
:103FF0000EF09AFC002818DB002305AE3900338050
:104000003200280002330EF02FFC011E09DB31784C
:104010007278E307C4D41302F022120113400B4359
:10402000C1E7019804F04EFEF1E70100039804F0A7
:1040300049FEBFE7009B4E4699465B4657461A68C5
:104040004B463E607B60BA6072E75B461A6801329D
:104050001A60029B013B029353461B68A34208D09F
:10406000029B0094002B8FD1009B4E4657469946E9
:10407000E6E75746009B9946BB68D3185A4613603B
:104080004A46BB607B683A60994651E704290020A4
:1040900010190020044D0110E04C0110A424002050
:1040A00044290020F60F000070B5094D094C0100AD
:1040B000286020000DF072FC002800D170BD296836
:1040C00020000DF0CBFB200029680DF067FCF5E720
:1040D0000429002044290020014B18707047C04675
:1040E000152A0020F0B5204C204E214DA544320069
:1040F000280003A90EF0B0FE002826D11D4F54ACB5
:10410000280052AA03A90EF003FF002819D00028A6
:1041100023DB23882E2BF3D0174A934219D0842116
:104120003A0049003300009410A804F05DFB10A889
:10413000FDF756FC280052AA03A90EF0E9FE00285C
:10414000E5D1280003A90EF0D3FE95239B009D44E2
:10415000F0BDA378002BD3D0E1E7084B020031007B
:10416000180004F0AFFDECE7ACFDFFFF704C011050
:1041700044290020D84D01102E2E0000D4510110EA
:1041800010B50E4C82B020000DF09EFD0C4B2000AF
:1041900019680DF003FC011E0CDBFFF7A3FFFDF710
:1041A00005FB01230021074801AA0193FFF76EF8E0
:1041B00002B010BD044804F085FDF9E74429002051
:1041C00004290020085301100C520110094A10B5AF
:1041D0001368002B0BD01A6AD869504302F006F915
:1041E0000022054B02F097F802F040F910BD034B96
:1041F0001360F0E7042900200000603F285C0110F4
:10420000F0B54746CE4680B51F00694B16000D003D
:104210001A68DBB0002900D172E0116AD3694B4300
:104220005B0A5C00E418634B01349C4664086444F8
:10423000640AA5421DD829005F48013D04F042FDF3
:104240005E4C6A025E4D0023290020000EF06CFBDC
:10425000011E00DA7FE029003B00320020000EF052
:1042600003FB011E00DA7AE05BB0C0BCB946B04681
:10427000F0BD631C9D4202D3A31CAB4273D829003E
:10428000504804F01FFD88220023002152002D1BFE
:1042900016A8009302F032FE69462800FFF734FEAC
:1042A000011EE1D016A8FEF7C9FA0128DCD16B4641
:1042B00060229B181B78002B64D161223F4C6A441A
:1042C0000123200001A90EF083F9021E53D1009BA7
:1042D000200099465B02984601A9002342460EF051
:1042E00023FB051E5BDB3B003200200001A90EF022
:1042F000BBFA00284BDB200001A90EF07BF9B3E7E5
:10430000002A25D0D369146A5C43200002F06EF8BD
:1043100000222D4B01F0FFFF02F0A8F8254A2B4D9B
:104320009446030A2B75630A5C00E41801346408A0
:104330006444620A0100E874640C2548AA75EC75AF
:1043400004F0C0FC3A002900300002F0DDFD8BE7EC
:10435000204A1A60D6E7204804F0B4FC84E71F48DE
:1043600004F0B0FC80E729001D4804F0ABFC3000ED
:10437000FDF706FD78E761236B441900194804F046
:10438000A1FC71E731002800FDF7D0FA6CE761214C
:104390002B004A466944144804F094FCABE76121C1
:1043A0002B0042466944114804F08CFC9BE7C04650
:1043B00004290020FF010000785201104429002048
:1043C000A42400200C5301100000603FE8100020DE
:1043D00038520110285C011090520110B85201109F
:1043E000E452011028530110A05301106053011032
:1043F000F0B54646D6464F46C0B5B94C15001E002E
:10440000A544002924D0B74B1B681A6ADB695343C3
:104410005B0A5C00E418B44B01349C4664086444B5
:10442000640AA1421CD8B14FB14C4A1E0023390086
:10443000200072430EF078FA011E00DACCE0390059
:1044400033002A0020000EF023FA0100B04263D1AD
:10445000E323DB009D44E0BCBA46B146A846F0BD6C
:104460000C1B012C79D0002301A920000193FFF738
:104470004BFD011E54D002AF3800FEF7DFF9431C9C
:10448000E6D0002800D1E9E03B7A002B00D0A7E07D
:10449000019B290020009946FDF768FD3B78002B21
:1044A000D6D04B46002B00D0E2E011336B449A4645
:1044B000A323DB006B4498468D4C524641462000B6
:1044C0008C4B0EF085F8002800D0F7E033002A006E
:1044D000414620000EF0DCF9802302009B00984248
:1044E00000D0DDE086235B00FA584B4601335B02C7
:1044F000934206D3414620000EF090FA002800D0E7
:10450000E3E0414620000EF075F8021EA0D05146AF
:10451000794804F0D7FB9BE7784804F0D3FB97E792
:104520002900200002AFFDF721FD21003800FEF731
:1045300085F9012800D08BE73B78002B00D187E775
:104540003B7A002B00D083E70D33FF33103021007E
:10455000FA586844FDF7BEFC7AE7802200219200F9
:1045600046A802F0CBFC8022C6AE002192003000AB
:1045700002F0C4FCA3238022DB006B4400219200E4
:104580001800984602F0BAFC46A8FDF7F9FB46A8C9
:10459000FDF78EFA2800FDF78BFA802229009200A1
:1045A00046A80FF04BFE002805D0434632002900F4
:1045B00046A8FDF717FB40460121FEF7ABF829009E
:1045C0000120FDF7D3FC29000020FDF7CFFC0121DD
:1045D0003000FEF791F93BE7494804F073FB37E7F9
:1045E00080220021920046A802F088FC8022C6AEFC
:1045F00000219200300002F081FCA3238022DB0026
:104600006B44002118009200984602F077FC2000CD
:1046100046A9FDF78BF9002825D146A8FDF748FAF1
:104620002800FDF745FA80222900920046A80FF0E5
:1046300005FE002805D043463200290046A8FDF7B4
:10464000D1FA21004046FEF765F829002000FDF769
:104650008DFC21003000FEF74FF9F9E6290020001B
:10466000FDF784FCF4E62100264804F02BFBEFE67E
:1046700011236B449A46A323DB006B4498461C4CE1
:1046800052460223414620000DF0A2FF021E10D127
:104690004B4641465A02200000230EF045F915E72B
:1046A0005146194804F00EFB414620000DF0A2FFD0
:1046B000CEE65146154804F005FBC9E6134B02004F
:1046C0005146180004F0FEFAC2E6114B02005146B2
:1046D000180004F0F7FA414620000DF08BFFB7E612
:1046E000E8F8FFFF04290020FF010000A4240020B7
:1046F0004429002002050000085501100C54011047
:10470000E0530110385401109C54011068540110FA
:10471000D0540110F0B5DE4657464E464546E0B54A
:1047200084468B46002600203F2783B0002B0ED006
:10473000834513D99557945D002D16DB451C6146C2
:104740004000013644522800B342F1D803009B4593
:1047500003D9002160465A001152180003B0F0BC82
:10476000BB46B246A946A046F0BD1F252100A9437D
:10477000C02962D00F252100A943E02961D0072577
:104780002100A943F02955D1ED3989462540711CF6
:10479000884699424ED2545C2100B943802949D1C0
:1047A0004946AD013C402C4301294ED0B11C8846FE
:1047B0008B423FD9555C2900B94380293AD14946FB
:1047C000A4013D402C43032941D10336B34231D9E2
:1047D000955D2900B94380292CD1A4013D402C438B
:1047E0008021451C49028C42A9D31A4988462100E0
:1047F00041440191AB451DD941008A460199544677
:104800000903890D894614490136884649464546BB
:1048100029438846614645460D53554601996544EE
:104820008C050E49A40D0C436C800430B34200D9B2
:104830007EE78BE70120404290E7BF39894625405B
:10484000A5E7DE3989462540A1E7464676E7464694
:10485000C6E7C0460000FFFF00D8FFFF00DCFFFFF7
:10486000F0B54E46DE4657464546E0B5060083B0F5
:10487000002B54D080242401A2463F24A046BF3CF4
:1048800000250020A446019308E0471C8F4222D84F
:1048900034543800019B0135AB421CD06C00145BD2
:1048A000204B9C4217D07F2CEFD954451ED2871C39
:1048B000B9468F420FD84023A7095B421F434346A6
:1048C0001C4063461C43019B37540135301844702B
:1048D0004846AB42E2D1814201D90023335403B0B0
:1048E000F0BCBB46B246A946A046F0BDC71CB946BF
:1048F0008F42F0D8230B1F0020235B421F43A309E4
:1049000037541F0043461F4063461F4343461C4025
:10491000634630181C43477084704846BAE700204D
:10492000D9E7C046FFFF0000094A83009A1810B576
:1049300014684022544080322240064CC000A446F5
:1049400063441A60044B9C466044416010BDC046FD
:1049500004C0014004D0014000400140074B8000EA
:10496000C3181B68C90092000A435A400C23134025
:10497000034A9446604403607047C04604C0014047
:1049800004D001408000002905D0064B9C464023FE
:10499000604403607047044B9C46402360440360BE
:1049A000F8E7C04604E0014004F001400123D022B2
:1049B0008340120693629361094A83009A18116832
:1049C0004022514080320A400649C0008C46634470
:1049D0001A60054B9C460523604443607047C046FF
:1049E00004C0014004D00140004001408023DB05A9
:1049F0001868000F7047C0460FB400B5084883B070
:104A000004F0DCF8049B002B07D005A918000191E5
:104A100003F010FF034804F0D1F8012003F022FF57
:104A20003C5501100852011070B5EFF3108C72B6AE
:104A30000D4D2B68002BFCD0BFF35F8F0724CB08F4
:104A4000C618C05C01230C40A3401C000440034274
:104A500007D118433070BFF35F8F2C608CF3108840
:104A600070BD1000FFF7C8FF2C0100D0F8B5474615
:104A7000CE46884680B5EFF3108C72B61C4D2C687C
:104A8000002CFCD0BFF35F8F9A4222D80721012669
:104A9000894602E00132934218D34D463700154053
:104AA000AF40D4080119045D2742F3D110003C4304
:104AB0000C70BFF35F8F00220D4B1A608CF31088CF
:104AC00000280EDBC0BCB946B046F8BD012040420C
:104AD000EFE7BFF35F8F00232B608CF3108801207A
:104AE00040424346002BEDD00898FFF785FFC046B3
:104AF0002C0100D0044A1078431CDBB2172B00D9DC
:104B0000102313707047C046E812002010B5064B02
:104B1000064C82B00100009318221F232000FFF7EB
:104B2000A5FF02B010BDC0464C55011068240020FE
:104B30000021044B044ABFF35F8F02C39342FAD1B2
:104B40007047C046000100D0800100D0054B064AE6
:104B50001360064A136053609360D360136153611E
:104B6000936170478080808000E400E004E400E00E
:104B70001F2318401E3B8340002905D0C021044A52
:104B80004900535013607047802201498B50FAE767
:104B900000E100E070B50D00EFF3108672B60F4A29
:104BA0001368002BFCD0BFF35F8F0D4B10309B6858
:104BB00084001B590B4A934203D09D4201D000F060
:104BC000DBFF074B9B681D51BFF35F8FBFF35F8F08
:104BD0000022024B1A6086F3108870BD240100D0B9
:104BE00000ED00E0C1010010F0B557464E46DE462C
:104BF0004546E0B585B0060000911700EFF3108B35
:104C000072B66A4A1368002BFCD0BFF35F8F002591
:104C1000674B5D579A46002D00DAA9E06B00654CA2
:104C200001935B199B009846A146C1444B465246EE
:104C30009B7910361370604BB6009B6899590B1B1B
:104C40002F2B33D95D4B994200D0ACE0019B4246FB
:104C50009C465B4B6544AD0063535A4B0232A2182D
:104C6000043B9B1A1B05584A5B0D651913436B8067
:104C7000564B0121AB80FF23AB71009BEF71AB6002
:104C80004B460B4319004C4B9B689951BFF35F8F08
:104C9000BFF35F8F0022454B1A608BF3108805B07D
:104CA000F0BCBB46B246A946A046F0BD01200A00B2
:104CB0008243D3798C46BB4231D8454613004449E0
:104CC0001B1B5B415943090D3D4B63533D4B023563
:104CD0006519043B5B1B1B053B4D5B0D2B43AA4633
:104CE0004D466B800425AC465546E044131F4444B2
:104CF0001B1B1B055B0D1D434B46997100999D8045
:104D000099604946DF71334B01431360BBE758009C
:104D1000C01880002018C179B9422FD9020006239B
:104D2000D356002BF3DA02932B4B61460393131DEA
:104D30009A4604235B429C46E14450464B461B1A6C
:104D40001B055B0D9C46204B95719846634640467B
:104D500003439380019B5A199200039BA418A380DC
:104D6000029B1C4AA371009B2260E771A3608AE743
:104D700000F002FF002553465D574FE790880293ED
:104D80004005131D9A46031561469C464046D4448F
:104D9000634604302018181AE0230005400D1B025A
:104DA00018430390C5E700F0E7FE4FE7240100D069
:104DB000122A0020EC12002000ED00E0C1010010DA
:104DC00000A1FFFF1C13002000E0FFFF01BDFFFF5B
:104DD000AAAA00000148804701BD000070B5012467
:104DE0000443EFF30581EFF3108C72B6214A136888
:104DF000002BFCD0BFF35F8F1F4B05001F4AED1A3D
:104E00006D416A43120D1E4D8900AE6852B276584C
:104E1000A6421CD00621595691421CD01221595647
:104E2000914222D01E215956914220D02A21595612
:104E30000324914210D0134B19781A708171BFF37B
:104E40005F8F00220B4B1A608CF3108870BDAB682B
:104E50000D4C5C50EFE700246100091989005B18D4
:104E6000FF21997109499980E5E70124F4E70224BB
:104E7000F2E7C046240100D0EC120020AAAA0000EC
:104E800000ED00E0122A0020C101001001BDFFFF6B
:104E9000024B9C4661448900016070474000003429
:104EA00070B5114C114DAC420FD2FF262368002B78
:104EB0000CD0FFF71FFE01002000FFF7E9FFA680DE
:104EC000BFF35F8F0834AC42F0D370BDFFF712FE22
:104ED00001002000FFF7DCFF2671BFF35F8F08346D
:104EE000AC42E3D3F1E7C0460819002010190020B6
:104EF00010B50400FFF7FEFD01002000FFF7C8FF1A
:104F0000FF232371BFF35F8F10BDC04610B50400AF
:104F10000120FFF7FBFD034BC3189B002360BFF389
:104F20005F8F10BD400000340A4B1968EFF310800A
:104F300072B60A68002AFCD0BFF35F8F1B68BFF30C
:104F40005F8F00221A6080F3108840BF002000218C
:104F50007047C046D0290020F0B5DE4657464E4681
:104F60004546E0B587B0EFF30583032201251A40DB
:104F7000954091008846A946B34B03925C58B34BC9
:104F80001D60B34B04934B46B24843630823E55E70
:104F9000002D37DAA3881BB2002B00DBADE0A3792C
:104FA000002B00D0EEE00823E05E002820DB430069
:104FB00062691B18DB00D3189E68DD68731C00D182
:104FC00011E1A44801004144826A0B69B71A9B1A97
:104FD0009F4215D30123026A039883401A420FD0DF
:104FE0009C4800F04DFB8D4202DCCCD18642CAD9F0
:104FF00040BF07B0F0BCBB46B246A946A046F0BDD4
:105000000E61EDE762696B0092465B19DB009A4422
:1050100053469E68DF6800F033FB8F42BADC00D154
:1050200003E1002F00DAE8E05246534652691B695B
:105030009346049A934200D1D9E052460821605E1B
:1050400052880004594610439847009001910099F6
:10505000019A0B001000134300D1CEE013000A00A8
:10506000B61A9F41002806DB7A4800F009FB009E33
:10507000019F36184F4153469E60DF6000229A5EC2
:10508000002A00DA86E7530099186069C9004118C0
:1050900002938B68C9689B46B94200DD7AE702D16A
:1050A000B34200D976E708239C46A444059565469B
:1050B0002281A446029B2C0006E053009918C900E7
:1050C00041188D68C968AB469B18DB00C318B9420C
:1050D00006DC00D1B3E01C000023E25E002AECDA1B
:1050E000230064469C4653461A806346059D1D80F6
:1050F000A3881BB2002B00DA51E72269EFF310817D
:1051000072B61368002BFCD0BFF35F8F0123A78812
:105110005B42A3803FB22369BFF35F8F00221A6016
:1051200081F31088002F00DA39E7230008332200CA
:105130009A4666697B00DB19DB00F31899685046D4
:105140008C460824115FDD68002910DB029306E01D
:10515000AB4244D00023E15E2000002906DB4C0076
:105160006418E4003419E368AB42F1DD029B078068
:1051700000201F5E1980002FDCDA1400A379002BB9
:1051800000D110E70023A37126000823E15E083652
:105190004B1C00D12CE70800A246656902E03E00E6
:1051A0004B1C1AD04B005B18DB00EF180A008C4632
:1051B000E95E7B881BB2002BF1DA01235B42DC172E
:1051C000BB60FC60824205D0534631801B893B8026
:1051D00053461A8160464B1CE4D15446E5E6A36869
:1051E0006345B7D9C2E76B1C00D0EAE6F8E65B4638
:1051F00058461B69984700281BD153461B882269D3
:105200002381EFF3108372B611680029FCD0BFF33D
:105210005F8F514662880A8022696580BFF35F8F85
:105220000021116083F31088B4E6864200D8F8E6C6
:10523000B0E65B461A685B680092019307E7B345E6
:1052400000D848E74CE7C046242900203C700540C0
:10525000594F00100040054070B52E4C2569002DB7
:1052600004D00A212C48FFF713FE70BD2B4E0321FA
:10527000300000F0FBF9E660FFF73CFC284B03220E
:105280009C46D02322701B061B6801216370254BAE
:105290006044A3600F238000206102206380636963
:1052A0004942A18019800231198647311D83585225
:1052B00018315A5275325C3999521832013199526B
:1052C0001832013199521832013199520835183289
:1052D0009D520231183299521832013199521832C6
:1052E00001319952183201319952183201319952D3
:1052F0001832013199520C4B0C49DC600130356297
:10530000FFF748FC01210320FFF732FC084B1D602A
:10531000A7E7C04634130020D029002000400540F4
:1053200040000034FFFF100024290020594F0010D6
:1053300038600540004870473413002070B5010004
:105340000469EFF3108C72B620680028FCD0BFF31C
:105350005F8F02200D5E4C6968004019C000241860
:105360000869002D36DB26884E80BFF35F8F00264C
:1053700006608CF31088E360638804980133206131
:105380005B0405985B0CA26060611A1C002B1FD0A7
:1053900093B22804628018430A69EFF3108C72B646
:1053A0001368002BFCD0BFF35F8F8B8823808D8028
:1053B0000B69BFF35F8F00221A608CF310880B78A3
:1053C00001329A40CB6808498C4663441A6070BD2C
:1053D0000122DDE7BFF35F8F002303608CF31088A9
:1053E00001204042F3E7C0463C20000010B543894D
:1053F0000A1493421ADD53009B184269DB00D3184C
:105400000469EFF3108C72B62268002AFCD0BFF357
:105410005F8F5A88090494B2090C8A4208D0036944
:10542000BFF35F8F00221A608CF31088002010BD3C
:105430008022120214435C80012302698371BFF34E
:105440005F8F002111608CF31088044902788C462C
:105450009340C268012062441360E8E73C200000EA
:1054600040787047F0B5C64600B582B0040000F041
:105470000FF9FA2206000F002000002300219200FD
:1054800001F0A6FB8019794104000D1E02DA012407
:105490002E4D644206267642F71736196F41AF4209
:1054A00014D811D000F0F4F832003B00121A8B41EE
:1054B000002B15DC002B46D02000290000F026F937
:1054C00002B080BCB846F0BDA642EBD9002600274A
:1054D00000F0DEF832003B00121A8B41002BE9DDB0
:1054E00000F0D6F832003B00121A8B41002B0ADB89
:1054F00000230193164B3200009316483B00FFF740
:105500001DFF0130D8D000233900B0469C46124A16
:105510001248536A994204D8966A4645CCD29942B9
:10552000CAD10668EFF3108772B63368002BFCD03F
:10553000BFF35F8F0368BFF35F8F66461E6087F31C
:10554000108820BFE5E7002AB6D0C9E7FFFFFF7F3C
:10555000294F00103413002000400540D0290020BE
:10556000F0B557464E46DE464546E0B506000F000C
:1055700085B0EFF3058399468B46002B12D038494E
:1055800000204B6ABB4206D38A6ADB1B591E8B4143
:10559000B2424041184305B0F0BCBB46B246A946F2
:1055A000A046F0BD2F4B9A46DB68984653461B78C1
:1055B0004046039300F064F84246039B0400043322
:1055C0009B009B580D001B1A39003000001BA9419D
:1055D000894510DC0DD020BF214A0020536A5B456D
:1055E000D9D3926ADB1B591E8B41B242404118430A
:1055F000D1E78342EFD900F04BF832003B00121A9A
:105600008B41002B1ADB00230193174B32000093D0
:1056100050463B00FFF792FE011E0FDD104B5A6A09
:105620005A451BD39B6AB34216D35046FFF7DEFEA2
:105630000B4A0020536A5B45ADD3D2E7084A0020ED
:10564000536A5B45A7D30020926ADB1BB2424041FC
:105650005A1E934118439EE75A45E6D120BFE4E71E
:105660000040054034130020294F001010B5024AB5
:105670000248FFF7D9F910BD685501106C240020CD
:105680000300416A0A00986A596A8A42FAD170474F
:10569000034B596A0A00986A596A9142FAD17047D5
:1056A0000040054070B504000D00174A536A190008
:1056B000966A536A8B42FAD13000190024184D4182
:1056C000AB4216D813D0104B2A005B6A9D4203D917
:1056D0000D494B6A9342FCD3934207D10A4A02E038
:1056E000516A994202D1916AA142F9D370BDA64292
:1056F000E9D9054B5B6A1C005A1CEFD0012201243A
:105700006442E5175242E3E700400540064A536A07
:105710009942FCD807D1044B02E05A6A914202D167
:105720009A6A9042F9D8704700400540F8B50400E5
:1057300006200D0000F078F9002844D0374B384996
:10574000E3185A1E93418022120494465B429B0D3B
:10575000344A9B0563441360334A136018000A6897
:105760009043FBD12D4B314AE31859424B418021E4
:105770005B0049000620995200F056F92900C0004C
:1057800000F05EFB0130C3091ED140270122626296
:10579000A362266BF30722D4E36A254B0620E518A3
:1057A00000232B60266300F03FF93900800000F0F1
:1057B00047FB7023E26A5A400E3313402B601D4BA7
:1057C00023630323A364F8BD1B4A93421ED900231D
:1057D0001A4A1B4F6262A362266BF307DCD5194B92
:1057E000144AE3181A60656AA36A0620AD01ED1831
:1057F00000F01AF9144900F023FBAD020100280063
:1058000000F01EFB0021FFF74DFFC5E74006800EAC
:105810009F011A003F180300B9E7C0460080FCBF93
:1058200008C0004000E0004000F00040F0290020E7
:105830002C10000001030000FEFF0000FFFF00002D
:10584000C0FF3F00303000004E0E0000F8B5DE46CD
:105850004E4657464546E0B58B4605000A99180066
:10586000160000F0EDFA0A9B6C001F02324B64191F
:105870009C46A4006444636881469F4200D96760E7
:105880002B1FDBB29846012B30D9C02380229B010D
:10589000E31812011A60294BAD0059599A460029A4
:1058A0001BD17301E026226853401E4080234246EC
:1058B0005B01E3181E60012A30D9802380229B01FE
:1058C000E31812011A6053464A4667605A51F0BC09
:1058D000BB46B246A946A046F8BD586900F0B0FAEA
:1058E000013043001B18033BFDD2DAE75B46012B76
:1058F000CBD1C02303229B01E3181A60023AA368AC
:105900001A42FCD07301E0262268AD0053401E40CD
:1059100080230A4A5B019246E3181E605A462168BA
:10592000514003220A401A6001225B469A40A36854
:105930001A42FCD0C1E7C04600800040702400201D
:10594000F0B546464F46D646C0B51F00344B44001E
:105950009C462418A4006444636888461600FF2B04
:1059600002D880235B006360031FDBB29A46012BE1
:1059700030D9C02380229B01E31812011A60294B01
:1059800085005959994600291BD17301E0262268E8
:1059900053401E40802352465B01E3181E60012ADB
:1059A00030D9802380229B01E31812011A608023E2
:1059B0005B0063604B465F51E0BCBA46B146A84607
:1059C000F0BD586900F03CFA013043001B18033B5E
:1059D000FDD2DAE74346012BCBD1C02303229B0142
:1059E000E3181A60023AA3681A42FCD07301E02659
:1059F0002268850053401E4080230A4A5B0191467D
:105A0000E3181E6042462168514003220A401A6092
:105A1000012342469340A2681342FCD0C1E7C0462E
:105A20000080004070240020014B8000C058704767
:105A300070240020F8B5040021481E0017000D0056
:105A400000F0FEF90100380000F0FAF9069B360478
:105A50001B031E432368002B20DB1A4B1A49E31853
:105A60005A1E93418022920194465B421B0B174AB7
:105A70001B0363441360164A13601F000A689743B0
:105A8000FBD1144B2560E2182123A060136023682A
:105A9000002BFCDA0823E6601360F8BD3F23226880
:105AA0001340AB42D9D1A3681B051B0D8342D4D14F
:105AB000EE22E368D2021340B342CED1EDE7C046F6
:105AC000001BB7000040FDBF08C0004000E00040E0
:105AD00000F00040043000008023024A9B000B438A
