:020000041000EA
:1000000000B5324B212058609868022188439860DF
:10001000D860186158612E4B002199600221596106
:100020000121F02299502B49196001219960352056
:1000300000F044F80222904214D00621196600F024
:1000400034F8196E01211966002018661A6600F04E
:100050002CF8196E196E196E052000F02FF8012189
:100060000842F9D1002199601B49196000215960AB
:100070001A491B48016001219960EB211966A021F2
:10008000196600F012F800219960164914480160C1
:100090000121996001BC002800D000471248134993
:1000A000086003C880F30888084703B5996A0420EC
:1000B0000142FBD001200142F8D103BD02B5186610
:1000C0001866FFF7F2FF186E186E02BD00000240BE
:1000D000000000180000070000035F00212200005C
:1000E000F4000018222000A00001001008ED00E03C
:1000F00000000000000000000000000074B24E7A12
:1001000000200420F7010010CB010010CD010010E9
:10011000C9010010C9010010C9010010C901001077
:10012000C9010010C9010010C9010010CF01001061
:10013000C9010010C9010010D1010010D301001045
:10014000C1010010C1010010C1010010C101001067
:10015000C1010010C1010010C1010010C101001057
:10016000C1010010C1010010C1010010C101001047
:10017000C1010010C1010010C1010010C101001037
:10018000C1010010C1010010C1010010C101001027
:10019000C1010010C1010010C1010010C101001017
:1001A000C1010010C1010010C1010010C101001007
:1001B000C1010010C1010010C1010010C1010010F7
:1001C000EFF30580103800BE00BE00BE00BE00BECA
:1001D00000BE00BEF2EB8871D4650110FC65011011
:1001E0003802001090A31AE71E481F49086006C88D
:1001F00081F3088810471D480068002801D019487D
:10020000F3E70DA40ECC002902D000F012F8F9E7B4
:100210001749184A002000E001C19142FCD116495B
:100220008847164988471649884700BEFDE701C937
:1002300001C29A42FBD37047FC650110C000002048
:10024000101900204C7E0110000004200000042042
:100250004C7E01100010042000100420000000005B
:10026000704700000000000008ED00E0000000D032
:1002700010190020182A0020358C0010010B0010E6
:100280002D8C0010F8B5C04606480749091A8B1096
:10029000C90FC91810B5491003D0044B002B00D06A
:1002A000984710BD10190020101900200000000010
:1002B000054B10B5002B03D00449054800E000BFF2
:1002C000FFF7E2FF10BDC046000000000C2900202F
:1002D000644E011010B504001F2104F01FFD002220
:1002E0002000002104F034FD0021200004F044FD32
:1002F00010BDC04670B50478002C17D00021202214
:100300000D26114B00255D5F104B00290FD1A54232
:1003100014D099690A42FCD11C60017801300D3972
:100320004C4261410478C9B2002CEED170BD99698C
:100330000A42F1D099690A42F9D1EDE799690A4276
:10034000FCD11E60E5E7C046F029002000400340D4
:10035000F0B5364F0400C3590E00022083B0CB1A0B
:10036000632B01D803B0F0BD684600F029FD00986A
:1003700006F08EFE2E4B0500E25C002A42D02D4B8B
:10038000E159E758FA239B009C46711A4801401A2C
:1003900080004018C000614405F04CFFFA21ED1BBD
:1003A0006843890005F01EFFC5195320214B0A211F
:1003B000E550214BE3585B1B584305F013FF1F4BDF
:1003C000E7581F4BF71BE15A80235B0199421CD071
:1003D000013189B280235B029C46E35A1A01A218BC
:1003E00055600225176090601573624601331B0546
:1003F0001B0DA352124BE152124BE0500B4B03204A
:10040000E650AFE70132E254CFE70F4A0F4BA25C50
:10041000E35A002A03D00E4AA25A9A42ECD0013382
:100420000A4A1B051B0DA352D4E7C0461C0001005D
:100430004C000100480001000C0001001800010000
:100440000400010014000100080001000200010086
:1004500006000100F0B5C646FA2700B5384B040087
:100460009846C3580E0082B0CB1ABF00BB4204D2DC
:10047000042002B080BCB846F0BD684600F0A0FC85
:10048000009806F005FE2F4B0500E25C002A44D0E0
:100490004346E1582C4B711AE35848019846FA2319
:1004A0009B009C46401A80004018C000614405F043
:1004B000C1FE4346ED1A6843390005F093FE4044FF
:1004C00005005320204B0A21E550204BE3585B1BCD
:1004D000584305F087FE1E4BE7581E4BF71BE15AA9
:1004E00080235B0199421BD0013189B280235B02DA
:1004F0009C46E35A1A01A2185560042517609060C3
:100500001573624601331B051B0DA352114BE152BB
:10051000114BE0500A4BE650AAE70132E254D0E713
:100520000E4A0F4BA25CE35A002A03D00D4AA25A8E
:100530009A42EDD001330A4A1B051B0DA352D5E7A1
:100540001C0001004C000100480001000C000100EB
:10055000180001000400010014000100080001005F
:100560000200010006000100F0B5CE46474680B506
:100570003C4D040043590E0083B0CB1A092B05D81B
:10058000002003B0C0BCB946B046F0BD684600F0DC
:1005900017FC63590A27002B00D0F71A009806F0C1
:1005A00077FD314B0500E25C002A57D02F4B7801D4
:1005B000E358C01B9846FA2380009B00C019F91825
:1005C000C00005F037FE4346FA21ED1A6843890062
:1005D00005F008FE404405005327244B0A21E5504E
:1005E000234BE3585B1B5F43380005F0FBFD214BB9
:1005F000E15A80235B01994220D0013189B28023E6
:100600005B029C46E35A99461A010023A218136024
:1006100013734B4655609060624601331B051B0DFA
:10062000A352144BE152144BE0500E4BE650134BC7
:100630009F42A5DD124B0120E650A2E7114A124B62
:10064000A25CE35A002A03D0104AA25A9A42EAD086
:1006500001330D4A1B051B0DA352D0E70132E254B2
:10066000BAE7C0461C0001004C0001004800010030
:100670000C00010004000100140001001927000013
:10068000180001000800010002000100060001003E
:10069000F0B5464F0400C3590E0083B0CB1A632B4C
:1006A00002D8012003B0F0BD684600F089FB009835
:1006B00006F0EEFC3E4B0500E25C002A6FD03D4B9D
:1006C000E159E758FA239B009C46711A4801401AE9
:1006D00080004018C000614405F0ACFDFA21ED1B1C
:1006E0006843890005F07EFDC5195320314B0A216E
:1006F000E550314BE3585B1B584305F073FD2F4B1E
:10070000E7582F4BF71BE15A80235B01994236D003
:10071000013189B280235B029C46E35A1A01A21878
:1007200055600125176090601573624601331B0503
:100730001B0DA352224BE152224AA358834205DAF1
:10074000A050214BE050194BE650AAE71F4A9446AF
:1007500063448342F5DD80235B02E35A312B21D8C9
:100760001B4A944663449BB21A4AA35201221A4B75
:10077000E254154BE0500D4B0220E65092E7164A2A
:10078000164BA25CE35A002A03D0124AA25A9A429C
:10079000D2D00133114A1B051B0DA352BAE7013217
:1007A000E254A2E7323B9BB2DEE7C0461C000100E8
:1007B0004C000100480001000C000100180001007D
:1007C00004000100100001001400010018FCFFFFEC
:1007D000CE0F000006000100080001000200010029
:1007E000F0B54746CE4680B57C4F0400C3590E0095
:1007F00083B0CB1A312B05D8032003B0C0BCB94657
:10080000B046F0BD684600F0DBFA009806F040FC08
:10081000734B0500E25C002A00D1C8E0714BE1593E
:10082000E758FA239B009C46711A4801401A800041
:100830004018C000614405F0FDFCFA21ED1B68433F
:10084000890005F0CFFCC5195322664B0A21E550FB
:10085000654BE3585B1B5A431000904605F0C2FC01
:10086000624B0700E358F31A9C46614BE15A802320
:100870005B01994200D189E0013189B280235B029A
:100880009946E35A60461A01A21855600325106084
:10089000976015734A4601331B051B0DA352544B39
:1008A000E152544B6421E058C01B05F09BFCFA2137
:1008B00005008900404605F095FC4F4B8146E35CFE
:1008C000002B35D14D4BE35C002B09D14C4BE35C45
:1008D000012B6FD0022B11D04A4BE35C002B2FD0A1
:1008E000494B984505DC494AA358FB1A6333C62B8C
:1008F00047D9464BE750394BE6507DE7444BE35A26
:100900008342E9DBD02380221B0612025A61802237
:1009100092035A610122394BE25405F0B3F80029E1
:1009200057D0FA220023920005F0C2FC394BE05068
:10093000344BE35C002BD3D1304BE35C002BCFD1A5
:10094000354BE35C012B3AD0022BC9D1334BE35A30
:100950004B45C5DBD02380221B0612025A61802240
:10096000D2035A610222254BE25405F08BF800298C
:100970002AD0FA220023920005F09AFC254BE05081
:10098000AEE7164BA7500420E65036E7244A254B25
:10099000A25CE35A002A04D0234AA25A9A4200D108
:1009A0007FE701331F4A1B051B0DA35266E7013287
:1009B000E25449E7164BE35AAB42A3DD8CE7174BF1
:1009C000E35AAB42C6DD8BE7FA21890005F032FC21
:1009D000D4E7FA21890005F02DFCA7E71C000100EF
:1009E0004C000100480001000C000100180001004B
:1009F0000400010010000100240001002600010095
:100A00003E000100250001008713000014000100D2
:100A100040000100280001004200010044000100E4
:100A2000080001000200010006000100D02380221E
:100A3000F0B5D6464F4646461B069203C0B59A61AE
:100A40008022D2039A61802212025A6180460A20D3
:100A50008A4604F001FFE0238020DB01994604234D
:100A6000400000279C460100224A234E234D4C465D
:100A700013682340336063462B6013680B42FCD03D
:100A8000536801381B041B0C80B2FF180028EED1FC
:100A900043463F091F8080235B019946E023802164
:100AA000DB019846144B490000269C4604270800A9
:100AB000104A124D4C461368634044462340644636
:100AC00023602F6013680342FCD0536801391B0474
:100AD0001B0C89B2F6180029ECD1534636091E804A
:100AE0008022D02312021B069A61E0BCBA46B146AE
:100AF000A846F0BD00C0044000D0044000E004401F
:100B0000F0B5854CA5440BF0DBF801236A4604A937
:100B10001382002008F092FD08F0CAF97F4808F01F
:100B200015FAE1217E48490204F0FAFF0221002073
:100B300004F0F4F80221012004F0F0F87948FFF7FE
:100B4000D9FB794803F068FA7848FFF7D3FBE12135
:100B50007348490204F0E4FF0221002004F0DEF8AB
:100B60000221012004F0DAF8714972480BF050F8C4
:100B70000321082004F0D2F80321092004F0CEF864
:100B800000220121082004F0E3F8002201210920BD
:100B900004F0DEF80BF078F81A20FFF79BFB1B201F
:100BA000FFF798FB0F2004F0FBF8152004F0F8F88D
:100BB000162004F0F5F8102004F0F2F88024D02379
:100BC0008020802180221B0624028003C903520258
:100BD0005C62586259625A629C61986199619A613B
:100BE00000F0C8F8002804D0FA20800004F034FE99
:100BF000FAE70021504A04A806F048FB4F4A504B40
:100C00006A4413CB13C213CB13C21B884D4D138000
:100C10004D4B01A82B604D4B0A266B604C4B0024BA
:100C2000AB604C4BEB604C4B2B616B46991DFFF757
:100C3000FDFE02A800F0C4F8200006F007FA0299B1
:100C400006F0E0F906F024FA013E0400642004F006
:100C500003FE002EEDD10A21200005F0C3FA6A46FA
:100C600010213E4B5218D0503DE0FA220023920052
:100C700005F01EFB040001200021404208F058FD51
:100C80006A461021364B5218D35C002B1ED06846A2
:100C9000344A41188A58FA21A21A49008A4215D3C7
:100CA000012B2AD0D02380221B06D2039A618022F6
:100CB0006946120210209A6101222B4B0918CA546E
:100CC000694610200022264B0918CA5410276B468B
:100CD000264EDB199B5D21009B00EB5804A898472A
:100CE0006B46DB19985504F0CDFE0029BDD1FA21E1
:100CF000890005F09FFA0400BDE7D022802112068A
:100D00008903916180210902916110206946184A86
:100D100009188B54D4E7C0469CFFFEFF684E0110B3
:100D200000400340844E011040600110984E0110B5
:100D3000801A0600A8130020500001003C000100AA
:100D4000A85F0110D4290020690500109106001049
:100D500051030010E1070010550400100C000100C1
:100D600026000100280001002500010046000100C6
:100D70002400010010B500F035F8002810D100F073
:100D800069F9002804D10A4808F0E0F8002010BDF5
:100D90000223084C0848237008F0D8F82078F6E7BA
:100DA0000123044C0548237008F0D0F82078EEE7C2
:100DB000FC4E0110112A0020D84E0110B04E011037
:100DC00010B5074B1B78012B06D0022B02D100F087
:100DD000EBF910BD0020FCE700F06AF8F9E7C04627
:100DE000112A00207623F0B55746DE4645464E468A
:100DF0009A462B4BE0B59B4687B02A4F05AD53462C
:100E00003B701E232B7000232A0000935146584646
:100E100001330AF025FF01280DD053467722013314
:100E20009246782BEBD1002007B0F0BCBB46B2460F
:100E3000A946A046F0BD093004F00EFD1A4B02AAE7
:100E40001E00944603930B23634498460123A02479
:100E5000994643461C704B463978424600935846A3
:100E600001230AF0FDFE0128D7D1002339782A009A
:100E70000093584602330AF0FDFE0228CDD12B889C
:100E800002345BBAE4B233800236B02CE1D1039B6A
:100E9000064A1B88013B9BB29342BED80120C3E7A0
:100EA000A8130020142A002034290020FDFF000090
:100EB000F0B5DE4657464E464546E0B587B0482376
:100EC0006A4600255F4E604F137531780290009599
:100ED0003800473B05AA0AF0C3FE0400012807D0EA
:100EE000002007B0F0BCBB46B246A946A046F0BD04
:100EF0000A2004F0B1FC02A884460B2202ABDD728A
:100F0000317801233800009462440AF0A9FE0128D8
:100F1000E6D1317803233800009505AA0AF0AAFE2D
:100F20000328DDD102AB1C7B5B7B6A46039302ABDB
:100F30009B7B317898465823380013750095573BB2
:100F400005AA0AF08DFE83460128C9D10A2004F0C3
:100F500083FC02AB02A88446DD720B225B4631782B
:100F600038000093624401230AF07AFE0128B7D1C9
:100F7000317803233800009505AA0AF07BFE032888
:100F8000AED16B4602AA527B1B7D12021B04134397
:100F900002AA927B002113432C4A914652891202E5
:100FA0009B1A9A46DB179B464B465246D8885B46AF
:100FB00006F008F84F06CB114946C2093A434F885C
:100FC0000021380480185941039B22041D02434626
:100FD0002A431A43002305F0F5FFCB02440D1C43BE
:100FE0004B46524618894D155B46002105F0EAFF35
:100FF0008E068B114946820932438E88F10B7004AC
:1010000012184B41A41A9D416B04E40B1C434B4640
:101010005246988900215B4605F0D4FFFA23DB0095
:101020009C464902C00D0843604406F00FF8084989
:1010300005F0EBFF029D6860200006F007F82860CD
:1010400001204EE7142A0020A81300203429002094
:101050000000C842D023F0B54E4645465746DE460E
:101060009946CF3B76249846E0B5404F8BB0404E32
:1010700004AD4B462B7043463C702A000093210080
:10108000012330000AF0ECFD01280BD0631C77240B
:10109000782BEED100200BB0F0BCBB46B246A9467F
:1010A000A046F0BD0E236B449A46002339789B4638
:1010B00000935246300001330AF0DCFD0128E5D1EF
:1010C00053461B78582BE1D16A463033D3730F2235
:1010D0003978873B00906A4430000AF0C1FD01284E
:1010E000D4D15B4639782A000093300018330AF0D7
:1010F000C1FD1828CAD11F4B2A8830001A801E4B08
:101100006A881A801D4BAA881A801D4BEA881A80AB
:101110001C4B2A891A801C4B6A891A801B4BAA898E
:101120001A801B4BEA891A801A4B2A8A1A801A4B9A
:101130006A8A1A80194BAA8A1A80EA8A184B397867
:101140001A80184B2A002B805B46009302330AF06A
:1011500087FDF5232B805B4639782A000093300009
:1011600002330AF07DFD012095E7C0460F2A0020DA
:10117000A8130020062A0020082A00200A2A00209E
:10118000F4290020F6290020F8290020FA2900205F
:10119000FC290020FE290020002A0020022A00202D
:1011A000042A0020F4B7FFFFF0B54E464546DE4660
:1011B0005746F723E0B58DB006AA814606A8D3733B
:1011C00084460F227F4E804DF63B317828000093F5
:1011D00062440AF045FD012807D000200DB0F0BCA4
:1011E000BB46B246A946A046F0BD00230AAC317802
:1011F00022000093280006330AF03CFD0628ECD1BB
:10120000E37822791B03120113437049627909883C
:1012100012091A431B095B1AD2104900521A6C4971
:101220005B430020095E1B135143C9128A46694A79
:10123000694D0020125E53439B139A445544EB17AB
:101240002A0019002800984605F0BCFE634B029066
:101250000020185E8B462A004346C11705F0B2FEF7
:10126000030D0F031F435E4B06030020185E029A16
:101270005B46C11705F0A6FE0B06020A1A430B12C5
:101280001000190080238019794100221B02801868
:101290005941544B1A88002305F094FE4F103B002F
:1012A000CE17334399D0504B029A0020185E5B460C
:1012B000C11705F087FE4D4B04900020185E2A00F0
:1012C00043460591C11705F07DFEC50B4B042B432A
:1012D00042040498059912184B41029203936178D5
:1012E000A07809010009014320788024000301430C
:1012F0006403641A6508E117E0073D4CC907002242
:10130000A35E00242943DD00029A039BA4185D41DB
:101310000023001BA941374A05F054FE3A00330070
:1013200004F0AEFF06900791069E079FFB04740B26
:101330001C43314B7D130020185E22002B00C11787
:1013400005F040FE22002B0005F03CFECB01440ED0
:101350001C432A4B32000020185E4D163B00C1177B
:1013600005F030FEA4197D41C20C4E033243CB146C
:1013700012196B4119121C06214B100A204300243C
:101380001C5FE617250F33012B43220112184B4136
:101390001D0053469800504480300012140005F0A0
:1013A00055FE184905F031FE4B46290058602000D3
:1013B00005F0A8FEEE21890505F03BFE4B461860BE
:1013C00001200BE70F2A0020A8130020062A002086
:1013D000082A00200A2A0020000CFEFFF62900201F
:1013E000F8290020F4290020FE290020FC290020F3
:1013F000FA290020350C0000042A0020022A0020CF
:10140000002A00200000C842004870472C600110EC
:1014100000487047C85F011070B5002823D0052828
:101420002CD8174B8000C558280013F005FBC0B21C
:10143000041C1F2812D8E4B2002808D00023114A47
:10144000E95C01331180D9B202328C42F8D8C02253
:101450000134E3B25B00920013430CE01F24E4B2BA
:101460000028EBD1F3E7064B02221968054805F086
:1014700013FFC1239B000448038070BD0020FCE7DC
:10148000D0100020BE1F0020BC1F0020F0B5C646B3
:1014900000B588B08C4601A998460B00104C170087
:1014A00024CC24C3227804AD1A702B000D4C45CCFB
:1014B00045C3227860461A700B4B0822009305F052
:1014C000EBFE29000C22380005F0E6FE03226946F7
:1014D000404605F0E1FE08B080BCB846F0BDC0460D
:1014E000584F0110644F0110312E30000120704719
:1014F00070B592B014000D0002F0A2FF80218900A7
:10150000286002AE21800091C1390300174A3000E3
:10151000FF3907F031FB3478002C18D0300000215F
:1015200020220D26124B00255D5F124B002910D1A1
:10153000A54215D099690A42FCD11C60017801309E
:101540000D394C4261410478C9B2002CEED112B081
:1015500070BD99690A42F0D099690A42F9D1ECE765
:1015600099690A42FCD11E60E4E7C046744F01103D
:10157000F02900200040034001207047F0B5CE461E
:10158000474680B593B099461A9B02AC00938046BB
:101590000B000F0020004021234A07F0EDFA2678C7
:1015A000002E19D00D25214B20000021595E20244A
:1015B0000023AC461E4A002B1ED1B14223D09569B0
:1015C0002C42FCD11660037801300D3B5D426B412B
:1015D0000678DBB2002EEED1164C2378002B18D003
:1015E00040464A4639001A9B02F03AFF1A9813B057
:1015F000C0BCB946B046F0BD95692C42E2D09569B1
:101600002C42F9D1DEE793691C42FCD1634613609A
:10161000D5E7094802F000FD012002F003FD02F0C9
:1016200055FD01232370DBE7A44F0110F0290020B2
:1016300000400340132A0020406001100120704741
:1016400010B51A00029B03F0C3F8029810BDC04603
:1016500010B500232022052109F0ACF901204042F9
:1016600010BDC04610B5034807F070FC0022024BC5
:101670001A7010BDC44F0110132A002010B5044881
:1016800007F064FC02F0D4FC002002F0CBFC10BD9B
:10169000D44F01100020704770B5EFF3108472B67C
:1016A000056AC36909036B43C81A80239B03802220
:1016B0009C465101604413F06BFB84F310880020BA
:1016C00070BDC04670B50C001900EFF3108572B6FE
:1016D00080239B039C46066AC369624473432403C8
:1016E000D01A0019049A13F043FB85F310880020E8
:1016F00070BDC04610B50400180099235B059C46D8
:1017000009036244E3698918226A5343029AC91A99
:1017100005F0C2FD002010BDF0B583B0040005F057
:1017200095FCFC21051C890505F083FC291C05F0AE
:1017300069FC05F0F5FC05F0F1F805F091F8184F9B
:10174000184E82B200233900300011F0B5FA00289B
:101750001EDB002301AD39002B802A00300002334C
:1017600011F04AFA011E0FDB2A786B78E40705D5E1
:1017700010091B01184380B203B0F0BD1802F0231A
:101780001B0118401043F6E7074807F063FCEBE73E
:10179000064B0100180007F05DFC0548ECE7C04669
:1017A000A4240020442900200C500110E84F01100F
:1017B000FF0F0000F0B50E00FA21DBB08900040035
:1017C00004F038FD0A2104F035FD20000F000A2145
:1017D000029404F02FFD0A2104F02CFD2000019159
:1017E000642104F027FD0A2104F024FD00918021EA
:1017F000194D3B002A0049001AA807F0BDF9174D02
:10180000012328001AAA05A911F0AAF8041E0AD07B
:10181000831C02D120005BB0F0BD22001AA9104841
:1018200007F018FCF6E78027BF0032003B002800D5
:1018300005A911F0E1F90200B84208D01AA9094837
:1018400007F008FC280005A911F09CF8E2E7280041
:1018500005A911F097F8DDE7305001104429002068
:101860004850011078500110F0B5C64600B52C4C18
:101870000500A5442B4C020003A9200011F0B4FC84
:10188000002834D1284B52AE984654AF3200200085
:1018900003A911F005FD002825D0002831DB398887
:1018A0002E29F3D0214B994227D084212B00424688
:1018B0000097490010A807F05FF93378022B2BD06E
:1018C000200010A910F0E8FB0028DFD0184B020020
:1018D00010A9180007F0BEFB3200200003A911F088
:1018E000DFFC0028D9D1200003A911F0C9FC942302
:1018F0009B009D4480BCB846F0BDBB78002BC5D092
:10190000D3E70C4B02002900180007F0A3FB2000CE
:1019100003A911F0B5FCEAE710A8FFF7A5FFCFE790
:10192000B0FDFFFF44290020E05001102E2E0000E2
:10193000E8500110A8500110802370B59B000400EE
:101940000F2598B0C6180AE00B222100684605F062
:10195000A3FC00236A462034D372B44226D02378F5
:10196000002B23D0E37A2B400F2BEDD1611C0A22F0
:1019700003A805F091FC162321006B4418000C22EB
:101980000E3105F089FC2100222004221C3168441C
:1019900005F082FC00236A463521D3840AA80D3362
:1019A00003AA203403F056F9B442D8D118B070BD60
:1019B00030B589B004AC05000B22200012F042FFC4
:1019C0002378202B34D001AA13706378202B3BD0CE
:1019D0005370A378202B39D09370E378202B39D023
:1019E000D3702379202B37D013716379202B35D016
:1019F0005371A379202B33D09371E379202B31D00D
:101A0000D37100231372217A202916D06B461970E6
:101A1000617A202916D05970A17A202918D099709E
:101A200000212800D970104907F090F809B030BDA6
:101A3000002301AA0021D154E3E700216B460020D6
:101A40005854EDE70121FAE70123F3E70223F1E718
:101A50000221F4E70323EDE70423EBE70523E9E79D
:101A60000623E7E70723E5E718510110F0B55746CD
:101A70004E464546DE46E0B585B0039300239846C2
:101A80005F4B0E0099460F239A465E4F01900292DB
:101A90000B223900300012F0A1FE002864D00B2286
:101AA0004946300012F09AFE00285DD05246F37A83
:101AB0001A400F2A58D01B0756D408223378002525
:101AC0009346019CE52B66D04B46B1461E0008E0CC
:101AD0004B465A8B638B9A4254D001352034102DDB
:101AE00036D00B223900200012F078FE0028F4D006
:101AF0000B223100200012F071FE0028EDD052467A
:101B0000E37A1A400F2AE8D05A461A42E5D10B224E
:101B10002100484612F062FE0028D9D0A845DCD149
:101B20004B465A8B638B9A42D7D14B46DA69E369AD
:101B30009A42D2D13300039D4E4699462B0007CCE2
:101B400007C307CC07C3203506CC06C3039502E0C4
:101B500033004E469946029C20223100200005F0B9
:101B60009BFB23002033029301239C46E044434621
:101B70002036102B8CD105B0F0BCBB46B246A9462E
:101B8000A046F0BD4B46DA69E3699A42A5D133001D
:101B90004E469946E8E71021230000228C4608357E
:101BA00003E001322033102ADED0D97A0D42F8D179
:101BB000748B588B8442F4D1F069DC69A04214D054
:101BC00064460C42EDD00028EBD11978E529E8D025
:101BD0009045E6D1039D2A0013CB13C213CB13C249
:101BE000203503CB03C20395BEE71C78E52CD8D083
:101BF0000028EFD1C906D4D59045D2D1EAE7C04636
:101C00002C510110205101100123F0B5DBB00293DB
:101C1000802100231A4A01930093490006001AA864
:101C200006F0AAFF174D012328001AAA05A910F0F3
:101C300097FE041E0AD0831C02D120005BB0F0BDC9
:101C400022001AA9104807F005FAF6E78027BF001E
:101C500032003B00280005A910F0CEFF0200B84278
:101C600008D01AA9094807F0F5F9280005A910F0CD
:101C700089FEE2E7280005A910F084FEDDE7C046F2
:101C800030500110442900204850011078500110B4
:101C9000F0B5C64600B582B0040005F0D1F9FC21CC
:101CA000051C890505F0C5F9291C05F0ABF905F0FF
:101CB00037FA04F033FE002301AD2B8004F0D0FD91
:101CC000214B224F9846020041460600002338006F
:101CD00010F0F2FF011E2CDB02232A0041463800DF
:101CE00010F08AFF002828DBE4071DD40F236A7850
:101CF0001A43F03341466A702B70320000233800DB
:101D000010F0DAFF011E14DB414602232A003800DE
:101D100010F086FF0100022802D00D4807F09AF962
:101D200002B080BCB846F0BDF0222B7813430F32CE
:101D3000E0E7084807F08EF9F2E7074B01001800CA
:101D400007F088F9ECE7C046A424002044290020CD
:101D5000885101103851011060510110F0B5C6468C
:101D600000B5204C0378A54490460C00002B34D0DD
:101D700004231D4D0200FF33280001A910F0F0FDDF
:101D800000281ED18026194FB60010E080232800BD
:101D90009B0016AA01A910F043FFB0420DD120000C
:101DA000FFF7BAFC431E9BB2BB4210D804002000D0
:101DB00016A9FFF7FFFC0028E8D0280001A910F0C1
:101DC000E1FD96239B009D4480BCB846F0BD424691
:101DD000280001A910F0EAFFEFE7054807F03AF9FB
:101DE000EFE7C046A8FDFFFF44290020F60F0000E2
:101DF000B0510110F0B5CE46474680B5474C8946F4
:101E0000A5440A21040004F015FA0A2104F012FA8C
:101E100020008846642104F00DFA0A2104F00AFA31
:101E20000F00FA212000890004F004FA0A2104F0CE
:101E300001FA0B000E008021394A49001AA806F069
:101E40009BFE384D5AAA28001AA910F099FC0230BE
:101E500045D08021344A4900330000971AA806F083
:101E60008BFE28005AAA1AA910F08AFC023041D031
:101E7000434680212D4A01934900330000971AA858
:101E800006F07AFE28005AAA1AA910F079FC02304E
:101E900037D043468021264A0193490033000294FB
:101EA00000971AA806F068FE04231AAA2800FF3338
:101EB00005A910F055FD021E2AD1802305A94A4626
:101EC00028009B0010F0ACFE280005A910F05AFD78
:101ED0009D239B009D44C0BCB946B046F0BD280080
:101EE0001AA911F087F8021EB3D01AA9114807F0F9
:101EF000B1F8EDE728001AA911F07CF8021EB7D05E
:101F0000F3E728001AA911F075F8021EC1D0ECE71A
:101F10001AA9094807F09EF8DAE7C0468CFDFFFFD2
:101F2000E4510110442900202C5201103C520110B0
:101F300030500110F051011050520110F0B5DE4642
:101F400057464E464546E0B5964C0D00A5440492D2
:101F50008022FFAE1C36040000213000920005F004
:101F600095F90027002D4DDB8F4BA3460593029575
:101F70002B00012B40DD029886A9FFF71BFC0028EF
:101F80003FD100239A46894B86AC9846884B9946A8
:101F9000E37A082B65D02578002D27D022684245AA
:101FA00040D04A454BD0E52D1DD0DA4312075ED014
:101FB000DB0616D55346002B00D181E004AB9C46CE
:101FC000C12246AB9A4680218023D20062449B0006
:101FD0005046490002F03EFE638B049A934200D1C2
:101FE000A5E000239A462034A642D1D17B1C08D01C
:101FF0003B000297012BBEDC86A8FFF705FE0028F8
:10200000B9D05C46FF223100200012F01BFCFF23F8
:102010000022E254674B9D44F0BCBB46B246A94641
:10202000A046F0BD644960688842BAD163492089FE
:102030008842B6D1A17A2029D5D04A45B3D15E4A8B
:1020400061689142AFD15D4A21899142ABD1A27AB8
:10205000202AA8D1638B1F1C002B00D10127BFB2FF
:10206000C1E72034A642CCD001277F4290E7C123AC
:1020700004AA9446DB00634403936B0675D40F23D4
:102080002B40013B5A00D2189200D518039B6800E0
:102090009C46611C60440A2205F0FEF82100039B67
:1020A00005356D0058190C220E3105F0F5F82100A8
:1020B000039B0C35042258191C3105F0EDF892E70A
:1020C00046AD2100280012F0ABFCAB7AAA46202BCB
:1020D00054D16B7A202B53D12B7A202B52D1EB7910
:1020E000202B51D1AB79202B50D16B79202B4FD1A4
:1020F0002B79202B4ED1EB78202B4DD1AB78202B98
:102100004CD16B78202B4BD12B78203B5A1E93411E
:102110002B4A9B1804AA94462A4A634494460022F8
:1021200063441A70638B049A934200D059E706AC5B
:102130003100200012F074FC23785546002B0BD19F
:10214000802229003000920012F07CFBFF23002245
:10215000F254029B049349E780212B003000059A3A
:102160000094890006F008FDF0E78022FF21039823
:10217000920005F08BF801239A4680E70B23C7E70E
:102180000A23C5E70923C3E70823C1E70723BFE7FD
:102190000623BDE70523BBE70423B9E70323B7E71D
:1021A0000223B5E7E4F7FFFFE05001102E202020C6
:1021B0002E2E20201C08000020202020202000009F
:1021C0000808000000F9FFFFF0B54546DE46574617
:1021D0004E46E0B5B24C0D00A5440400002900D1E4
:1021E000013504928022FFAE1C360021300092009F
:1021F00005F04CF8002D49DB00230127A34603938B
:10220000012D00DC16E1280086A9FFF7D3FA00288B
:1022100000D02AE100239A46A24B86AC9846A24BF6
:102220009946E37A082B4FD02578002D28D02268D4
:1022300042453BD04A454DD0E52D1ED0DA4312072A
:1022400000D17EE0DA0657D55346002B00D1A2E03C
:1022500004AAC1239446DB0063441A008021802332
:1022600046AD9B002800490002F0F4FC638B049A01
:10227000934200D1C7E000239A462034A642D0D131
:10228000039B3D0004937B1CBAD15C46FF223100C6
:10229000200012F0D7FAFF230022E254834B9D4422
:1022A000F0BCBB46B246A946A046F0BD8049606876
:1022B0008842BFD17F4920898842BBD1A17A202999
:1022C000B8D1638B0393D8E72034A642DDD0012731
:1022D0007F42A6E7764A61689142ADD1754A21896D
:1022E0009142A9D1A27A202AA6D1638B1F1C002B70
:1022F00000D10127BFB2C0E79A0601D4002BBCD1A0
:102300005346002B00D1A1E004AAC1239446DB0070
:1023100063441A008021802346AD28009B004900B9
:1023200002F098FC638B049A9342A4D129003000F8
:1023300012F076FB039B3D0004937B1C00D05FE70B
:10234000A3E7C12304AA9446DB00634405936B060C
:1023500000D581E00F232B40013B5A00D218920098
:10236000D518059B68009C46611C60440A2204F055
:1023700093FF2100059B05356D0058190C220E3185
:1023800004F08AFF2100059B0C35042258191C31EA
:1023900004F082FF71E746AB9A46554618002100CB
:1023A00012F03EFBAB7A202B65D16B7A202B64D1E7
:1023B0002B7A202B63D1EB79202B62D1AB79202BA8
:1023C00061D16B79202B60D12B79202B5FD1EB78F9
:1023D000202B5ED1AB78202B5DD16B78202B5CD18C
:1023E0002B78203B5A1E9341334A9B1804AA9446EB
:1023F000324A63449446002263441A70638B049A01
:10240000934200D037E706AC3100200012F008FB01
:1024100080212B002A4A30000094890006F0ACFB92
:10242000FF230022F254039B3D0004937B1C00D049
:10243000E6E62AE786A8FFF7E7FB002800D1E2E6F8
:10244000012120485C4606F005FE1FE746AD21004D
:102450002800FFF7ADFA65E78022FF21059892007A
:1024600004F014FF01239A4674E7290015485C46DE
:1024700006F0F0FD0AE70B23B6E70A23B4E70923C9
:10248000B2E70823B0E70723AEE70623ACE705234E
:10249000AAE70423A8E70323A6E70223A4E7C0468C
:1024A000E4F7FFFF2E2020202E2E20201C08000005
:1024B00020202020202000000808000000F9FFFF55
:1024C000E050011088520110F0B557464E4645467F
:1024D000DE468846E0B52F4C8146A5446946404615
:1024E0001700EA46FFF766F900284FD143465D1E04
:1024F0006B1E9D4110239B4601356C01264E5444B2
:102500000B223100200012F069F9002811D0237845
:10251000E52B0ED0002B10D0618BE37AB94216D098
:102520005A461A4205D03A004846FFF7CDFF002828
:1025300004D101352034102DE2D1002081239B00ED
:102540009D44F0BCBB46B246A946A046F0BD4946F4
:10255000012240461B110A701A40862348604846F3
:102560006D0155440A72E9695B00C150002A06D02A
:1025700009303A004146FFF7E1FC0120DEE709306F
:102580003A004146FFF720FE0120D7E701204042F4
:10259000D4E7C046FCFDFFFF2C510110F0B5DE462C
:1025A000454657464E468023E0B5404C9B009B462F
:1025B000A5448846040083442378002B08D1D923FE
:1025C0009B009D44F0BCBB46B246A946A046F0BD68
:1025D000E37A628BDB0611D518AB414618009946A9
:1025E000FFF7ACFC4B461B78002B03D04946304824
:1025F0000FF052FD20345C45DED1E0E718AB180047
:1026000041469946FFF7E0FD80220021920058A83C
:10261000658B04F03BFE264F4A460123380003A990
:1026200010F09EF9021E3BD1224B00269A469D4295
:1026300028D8019412E0802338009B0058AA03A9EF
:1026400010F0DAFA002822DB200058A9FFF7D2FBAD
:1026500080239B009C46664455451FD82800FFF701
:102660005BF82C00002305003200380003A910F0AD
:1026700023FB0028DFDA104B020031001800019C18
:1026800006F0E8FC380003A910F07CF9AAE70B4B30
:1026900001001800019C06F0DDFCF3E7019CF1E766
:1026A0004946074806F0D6FC9CE7C0469CFCFFFF65
:1026B00044290020F70F0000E452011020530110BC
:1026C000B0520110F0B54746CE4680B52A4C804640
:1026D000A54468460E00FFF797FA002848D110235A
:1026E00001259946254F08AC0B223900200012F035
:1026F00075F8002811D02378E52B0ED0002B10D0D0
:10270000618BE37AB14214D04A461A4205D03200B6
:102710004046FFF7D9FE002804D101352034102DA2
:10272000E2D1002081239B009D44C0BCB946B04645
:10273000F0BD414601221B116D010A704A601A402A
:102740002B006B440A72D969862340465B00C15056
:10275000002A06D0093032000121FFF7EFFB0120EB
:10276000E0E7093032000121FFF72EFD0120D9E713
:1027700001204042D6E7C046FCFDFFFF2C5101106E
:10278000F0B5DE464E46454657468022E0B5C24C7F
:102790008846A544920006000021C2A804F076FDF8
:1027A000002342AA13704346012B59D080230024F2
:1027B0009B00F7183378002B2DD0E52B28D0052B64
:1027C00026D03268B5498A422DD0B5498A423BD0DD
:1027D0000F21F27A11400F2900D18AE1D30600D5EA
:1027E0008AE093062BD5002C00D046E102AC3100E4
:1027F0002000FFF7DDF8728B002A0CD04146200044
:10280000FFF7E2FC2000F269718BFFF7A7FA0024C2
:102810002036B742CED1A34B9D44F0BCBB46B24656
:10282000A946A046F0BDA04970688842CDD19F4915
:1028300030898842C9D1B17A2029C6D1E8E7002A77
:10284000E5D1002CD2D018E1974A71689142BFD1EE
:10285000964A31899142BBD1B27A202AB8D1D7E7C2
:1028600080239B0099468E4BB14434000025984646
:102870004E468A4F2378002BCDD0E52B2CD0052B4C
:102880002AD02268BA422BD0424500D1E6E00F217F
:10289000E27A11400F2900D1D0E1D30600D54FE1F3
:1028A000930600D4F3E0002D00D1F2E180238021D3
:1028B00002AD28009B00C2AA490002F0CBF9628B4E
:1028C000002AA8D028000121FFF77EFC2800E26939
:1028D000618BFFF743FA00252034A642CAD19AE75C
:1028E000714960688842CFD1704920898842CBD134
:1028F000A17A2029C8D1EFE7002C00D0F0E002AC8B
:102900003100200012F08CF8A37A202B00D00EE2C8
:10291000637A202B00D008E2237A202B00D008E233
:10292000E379202B00D008E2A379202B00D002E22B
:102930006379202B00D004E22379202B00D0FEE124
:10294000E378202B00D000E2A378202B00D0FAE11E
:102950006378202B00D0FAE12378203B5A1E934164
:102960000022D200EC469B180022634494460022C9
:1029700063441A724146728B42A8FFF7DFFAA02423
:1029800002AB9C464A4DE40064442200280042A960
:102990000FF0F6FE002803D0280042A910F02AFB11
:1029A0008022738B002120009200994604F06EFC77
:1029B0008021404D404B2A00490082A8019506F035
:1029C000DBF80B22200082A904F066FC102302AA87
:1029D0009446E3729B46394B394963441960A223FC
:1029E0003848DB0063441860374B384D63441D6042
:1029F0004B46802163830023354DE3619A46019A5B
:102A0000344B2583490082A806F0B6F882AB190042
:102A100002A8A4238446DB0063440B22180004F0C0
:102A20003BFC2B235A46E25402AB9C462A4A2449DB
:102A300062441160A6222348D20062441060274AF3
:102A4000224B624413604346638753462100258727
:102A5000E3634846FFF7CEF90024D9E6124A6168DD
:102A6000914200D013E7114A2189914200D00EE72C
:102A7000A27A202A00D00AE72EE78023802102AC28
:102A800020009B00C2AA490002F0E4F8B3E6002A45
:102A900000D108E700251FE7F4F8FFFF2E2E2020C5
:102AA0002E2020200C0700002020202020200000C5
:102AB0004429002050530110D85001100C0500008B
:102AC00000C66D52436543651405000000006D5259
:102AD00043650000DC5001102C05000034050000A7
:102AE000802380219B00C2AA490002A802F0B2F80C
:102AF00040E75A0600D504E10F221340013B5D0078
:102B0000ED18AD00ED186B00C2AAD018711C0A2296
:102B100004F0C2FB31000535C2AB6D0058190C2220
:102B20000E3104F0B9FB3100C2AB0C350422581948
:102B30001C31203604F0B0FBB74200D03AE66AE61A
:102B4000002D00D1ABE0802380219B00C2AA490068
:102B500002A802F07FF80121628B42A8FFF7EEF98C
:102B6000A02502AB9C46ED00834B65442A0018006B
:102B700042A999460FF004FE002803D0484642A916
:102B800010F038FA8022638B0021280092009A46C8
:102B900004F07CFB8021794A794B490082A8914658
:102BA00005F0EAFF0B22280082A904F075FB102330
:102BB00002AA9446EB729B46724B734A63441A60B6
:102BC000A2237249DB0063441960714B714863446E
:102BD0001860714B80212B8353466B8300234A4638
:102BE000EB6149006D4B82A805F0C6FF02ABA42043
:102BF0009C46C0000B2282A9604404F04DFB2B23AD
:102C00005A46EA5402AB9C4665495F4A61440A60F1
:102C1000A6225E49D20062441160624A5D48624465
:102C20001060A7225C4BD20062441360002329008D
:102C3000EB635046FFF7DEF800254DE65A066BD4ED
:102C40000F221340013B5A00D2189200914699443A
:102C50004B46C2AA5B00D018611C0A2204F01CFB80
:102C60004B4605335B0099462100C2A80C220E3169
:102C7000484404F011FB4B4621000C33C2AAD01883
:102C80001C310422203404F007FBA64200D0F1E5F9
:102C9000C1E502AD21002800FEF78AFE0FE602AD75
:102CA0002100280011F0BCFEAB7A202B51D16B7AA9
:102CB000202B52D12B7A202B4DD1EB79202B4ED1CA
:102CC000AB79202B26D16B79202B4CD12B79202B63
:102CD00047D1EB78202B4CD1AB78202B47D16B78A8
:102CE000202B42D12B78203B5A1E93410022D20048
:102CF000EC469B18002263449446002263441A72F7
:102D000029E78022F0319200C2A804F0BFFA012422
:102D10003378F1E60723E9E78022FF219200C2A879
:102D200004F0B4FA012523788AE70A2318E60B2376
:102D300016E6092314E6072312E6082310E6052306
:102D40000EE606230CE603230AE6042308E6022324
:102D500006E60B23CAE70923C8E70A23C6E70823C8
:102D6000C4E70523C2E70623C0E70223BEE7032327
:102D7000BCE70423BAE7C0464429002050530110A1
:102D8000D85001100C05000000C66D524365436524
:102D90001405000000006D5243650000DC50011076
:102DA0002C050000340500000823F0B54E464546CA
:102DB000DE4657469946E0B5CC4C0B7AA5440E004A
:102DC0000400150089442E2B2CD14B465B78002B38
:102DD00028D16B1E5A1E93415B421D4080214B46F9
:102DE000C34A490012A805F0C7FE0B22200012A911
:102DF00004F052FA1023E372BE4B6583E360BE4BCE
:102E00002361BE4B6361BE4B23830023E36120003B
:102E1000203093239B009D44F0BCBB46B246A9469C
:102E2000A046F0BD337A2E2B00D12FE1484611F099
:102E300003FE0B2815D802234A4607219C46B148B9
:102E400013361378002BC9D0C75C394200D028E173
:102E5000402B00D935E1222B00D93AE1212B00D1BA
:102E600023E112AB9B468021A14A49004B465846BC
:102E700005F082FE10230AAFFB729E4B7D830D93FB
:102E80009D4B0E939D4B0F939D4B3B830023FB610A
:102E900011F082FB9C4903F0A5F99C4A0B005846AF
:102EA0000C2105F069FE59460B22380004F0F4F9B4
:102EB0003A7848465308D20113437A789B18DAB21D
:102EC0005208DB011A43BB78D2B2D218D3B25B08E6
:102ED000D2011343FA78DBB29B18DAB25208DB0155
:102EE0001A433B79D2B2D218D3B25B08D201134352
:102EF0007A79DBB29B18DAB25208DB011A43BB794C
:102F0000D2B2D218D3B25B08D2011343FA79DBB242
:102F10009B18DAB25208DB011A433B7AD2B2D218BC
:102F2000D3B25B08D20113437A7ADBB29B18DAB2D0
:102F30005208DB011343BA7A9B18DBB2984611F0B2
:102F40007BFD802103004A465846890001F0DCFDE4
:102F5000FF280FD8012580210300002642005A4493
:102F60006D424900834200D1A4E001331580023252
:102F70008B42F7D10D21013803F05CF91A232600AA
:102F800043435B441D000400B2468146631CDBB230
:102F900029001A2203A8009304F07EF90A22701C6B
:102FA00003A904F079F902AB9C4630000E210C22F3
:102FB00061440E3004F070F902AB9C4630001A21D7
:102FC00004221C30614404F067F94022009B013C5C
:102FD000134333700F234246F3720023727333732B
:102FE000B376F3761A3D2036A145CFDD54464D46E3
:102FF00020346B1E9A46019300945A1C40D01A2626
:103000000F236E431A3E5E449B4600239946534667
:10301000AA461D0000E0013D31001A2203A804F079
:103020003BF90A22601C03A904F036F902A98C4678
:103030000E232000634419000C220E3004F02CF9FA
:1030400002A98C461A2320006344190004221C3074
:1030500004F022F9534623705B46E3724B46237318
:10306000434663734B46AA46A376E3761A3E203462
:10307000002DD0D1019B5C01009B9C466444203410
:1030800020223900200004F007F9C0E64B465B78A7
:103090002E2B00D0CAE64B469B78002B00D198E639
:1030A000C4E663463B4200D0DBE60132B24200D0C8
:1030B000C7E693E60133168002328B4200D051E717
:1030C00058E77B2BF1D00CD85E3B022B00D9C8E629
:1030D000EBE70F4F233BDBB2DF40FF0700D4C0E636
:1030E000E3E77D3B012B00D9BBE6DEE7B4FDFFFF44
:1030F0005053011000C66D524365436500006D5288
:1031000043650000D1640110FFFF00005853011017
:103110007F040020F0B5DE4645464E465746E0B5F2
:10312000664D06002B688B461A6ADB69642153439F
:103130005B0A5800C018430187B0C01803F07AF842
:103140008046B04209D200239946484607B0F0BCF9
:10315000BB46B246A946A046F0BD3000FEF7DCFAF9
:103160000028F0D0564F3B6801339E4205D0002323
:1031700000223A607B600023BB6000235A46136044
:10318000504A514B9246514AB146039242460292EE
:103190005246BA461F00029B0021A84600960192A3
:1031A000013B79D3029343461B68186ADA694243AC
:1031B000520A53009B185A019B18632B6CD90020AC
:1031C00000210024424D28E00B091201134341491C
:1031D0005A1E8A4202D8009A934251D043461B6835
:1031E00064211A6ADB69013453435B0A5800C01832
:1031F0004301C01803F01EF8844236D2200003F0C9
:1032000025FFFC21061C890503F013FF311C03F088
:10321000F9FE03F085FF03F081FB03F021FB00239F
:1032200082B2390028000FF047FD002818DB002388
:1032300005AE390033803200280002330FF0DCFC89
:10324000011E09DB31787278E307BDD41302F02246
:10325000120113400B43BAE7019805F0FBFEF1E7BA
:103260000100039805F0F6FEB8E7009B4E4699462C
:103270005B46574619684B463E607B60B96064E721
:103280005B4619680131196053461B68A34208D098
:10329000029B0094013B85D2009B4E4657469946BF
:1032A000E9E7574691465A46BB68CB1813604A4631
:1032B000BB607B683A60994647E7C0460429002016
:1032C000101900200C500110A4240020E84F011018
:1032D00044290020F60F0000F0B5DE464E46574662
:1032E0004546136891468022E0B5C54C9200A5443E
:1032F0000B9008910C006EA80021059303F0C6FF07
:103300006EAB0293002C00D192E20598FEF7C0FC50
:10331000BC4B0B9A18001FA99A460FF065FF2CAB07
:10332000061E9B4600D077E3C84681465A46504663
:103330001FA90FF0B5FF002800D1BDE1002800DA79
:103340006EE25B461B78022B00D1C7E1012BEDD169
:1033500043461B680EAA079301330D935B465C68D6
:10336000B0239446DB0063441E00002C00D084E2AE
:103370005B461B7A2EAD2E2B00D17CE280222900E9
:103380005200300011F05EFA9F4C3000210011F025
:10339000A1FA039011F050FB082800D813E2802214
:1033A00029005200300011F04DFA2100300011F0D8
:1033B00091FA21000700002011F08CFA80213B00D7
:1033C000924A0090490017A805F0D6FB2F21202330
:1033D0000EAA521813708E4B0EAA1A938D4B300002
:1033E0001B938D4B1C938D4B93875B465A68130040
:1033F000591E8B411E9280220D995B4219400EABE3
:10340000D9875200290011F01DFA2100300011F077
:1034100061FA2100002011F05DFA0023C3700378E7
:103420000400002B0CD0032702007D48C15C39400A
:10343000022900D1E5E1137053780132002BF5D158
:1034400011F0AAF8774902F0CDFE774A0B000094FC
:103450000C2110A805F090FB17AB10AA03CA03C3F8
:1034600011880EA8198092780EAC9A702423C01887
:1034700000784308C0010343200025240019007888
:1034800001341B18D8B24008DB0118430EAB1B19DE
:103490001B78C0B2C018C3B25B08C001034301343B
:1034A0000EA800190078DBB21B18D8B24008DB0167
:1034B000184301340EAB1B191B78C0B2C018C3B23D
:1034C0005B08C001034301340EA800190078DBB289
:1034D0001B18D8B24008DB01184301340EAB1B198E
:1034E0001B78C0B2C018C3B25B08C00103430134EB
:1034F0000EA800190078DBB21B18D8B24008DB0117
:103500001843C0B2CBB2C018C3B25B08C0010343BA
:10351000090ADBB25B18D9B24908DB010B439B18DF
:10352000DBB22800039311F087FA802103002A0000
:103530003000890001F0E8FAFF280FD8012480212B
:10354000030000254200B21864424900984200D1AD
:103550005FE10133148002328B42F7D10D21013833
:1035600002F068FE1A2304000F274343029DF3185C
:1035700006900493631CDBB21A22049910A80793E7
:1035800003F08AFE0A22681C10A903F085FE0EAB28
:103590009C46280012210C2261440E3003F07CFE70
:1035A0000EAB9C4628001E2104221C30614403F00F
:1035B00073FE4022079B013C13432B7000232B73A7
:1035C000AB76EB76049B039A1A3B0493069BEF724F
:1035D0006A732035A342CDDD5C1E029B2700203399
:1035E00002930493621C57D01A254A46069B0697FD
:1035F0005D431A3D029F751999460026029216E016
:1036000044F8FFFF44290020D8500110C85401108D
:1036100000C66D524365436500006D52436500006E
:10362000D1640110FFFF0000D4540110013C2900B7
:103630001A2210A803F030FE0A22781C10A903F009
:103640002BFE0EA98C4612233800634419000C226D
:103650000E3003F021FE0EA98C461E233800634471
:10366000190004221C3003F017FE4B463B700F2359
:10367000FB72039B3E737B73BE76FE76A1462037BA
:103680001A3D002CD2D1029B069F9946049B7F01D4
:103690009C466744203702972022029817A903F01E
:1036A000FBFD029B5A46203350461FA902930FF0A0
:1036B000F7FD002800D041E64E461FA950460FF006
:1036C000DFFD05986EA9FEF795FB3000C44B9D44C5
:1036D000F0BCBB46B246A946A046F0BD089B002BF5
:1036E00026D12EAD2800BF4911F056F9002800D18F
:1036F0001CE62B782E2B61D02B782E2B03D16B78E8
:103700002E2B00D1C0E143461868EEAC01301860A2
:10371000FEF7BEFA434659461A680298FFF744FB83
:103720008022029029002000920011F08BF833E0F3
:103730002EAD2B782E2B09D16B78002B06D1594654
:10374000059A0298FFF730FB0290EFE52B782E2BBD
:103750000CD16B782E2B09D1AB78002B06D15946B2
:10376000089A0298FFF720FB0290DFE543461868AD
:10377000EEAC01301860FEF78BFA434659461A68E2
:103780000298FFF711FB80210290974A20000B9BC3
:103790000095890005F0F0F90022FF232000E25493
:1037A00005994246FFF798FD002800DBBEE50400BE
:1037B0001FA950460FF064FD260086E76B78002BAA
:1037C00000D1B3E598E72100002011F083F807004D
:1037D00011F032F9032800D9E1E5039B1B78002B97
:1037E00000D1D4E18148C25C510700D0ADE1402B4B
:1037F00000D9EAE2222B00D9D4E2212B00D0CEE579
:10380000A6E1203B137053780132002B00D00DE667
:1038100016E6431C158002328B4200D096E69DE6E8
:10382000734B02000B9918004E4605F013FC44E759
:103830000EA9B0248C46E40064446E4B0C216E4A01
:10384000200005F099F90B2221006EA803F024FD59
:103850008C2108230EAAFF3152181370674B089A67
:103860007393674B7192749376AB029301237292B8
:103870007592059349E5634C91E50D9A504694463F
:10388000530063449B0A5A0204935F4B17001900CC
:103890000393002306920FF00FFA011E00DA69E18C
:1038A0000EABB0269C468023F6006644320050469C
:1038B00003999B000FF0A0F9002800DAEBE000D19B
:1038C000EEE0200002F08CFF0022504B02F01DFFC2
:1038D00003F07EF802F0C4FF051E00D11DE10D9C2F
:1038E000431EA4468444099363460A934346069FB5
:1038F0000F900E9359E0651CEAB201212140069118
:10390000591C0C910121B846214200D1CCE0F15C58
:1039100012018C460F21604601400A43F254591CA3
:103920002A097254FF225200934237DB00233A00E7
:10393000504603990FF0C0F9002800DACBE080234D
:103940003200504603999B000FF06AF9002800DA14
:10395000D6E000D11AE380239B009846B8440023A8
:103960004246504603990FF0A7F9002800DAC0E05C
:1039700080233200504603999B000FF03DF9002848
:1039800000DA86E000D101E3069B002B00D1A9E01C
:103990002B09DBB2049A3370013204920A9B013482
:1039A0009C4200D1B4E0049B5F026000001902F069
:1039B00017FF0022164B02F0A8FE02F0AFFF02F044
:1039C0002BFFC217D20D8318DB05DB0D9B1A079A5C
:1039D0000999A21A013A91428DD8FF220D4D8CE728
:1039E000BC070000E0530110E0500110D164011049
:1039F000A8530110645301105053011000006D4F83
:103A000043650000D8500110A42400200000603F4E
:103A10000000E03FFF0F00000EABB0279C46FF0008
:103A20006744009040213800CA4A0B9B05F0A4F877
:103A30003C78002C00D148E60021C74B3800002517
:103A40005D5F20220D27C54B002911D1A54216D05C
:103A500099690A42FCD11C60017801300D394C4251
:103A600061410478C9B2002C00D12EE60029EDD0C6
:103A700099690A42EFD099690A42F9D1EBE799694D
:103A80000A42FCD11F60E3E7AB78002B00D14DE484
:103A900039E60E9B9846B24B0100180005F0DAFAA1
:103AA00000234246136063E4F2540F22591C715CF8
:103AB000280A914302400A43591C7254A94A93426E
:103AC00000D06BE700233A00504603990FF0F4F85A
:103AD000002800DB33E70E9B0100A348984605F061
:103AE000B9FADDE70F2233782D0A93432A401343B6
:103AF00050E70E9B01009D48984605F0ABFACFE7D2
:103B00000E9B010098469A4B180005F0A3FAC7E7F0
:103B100043461F000E9B0F9D9846039900233A00D1
:103B200050460FF0C9F8011E00DA5DE18023320033
:103B3000504603999B000FF073F8002800DA93E1D8
:103B4000AED0079B02335B19ABE7920700D526E4A2
:103B5000039B5B78002B1AD0C25C510778D1402BB5
:103B600000D928E1222B00D947E1212B01D0FFF712
:103B700016FC71E07D4805F06DFAB0260EAB9C4650
:103B8000F60066448CE7920701D5FFF708FC3B7806
:103B9000002B30D07748C25C910701D5FFF7FFFBBF
:103BA000520700D1F4E07B78002B24D0C25C91074F
:103BB00001D5FFF7F4FB520709D1402B00D97DE175
:103BC000222B00D984E1212B01D0FFF7E8FBBB7841
:103BD000002B10D0C25C910701D5FFF7E0FB520724
:103BE00009D1402B00D997E1222B00D9AAE1212B42
:103BF00001D0FFF7D4FB802229005200300010F0E2
:103C000021FE2100300010F065FE2100050000209B
:103C100010F060FE8021029C49002B00564A009063
:103C2000200004F0A9FF2023E372544BE360544BBF
:103C30002361544B6361544B23835B465A681300E2
:103C4000591E8B410D995B4219406183E26128E561
:103C5000920701D5FFF7A3FB039B9B78002B96D01F
:103C6000C25C510767D0920701D5FFF798FB039B11
:103C7000DB78002B8BD0C25C510700D0AFE0402B2B
:103C800000D9E7E0222B00D8F9E0404A233BDBB221
:103C9000DA401300DB0701D4FFF781FB039B1B799C
:103CA000002B00D173E7C25C510700D0A0E0402B8D
:103CB00000D9F9E0222B00D914E1212B01D0FFF724
:103CC0006EFB039B5B79002B00D160E7C25C510760
:103CD00000D0A5E0402B00D914E1222B00D93BE114
:103CE000212B01D0FFF75BFB039B9B79002B00D1BD
:103CF0004DE7C25C510700D0BCE0402B00D935E154
:103D0000222B00D955E1212B01D0FFF748FB039B63
:103D1000DB79002B00D13AE7C25C510700D032E7D3
:103D2000402B00D93BE1222B00D94CE1212B01D0C3
:103D3000FFF735FB2BE7402B68D8222B75D9134AA8
:103D4000233BDBB2DA401300DB0701D4FFF727FB8C
:103D50008DE7C04670530110F02900200040034059
:103D600020540110FF01000058540110E8530110C5
:103D700090540110D1640110C854011000C66D5256
:103D80004365436500006D52436500007F040020D9
:103D9000402B55D8222B00D97CE0212B01D0FFF7F6
:103DA000FEFA00E7994A233BDBB2DA40D20701D49E
:103DB000FFF7F5FACCE67B2B00D14DE764D85E3BEC
:103DC000022B01D9FFF7EBFA46E77B2B00D1BFE6C8
:103DD00030D85E3B022B01D9FFF7E1FAB8E6920733
:103DE00000D45BE7FFF7DBFA894805F033F957E6C3
:103DF000920700D465E7FFF7D2FA844A233BDBB28F
:103E0000DA40D20701D4FFF7CAFA25E77B2B00D1AD
:103E10002DE771D85E3B022B01D9FFF7C0FA26E7E8
:103E2000920700D460E7FFF7BAFA212B01D0FFF721
:103E3000B6FA1CE77D3B012B01D9FFF7B0FA87E604
:103E40007B2B00D1AFE677D85E3B022B01D9FFF781
:103E5000A6FAA8E67B2B00D120E767D85E3B022BB1
:103E600001D9FFF79CFA19E76A4B0100180005F029
:103E7000F1F815E6920700D449E7FFF790FA212BF5
:103E800001D0FFF78CFA09E77D3B012B01D9FFF741
:103E900086FAE1E65D4A233BDBB2DA401300DB073A
:103EA00001D4FFF77CFA7EE67B2B00D109E767D8C7
:103EB0005E3B022B01D9FFF772FA02E77B2B00D1A0
:103EC00085E666D85E3B022B01D9FFF768FA7EE6ED
:103ED0004E4A233BDBB2DA401300DB0701D4FFF785
:103EE0005EFA74E6494A233BDBB2DA401300DB0793
:103EF00001D4FFF754FAE4E67D3B012B01D9FFF72B
:103F00004EFAB4E67B2B00D1EEE66CD85E3B022B7A
:103F100001D9FFF744FAE7E67B2B00D16BE65CD8CA
:103F20005E3B022B01D9FFF73AFA64E67D3B012B99
:103F300001D9FFF734FAB1E67D3B012B01D9FFF738
:103F40002EFA30E6314A233BDBB2DA401300DB07BE
:103F500001D4FFF724FA4EE62C4A233BDBB2DA40C9
:103F60001300DB0701D4FFF71AFABDE67B2B00D163
:103F7000CDE63ED85E3B022B01D9FFF710FAC6E62C
:103F80007D3B012B01D9FFF70AFA9AE60E9B984672
:103F900086E57D3B012B01D9FFF701FA17E67B2B64
:103FA00000D1F4E52BD85E3B022B01D9FFF7F7F9DE
:103FB000EDE5164A233BDBB2DA401300DB0701D400
:103FC000FFF7EDF9A3E6114A233BDBB2DA40130019
:103FD000DB0701D4FFF7E3F9D9E57D3B012B01D9DC
:103FE000FFF7DDF907E67D3B012B01D9FFF7D7F994
:103FF0007AE67D3B012B01D9FFF7D1F987E67D3BBE
:10400000012B01D9FFF7CBF9C1E5C0467F040020A1
:104010005854011090540110014B18607047C0466D
:1040200004290020014B18707047C046152A002053
:10403000F0B5204C204E214DA5443200280003A9A4
:104040000FF0D2F8002826D11D4F54AC280052AAF8
:1040500003A90FF025F9002819D0002823DB2388B5
:104060002E2BF3D0174A934219D084213A004900ED
:104070003300009410A804F07FFD10A8FDF7F4FBB6
:10408000280052AA03A90FF00BF90028E5D1280057
:1040900003A90FF0F5F895239B009D44F0BDA3788C
:1040A000002BD3D0E1E7084B02003100180004F0E8
:1040B000D1FFECE7ACFDFFFFE053011044290020E5
:1040C000E05001102E2E0000E4540110F0B54F46D0
:1040D0004646D6466D25C0B5002120220D27C14B8E
:1040E000C148994600269E5FC04BC4B0002900D04D
:1040F000ADE0AE4200D1B2E099690A42FCD11D6048
:10410000017801300D394D4269410578C9B2002D61
:10411000ECD10D24B64D6D2728000DF09DFF4B46C8
:1041200000212022A44600269E5FB248AF4B002902
:1041300000D099E0BE4200D19EE099690A42FCD1CC
:104140001F60017801300D394F4279410778C9B2BB
:10415000002FECD1A84B280019689A460DF0E6FD17
:10416000031E00DA9CE00D264B464D27002120223D
:10417000B44600241C5FA1489C4B002900D081E07C
:10418000BC4200D186E099690A42FCD11F600178E7
:1041900001300D394F4279410778C9B2002FECD177
:1041A000FFF746FF964C2800210002AA0EF0E8FA1D
:1041B000023000D109E10423924F934A3900FF33C2
:1041C00028000EF0CDFB6A46904B2800198811801C
:1041D0009B783900937003230EF022FD0100032821
:1041E00000D021E10322002101A803F04FF853463B
:1041F0001B68C8211A6ADB6953435B0A5C00E41838
:104200006301E418200002F015F80600C72C11D94C
:10421000002402E00134B4420CD203233900280008
:1042200001AA0EF0FDFC0328F4D0794B0100180020
:1042300004F010FF01230021764802AA0293FFF741
:104240004BF844B0E0BCBA46B146A846F0BD996907
:104250000A4200D153E799690A42F8D14FE79969B8
:104260000A42FCD11F6047E799690A4200D167E71B
:1042700099690A42F8D163E799690A42FCD161461B
:1042800019605AE799690A4200D17FE799690A42A1
:10429000F8D17BE799690A42FCD16146196072E75F
:1042A00040215D4A02A804F067FC6B461F7A002F8C
:1042B0001AD04B460D2400229B5E00212022A446EA
:1042C00098464A4B02A8002965D1B8456AD0996939
:1042D0000A42FCD11F60017801300D394F4279410B
:1042E0000778C9B2002FEED15346280019680DF0A7
:1042F0007DFC0D244B46462700229B5E0021202298
:10430000A0469C464548394B002951D1BC4556D062
:1043100099690A42FCD11F60017801300D394F4282
:1043200079410778C9B2002FEED1534628001968A9
:104330000DF0FCFC002800DB15E703004021384AA3
:1043400002A804F019FC6B461D7A002D00D178E715
:104350004B46002000241C5F20210D26234A02AB7F
:10436000002811D1AC4263D090690142FCD11560A4
:10437000187801330D38454268411D78C0B2002DD0
:1043800000D15EE70028EDD090690142EFD090693E
:104390000142F9D1EBE799690A429BD099690A4237
:1043A000F9D197E799690A42FCD1614619608EE715
:1043B00099690A42AFD099690A42F9D1ABE7996984
:1043C0000A42FCD141461960A2E7210028000EF004
:1043D00011FE002800D1EEE6124B0100180004F097
:1043E00039FE27E7F02900201C550110004003404A
:1043F000442900204455011004290020DC550110F7
:10440000E0530110A4240020285601105C5601102E
:104410003456011058560110685501108C55011082
:10442000AC550110F4550110044804F013FE01E7E7
:1044300090690142FCD1166096E7C04634560110DF
:10444000054A1368002B04D01A6AD8695043400A01
:104450007047024B1360F7E7042900204060011009
:10446000F0B54646D6464F46C0B59246BF4A984636
:104470000E001368E8B0002900D1D9E01A6ADB69A0
:10448000642153435B0A5800C0184301C01801F06F
:10449000D1FEB74B45009C462D1801356D0865448B
:1044A0006D0A6D00AE4278D96B1C9E4203D3AB1CE3
:1044B0009E4200D21AE103AC330030212000AD4A05
:1044C00004F05AFB2778002F1AD00D21AA4B202088
:1044D00000229A5E8C46002391462200A74C002BB6
:1044E0004ED1B94553D0A3691842FCD12760137847
:1044F00001320D3B5F427B411778DBB2002FEED1DA
:104500008822002300215200761B24A8029302F087
:10451000BDFE02A93000FEF7FDFD011E75D024A8E6
:10452000FEF7D0F8012870D16B4698229B181B78B3
:10453000002B00D014E19922914C6A440123200001
:104540000FA90EF00DFA021E00D002E1029E20001B
:10455000730299460FA900234A460EF0ADFB051ED3
:1045600000DA29E14346524620000FA90EF044FB31
:10457000002800DA18E120000FA90EF003FA44E049
:10458000A3691842B2D0A3691842F9D1AEE7A36972
:104590001842FCD163462360A5E724AC33002021F8
:1045A0002000784A04F0E8FA2778002F19D00D256A
:1045B000714B22000021595E20240023AC466F4835
:1045C000002B28D1B9422DD085692C42FCD107603F
:1045D000137801320D3B5D426B411778DBB2002F3F
:1045E000EED1694D664C013E290000232000720285
:1045F0000EF062FB011E00DA70E0290043465246CD
:1046000020000EF0F9FA011E6CDB68B0E0BCBA467F
:10461000B146A846F0BD83691C42D8D083691C42CC
:10462000F9D1D4E783691C42FCD163460360CBE730
:10463000002B50D01A6ADB69544C53435D0A680062
:104640005B0C4019237543016421C018E57401F027
:10465000F1FD474A430094461B1801335B0863444D
:10466000590A24AE5B0CA175E375494A019000918B
:104670002B005021300004F07FFA3778002F18D03B
:104680003000002120220D263B4B00255D5F3B4B77
:10469000002914D1BD4219D099690A42FCD11F608A
:1046A000017801300D394F4279410778C9B2002FA6
:1046B000EED142462100504602F0EEFDA5E7996991
:1046C0000A42ECD099690A42F9D1E8E799690A42AD
:1046D000FCD11E60E0E72F4B1360ABE72E4804F0DF
:1046E000B9FC92E72D4804F0B5FC8EE724AF330007
:1046F000302138002A4A04F03FFA3C78002C18D0C8
:104700003800002120220D261B4B00255D5F1B4B2E
:10471000002912D1A54217D099690A42FCD11C6028
:10472000017801300D394C4261410478C9B2002C46
:10473000EED15046FDF768FA67E799690A42EED074
:1047400099690A42F9D1EAE799690A42FCD11E60E7
:10475000E2E799236B441900124804F07BFC54E70C
:1047600051463000FDF726F84FE7C04604290020E7
:10477000FF01000038570110F029002000400340DD
:1047800044290020A0560110A4240020E810002095
:104790006056011040600110BC560110E456011033
:1047A000105701105457011099212B003200694411
:1047B000054804F04FFCDEE699212B004A46694487
:1047C000024804F047FCCDE6CC5701108C5701108D
:1047D000F0B54F464646D646C0B5BE4C0D00160055
:1047E0001F00A54400292CD0BB4B64211B681A6A0A
:1047F000DB6953435B0A5800C0184301C01801F03D
:1048000019FDB64B44009C462418013464086444E6
:10481000640A63009D421CD8B14C6A1EB14D00234E
:10482000290020007A430EF047FA011E00DACCE09E
:1048300029003B00320020000EF0F2F90100B842DE
:1048400063D1E323DB009D44E0BCBA46B146A846F1
:10485000F0BD2C1B012C79D0002301A9200001936D
:10486000FEF758FC011E54D002AD2800FDF72AFFC8
:10487000431CE6D0002800D1E9E02B7A002B00D0C1
:10488000A7E0019B310020009946FDF7B3FA2B7891
:10489000002BD6D04B46002B00D0E2E011336B4406
:1048A0009A46A323DB006B4498468D4C5246414602
:1048B00020008D4B0EF054F8002800D0F7E03B00AC
:1048C0003200414620000EF0ABF9802302009B002D
:1048D000984200D0DDE086235B00EA584B46013366
:1048E0005B02934206D3414620000EF05FFA002897
:1048F00000D0E3E0414620000EF044F8021EA0D0B4
:1049000051467A4804F0A6FB9BE7794804F0A2FBE5
:1049100097E73100200002ADFDF76CFA2100280076
:10492000FDF7D0FE012800D08BE72B78002B00D1BB
:1049300087E72B7A002B00D083E70D33FF3310304D
:104940002100EA586844FDF709FA7AE7802200213D
:10495000920046A802F09AFC8022C6AD0021920087
:10496000280002F093FCA3238022DB006B4400218B
:1049700092001800984602F089FC46A8FDF744F919
:1049800046A8FCF7D9FF3000FCF7D6FF80223100A3
:10499000920046A80FF01AFE002805D043462A00D0
:1049A000310046A8FDF762F840460121FDF7F6FD0B
:1049B00031000120FDF71EFA31000020FDF71AFA40
:1049C00001212800FDF7DCFE3BE74A4804F042FBEA
:1049D00037E780220021920046A802F057FC80228F
:1049E000C6AD00219200280002F050FCA3238022D3
:1049F000DB006B44002118009200984602F046FC50
:104A0000200046A9FCF7D6FE002825D146A8FCF7D1
:104A100093FF3000FCF790FF80223100920046A8FF
:104A20000FF0D4FD002805D043462A00310046A8E7
:104A3000FDF71CF821004046FDF7B0FD31002000D5
:104A4000FDF7D8F921002800FDF79AFEF9E63100BC
:104A50002000FDF7CFF9F4E62100274804F0FAFA28
:104A6000EFE611236B449A46A323DB006B44984680
:104A70001B4C52460223414620000DF071FF021EDE
:104A800010D14B4641465A02200000230EF014F983
:104A900015E75146194804F0DDFA414620000DF0B3
:104AA00071FFCEE65146164804F0D4FAC9E6144B1D
:104AB00002005146180004F0CDFAC2E6114B020084
:104AC0005146180004F0C6FA414620000DF05AFF86
:104AD000B7E6C046E8F8FFFF04290020FF01000008
:104AE00044290020A42400200205000034590110AC
:104AF000385801100C58011064580110C8580110A2
:104B000094580110FC580110F0B5DE4657464E4649
:104B10004546E0B584468B46002600203F2783B0FB
:104B2000002B0ED0834513D99557945D002D16DBCD
:104B3000451C61464000013644522800B342F1D87A
:104B400003009B4503D9002160465A00115218000A
:104B500003B0F0BCBB46B246A946A046F0BD1F2537
:104B60002100A943C02962D00F252100A943E029D3
:104B700061D007252100A943F02955D1ED39894697
:104B80002540711C884699424ED2545C2100B9439D
:104B9000802949D14946AD013C402C4301294ED0E2
:104BA000B11C88468B423FD9555C2900B943802906
:104BB0003AD14946A4013D402C43032941D1033653
:104BC000B34231D9955D2900B94380292CD1A40184
:104BD0003D402C438021451C49028C42A9D31A49EF
:104BE0008846210041440191AB451DD941008A46C8
:104BF000019954460903890D8946144901368846AE
:104C00004946454629438846614645460D53554623
:104C1000019965448C050E49A40D0C436C80043049
:104C2000B34200D97EE78BE70120404290E7BF39CD
:104C300089462540A5E7DE3989462540A1E7464655
:104C400076E74646C6E7C0460000FFFF00D8FFFFF4
:104C500000DCFFFFF0B54E46DE4657464546E0B560
:104C6000060083B0002B54D080242401A2463F24A8
:104C7000A046BF3C00250020A446019308E0471C45
:104C80008F4222D834543800019B0135AB421CD0EE
:104C90006C00145B204B9C4217D07F2CEFD95445FD
:104CA0001ED2871CB9468F420FD84023A7095B420A
:104CB0001F4343461C4063461C43019B3754013548
:104CC000301844704846AB42E2D1814201D90023FA
:104CD000335403B0F0BCBB46B246A946A046F0BD73
:104CE000C71CB9468F42F0D8230B1F0020235B421C
:104CF0001F43A30937541F0043461F4063461F4309
:104D000043461C40634630181C4347708470484635
:104D1000BAE70020D9E7C046FFFF0000094A830038
:104D20009A1810B514684022544080322240064C34
:104D3000C000A44663441A60044B9C466044416032
:104D400010BDC04604C0014004D0014000400140F5
:104D5000074B8000C3181B68C90092000A435A40E1
:104D60000C231340034A9446604403607047C046D6
:104D700004C0014004D001408000002905D0064B4A
:104D80009C464023604403607047044B9C4640238C
:104D900060440360F8E7C04604E0014004F00140CD
:104DA0000123D0228340120693629361094A830053
:104DB0009A1811684022514080320A400649C000CA
:104DC0008C4663441A60054B9C460523604443604F
:104DD0007047C04604C0014004D00140004001407B
:104DE0008023DB051868000F7047C0460FB400B57C
:104DF000084883B004F0AAF8049B002B07D005A94B
:104E00001800019103F0DEFE034804F09FF8012032
:104E100003F0F0FE685901103457011070B5EFF33C
:104E2000108C72B60D4D2B68002BFCD0BFF35F8F3A
:104E30000724CB08C618C05C01230C40A3401C000B
:104E40000440034207D118433070BFF35F8F2C60DA
:104E50008CF3108870BD1000FFF7C8FF2C0100D044
:104E6000F8B54746CE46884680B5EFF3108C72B64B
:104E70001C4D2C68002CFCD0BFF35F8F9A4222D8C7
:104E800007210126894602E00132934218D34D469C
:104E900037001540AF40D4080119045D2742F3D113
:104EA00010003C430C70BFF35F8F00220D4B1A6063
:104EB0008CF3108800280EDBC0BCB946B046F8BDA4
:104EC00001204042EFE7BFF35F8F00232B608CF39C
:104ED0001088012040424346002BEDD00898FFF790
:104EE00085FFC0462C0100D0044A1078431CDBB279
:104EF000172B00D9102313707047C046E81200200A
:104F000010B5064B064C82B00100009318221F23F7
:104F10002000FFF7A5FF02B010BDC0467859011070
:104F2000682400200021044B044ABFF35F8F02C3B2
:104F30009342FAD17047C046000100D0800100D0F2
:104F4000054B064A1360064A136053609360D360B2
:104F500013615361936170478080808000E400E0BA
:104F600004E400E01F2318401E3B8340002905D0C5
:104F7000C021044A49005350136070478022014900
:104F80008B50FAE700E100E070B50D00EFF31086FA
:104F900072B60F4A1368002BFCD0BFF35F8F0D4B26
:104FA00010309B6884001B590B4A934203D09D42EA
:104FB00001D000F0DBFF074B9B681D51BFF35F8FF3
:104FC000BFF35F8F0022024B1A6086F3108870BD1A
:104FD000240100D000ED00E0C1010010F0B55746FB
:104FE0004E46DE464546E0B585B006000091170006
:104FF000EFF3108B72B66A4A1368002BFCD0BFF334
:105000005F8F0025674B5D579A46002D00DAA9E0B7
:105010006B00654C01935B199B009846A146C14407
:105020004B4652469B7910361370604BB6009B6816
:1050300099590B1B2F2B33D95D4B994200D0ACE013
:10504000019B42469C465B4B6544AD0063535A4B03
:105050000232A218043B9B1A1B05584A5B0D6519C6
:1050600013436B80564B0121AB80FF23AB71009B38
:10507000EF71AB604B460B4319004C4B9B68995149
:10508000BFF35F8FBFF35F8F0022454B1A608BF336
:10509000108805B0F0BCBB46B246A946A046F0BD9C
:1050A00001200A008243D3798C46BB4231D8454661
:1050B000130044491B1B5B415943090D3D4B63538E
:1050C0003D4B02356519043B5B1B1B053B4D5B0DDE
:1050D0002B43AA464D466B800425AC465546E0441A
:1050E000131F44441B1B1B055B0D1D434B4699714D
:1050F00000999D8099604946DF71334B01431360ED
:10510000BBE75800C01880002018C179B9422FD9D8
:1051100002000623D356002BF3DA02932B4B614691
:105120000393131D9A4604235B429C46E144504678
:105130004B461B1A1B055B0D9C46204B95719846F0
:105140006346404603439380019B5A199200039B98
:10515000A418A380029B1C4AA371009B2260E771E4
:10516000A3608AE700F002FF002553465D574FE732
:10517000908802934005131D9A46031561469C468C
:105180004046D444634604302018181AE023000532
:10519000400D1B0218430390C5E700F0E7FE4FE700
:1051A000240100D0122A0020EC12002000ED00E0C3
:1051B000C101001000A1FFFF1C13002000E0FFFF51
:1051C00001BDFFFFAAAA00000148804701BD000001
:1051D00070B501240443EFF30581EFF3108C72B630
:1051E000214A1368002BFCD0BFF35F8F1F4B0500D3
:1051F0001F4AED1A6D416A43120D1E4D8900AE68BB
:1052000052B27658A6421CD00621595691421CD063
:1052100012215956914222D01E215956914220D036
:105220002A2159560324914210D0134B19781A7031
:105230008171BFF35F8F00220B4B1A608CF31088D3
:1052400070BDAB680D4C5C50EFE70024610009199C
:1052500089005B18FF21997109499980E5E70124CC
:10526000F4E70224F2E7C046240100D0EC1200204B
:10527000AAAA000000ED00E0122A0020C1010010DF
:1052800001BDFFFF024B9C466144890001607047ED
:105290004000003470B5114C114DAC420FD2FF26C6
:1052A0002368002B0CD0FFF71FFE01002000FFF742
:1052B000E9FFA680BFF35F8F0834AC42F0D370BD26
:1052C000FFF712FE01002000FFF7DCFF2671BFF39D
:1052D0005F8F0834AC42E3D3F1E7C04608190020E1
:1052E0001019002010B50400FFF7FEFD010020009A
:1052F000FFF7C8FFFF232371BFF35F8F10BDC046C8
:1053000010B504000120FFF7FBFD034BC3189B0001
:105310002360BFF35F8F10BD400000340A4B196853
:10532000EFF3108072B60A68002AFCD0BFF35F8FDB
:105330001B68BFF35F8F00221A6080F3108840BFA4
:10534000002000217047C046D0290020F0B5DE467D
:1053500057464E464546E0B587B0EFF30583032236
:1053600001251A40954091008846A946B34B039207
:105370005C58B34B1D60B34B04934B46B248436338
:105380000823E55E002D37DAA3881BB2002B00DB73
:10539000ADE0A379002B00D0EEE00823E05E00280A
:1053A00020DB430062691B18DB00D3189E68DD68B0
:1053B000731C00D111E1A44801004144826A0B69C9
:1053C000B71A9B1A9F4215D30123026A03988340A0
:1053D0001A420FD09C4800F04DFB8D4202DCCCD12C
:1053E0008642CAD940BF07B0F0BCBB46B246A94608
:1053F000A046F0BD0E61EDE762696B0092465B1955
:10540000DB009A4453469E68DF6800F033FB8F420E
:10541000BADC00D103E1002F00DAE8E0524653463F
:1054200052691B699346049A934200D1D9E05246CF
:105430000821605E52880004594610439847009046
:1054400001910099019A0B001000134300D1CEE0A6
:1054500013000A00B61A9F41002806DB7A4800F0C4
:1054600009FB009E019F36184F4153469E60DF6046
:1054700000229A5E002A00DA86E7530099186069D4
:10548000C900411802938B68C9689B46B94200DD88
:105490007AE702D1B34200D976E708239C46A444B8
:1054A000059565462281A446029B2C0006E0530028
:1054B0009918C90041188D68C968AB469B18DB0074
:1054C000C318B94206DC00D1B3E01C000023E25E41
:1054D000002AECDA230064469C4653461A80634651
:1054E000059D1D80A3881BB2002B00DA51E72269BD
:1054F000EFF3108172B61368002BFCD0BFF35F8FFF
:105500000123A7885B42A3803FB22369BFF35F8F6B
:1055100000221A6081F31088002F00DA39E7230097
:10552000083322009A4666697B00DB19DB00F3181A
:10553000996850468C460824115FDD68002910DB0D
:10554000029306E0AB4244D00023E15E2000002934
:1055500006DB4C006418E4003419E368AB42F1DD6B
:10556000029B078000201F5E1980002FDCDA1400E8
:10557000A379002B00D110E70023A3712600082394
:10558000E15E08364B1C00D12CE70800A246656995
:1055900002E03E004B1C1AD04B005B18DB00EF18FA
:1055A0000A008C46E95E7B881BB2002BF1DA0123EE
:1055B0005B42DC17BB60FC60824205D05346318001
:1055C0001B893B8053461A8160464B1CE4D15446EC
:1055D000E5E6A3686345B7D9C2E76B1C00D0EAE6ED
:1055E000F8E65B4658461B69984700281BD153468E
:1055F0001B8822692381EFF3108372B6116800299A
:10560000FCD0BFF35F8F514662880A8022696580B3
:10561000BFF35F8F0021116083F31088B4E68642E8
:1056200000D8F8E6B0E65B461A685B680092019322
:1056300007E7B34500D848E74CE7C04624290020D7
:105640003C7005404D5300100040054070B52E4C95
:105650002569002D04D00A212C48FFF713FE70BDE8
:105660002B4E0321300000F0FBF9E660FFF73CFC15
:10567000284B03229C46D02322701B061B68012165
:105680006370254B6044A3600F23800020610220DB
:10569000638063694942A1801980023119864731CC
:1056A0001D83585218315A5275325C39995218324A
:1056B00001319952183201319952183201319952FF
:1056C000083518329D520231183299521832013180
:1056D00099521832013199521832013199521832C7
:1056E000013199521832013199520C4B0C49DC604E
:1056F00001303562FFF748FC01210320FFF732FC3F
:10570000084B1D60A7E7C04634130020D0290020B5
:105710000040054040000034FFFF10002429002015
:105720004D53001038600540004870473413002086
:1057300070B501000469EFF3108C72B62068002880
:10574000FCD0BFF35F8F02200D5E4C6968004019EA
:10575000C00024180869002D36DB26884E80BFF370
:105760005F8F002606608CF31088E36063880498DE
:10577000013320615B0405985B0CA26060611A1C18
:10578000002B1FD093B22804628018430A69EFF3FC
:10579000108C72B61368002BFCD0BFF35F8F8B8820
:1057A00023808D800B69BFF35F8F00221A608CF31A
:1057B00010880B7801329A40CB6808498C466344C4
:1057C0001A6070BD0122DDE7BFF35F8F0023036025
:1057D0008CF3108801204042F3E7C0463C200000D3
:1057E00010B543890A1493421ADD53009B1842698D
:1057F000DB00D3180469EFF3108C72B62268002A1C
:10580000FCD0BFF35F8F5A88090494B2090C8A4216
:1058100008D00369BFF35F8F00221A608CF31088F1
:10582000002010BD8022120214435C800123026913
:105830008371BFF35F8F002111608CF310880449DE
:1058400002788C469340C268012062441360E8E706
:105850003C20000040787047F0B5C64600B582B0E5
:10586000040000F00FF9FA2206000F0020000023C8
:105870000021920001F0A6FB8019794104000D1E61
:1058800002DA01242E4D644206267642F7173619B5
:105890006F41AF4214D811D000F0F4F832003B0051
:1058A000121A8B41002B15DC002B46D0200029005A
:1058B00000F026F902B080BCB846F0BDA642EBD994
:1058C0000026002700F0DEF832003B00121A8B4160
:1058D000002BE9DD00F0D6F832003B00121A8B41B4
:1058E000002B0ADB00230193164B3200009316486D
:1058F0003B00FFF71DFF0130D8D000233900B04630
:105900009C46124A1248536A994204D8966A464500
:10591000CCD29942CAD10668EFF3108772B63368C9
:10592000002BFCD0BFF35F8F0368BFF35F8F664629
:105930001E6087F3108820BFE5E7002AB6D0C9E7CC
:10594000FFFFFF7F1D53001034130020004005406F
:10595000D0290020F0B557464E46DE464546E0B514
:1059600006000F0085B0EFF3058399468B46002BA8
:1059700012D0384900204B6ABB4206D38A6ADB1B2F
:10598000591E8B41B2424041184305B0F0BCBB46A2
:10599000B246A946A046F0BD2F4B9A46DB68984612
:1059A00053461B784046039300F064F84246039B3D
:1059B000040004339B009B580D001B1A3900300073
:1059C000001BA941894510DC0DD020BF214A0020D1
:1059D000536A5B45D9D3926ADB1B591E8B41B24295
:1059E00040411843D1E78342EFD900F04BF8320031
:1059F0003B00121A8B41002B1ADB00230193174B3B
:105A00003200009350463B00FFF792FE011E0FDD6F
:105A1000104B5A6A5A451BD39B6AB34216D3504661
:105A2000FFF7DEFE0B4A0020536A5B45ADD3D2E799
:105A3000084A0020536A5B45A7D30020926ADB1B0B
:105A4000B24240415A1E934118439EE75A45E6D15F
:105A500020BFE4E700400540341300201D53001030
:105A600010B5024A0248FFF7D9F910BD9459011048
:105A70006C2400200300416A0A00986A596A8A422D
:105A8000FAD17047034B596A0A00986A596A9142E1
:105A9000FAD170470040054070B504000D00174A68
:105AA000536A1900966A536A8B42FAD13000190082
:105AB00024184D41AB4216D813D0104B2A005B6A14
:105AC0009D4203D90D494B6A9342FCD3934207D1BF
:105AD0000A4A02E0516A994202D1916AA142F9D37D
