:020000041000EA
:1000000000B5324B212058609868022188439860DF
:10001000D860186158612E4B002199600221596106
:100020000121F02299502B49196001219960352056
:1000300000F044F80222904214D00621196600F024
:1000400034F8196E01211966002018661A6600F04E
:100050002CF8196E196E196E052000F02FF8012189
:100060000842F9D1002199601B49196000215960AB
:100070001A491B48016001219960EB211966A021F2
:10008000196600F012F800219960164914480160C1
:100090000121996001BC002800D000471248134993
:1000A000086003C880F30888084703B5996A0420EC
:1000B0000142FBD001200142F8D103BD02B5186610
:1000C0001866FFF7F2FF186E186E02BD00000240BE
:1000D000000000180000070000035F00212200005C
:1000E000F4000018222000A00001001008ED00E03C
:1000F00000000000000000000000000074B24E7A12
:1001000000200420F7010010CB010010CD010010E9
:10011000C9010010C9010010C9010010C901001077
:10012000C9010010C9010010C9010010CF01001061
:10013000C9010010C9010010D1010010D301001045
:10014000C1010010C1010010C1010010C101001067
:10015000C1010010C1010010C1010010C101001057
:10016000C1010010C1010010C1010010C101001047
:10017000C1010010C1010010C1010010C101001037
:10018000C1010010C1010010C1010010C101001027
:10019000C1010010C1010010C1010010C101001017
:1001A000C1010010C1010010C1010010C101001007
:1001B000C1010010C1010010C1010010C1010010F7
:1001C000EFF30580103800BE00BE00BE00BE00BECA
:1001D00000BE00BEF2EB88713C6301106463011045
:1001E0003802001090A31AE71E481F49086006C88D
:1001F00081F3088810471D480068002801D019487D
:10020000F3E70DA40ECC002902D000F012F8F9E7B4
:100210001749184A002000E001C19142FCD116495B
:100220008847164988471649884700BEFDE701C937
:1002300001C29A42FBD3704764630110C0000020E2
:1002400010190020B47B01100000042000000420DD
:10025000B47B0110001004200010042000000000F6
:10026000704700000000000008ED00E0000000D032
:1002700010190020182A0020458A0010010B0010D8
:100280003D8A0010F8B5C04606480749091A8B1088
:10029000C90FC91810B5491003D0044B002B00D06A
:1002A000984710BD10190020101900200000000010
:1002B000054B10B5002B03D00449054800E000BFF2
:1002C000FFF7E2FF10BDC046000000000C2900202F
:1002D000744C011010B504001F2104F0F5FB00223E
:1002E0002000002104F00AFC0021200004F01AFC88
:1002F00010BDC04670B50478002C17D00021202214
:100300000D26114B00255D5F104B00290FD1A54232
:1003100014D099690A42FCD11C60017801300D3972
:100320004C4261410478C9B2002CEED170BD99698C
:100330000A42F1D099690A42F9D1EDE799690A4276
:10034000FCD11E60E5E7C046F029002000400340D4
:10035000F0B5364F0400C3590E00022083B0CB1A0B
:10036000632B01D803B0F0BD684600F029FD00986A
:1003700006F096FD2E4B0500E25C002A42D02D4B84
:10038000E159E758FA239B009C46711A4801401A2C
:1003900080004018C000614405F022FEFA21ED1BE8
:1003A0006843890005F0F4FDC5195320214B0A214B
:1003B000E550214BE3585B1B584305F0E9FD1F4B0B
:1003C000E7581F4BF71BE15A80235B0199421CD071
:1003D000013189B280235B029C46E35A1A01A218BC
:1003E00055600225176090601573624601331B0546
:1003F0001B0DA352124BE152124BE0500B4B03204A
:10040000E650AFE70132E254CFE70F4A0F4BA25C50
:10041000E35A002A03D00E4AA25A9A42ECD0013382
:100420000A4A1B051B0DA352D4E7C0461C0001005D
:100430004C000100480001000C0001001800010000
:100440000400010014000100080001000200010086
:1004500006000100F0B5C646FA2700B5384B040087
:100460009846C3580E0082B0CB1ABF00BB4204D2DC
:10047000042002B080BCB846F0BD684600F0A0FC85
:10048000009806F00DFD2F4B0500E25C002A44D0D9
:100490004346E1582C4B711AE35848019846FA2319
:1004A0009B009C46401A80004018C000614405F043
:1004B00097FD4346ED1A6843390005F069FD404455
:1004C00005005320204B0A21E550204BE3585B1BCD
:1004D000584305F05DFD1E4BE7581E4BF71BE15AD4
:1004E00080235B0199421BD0013189B280235B02DA
:1004F0009C46E35A1A01A2185560042517609060C3
:100500001573624601331B051B0DA352114BE152BB
:10051000114BE0500A4BE650AAE70132E254D0E713
:100520000E4A0F4BA25CE35A002A03D00D4AA25A8E
:100530009A42EDD001330A4A1B051B0DA352D5E7A1
:100540001C0001004C000100480001000C000100EB
:10055000180001000400010014000100080001005F
:100560000200010006000100F0B5CE46474680B506
:100570003C4D040043590E0083B0CB1A092B05D81B
:10058000002003B0C0BCB946B046F0BD684600F0DC
:1005900017FC63590A27002B00D0F71A009806F0C1
:1005A0007FFC314B0500E25C002A57D02F4B7801CD
:1005B000E358C01B9846FA2380009B00C019F91825
:1005C000C00005F00DFD4346FA21ED1A684389008D
:1005D00005F0DEFC404405005327244B0A21E5507A
:1005E000234BE3585B1B5F43380005F0D1FC214BE4
:1005F000E15A80235B01994220D0013189B28023E6
:100600005B029C46E35A99461A010023A218136024
:1006100013734B4655609060624601331B051B0DFA
:10062000A352144BE152144BE0500E4BE650134BC7
:100630009F42A5DD124B0120E650A2E7114A124B62
:10064000A25CE35A002A03D0104AA25A9A42EAD086
:1006500001330D4A1B051B0DA352D0E70132E254B2
:10066000BAE7C0461C0001004C0001004800010030
:100670000C00010004000100140001001927000013
:10068000180001000800010002000100060001003E
:10069000F0B5464F0400C3590E0083B0CB1A632B4C
:1006A00002D8012003B0F0BD684600F089FB009835
:1006B00006F0F6FB3E4B0500E25C002A6FD03D4B96
:1006C000E159E758FA239B009C46711A4801401AE9
:1006D00080004018C000614405F082FCFA21ED1B47
:1006E0006843890005F054FCC5195320314B0A2199
:1006F000E550314BE3585B1B584305F049FC2F4B49
:10070000E7582F4BF71BE15A80235B01994236D003
:10071000013189B280235B029C46E35A1A01A21878
:1007200055600125176090601573624601331B0503
:100730001B0DA352224BE152224AA358834205DAF1
:10074000A050214BE050194BE650AAE71F4A9446AF
:1007500063448342F5DD80235B02E35A312B21D8C9
:100760001B4A944663449BB21A4AA35201221A4B75
:10077000E254154BE0500D4B0220E65092E7164A2A
:10078000164BA25CE35A002A03D0124AA25A9A429C
:10079000D2D00133114A1B051B0DA352BAE7013217
:1007A000E254A2E7323B9BB2DEE7C0461C000100E8
:1007B0004C000100480001000C000100180001007D
:1007C00004000100100001001400010018FCFFFFEC
:1007D000CE0F000006000100080001000200010029
:1007E000F0B54746CE4680B57C4F0400C3590E0095
:1007F00083B0CB1A312B05D8032003B0C0BCB94657
:10080000B046F0BD684600F0DBFA009806F048FB01
:10081000734B0500E25C002A00D1C8E0714BE1593E
:10082000E758FA239B009C46711A4801401A800041
:100830004018C000614405F0D3FBFA21ED1B68436A
:10084000890005F0A5FBC5195322664B0A21E55026
:10085000654BE3585B1B5A431000904605F098FB2C
:10086000624B0700E358F31A9C46614BE15A802320
:100870005B01994200D189E0013189B280235B029A
:100880009946E35A60461A01A21855600325106084
:10089000976015734A4601331B051B0DA352544B39
:1008A000E152544B6421E058C01B05F071FBFA2162
:1008B00005008900404605F06BFB4F4B8146E35C29
:1008C000002B35D14D4BE35C002B09D14C4BE35C45
:1008D000012B6FD0022B11D04A4BE35C002B2FD0A1
:1008E000494B984505DC494AA358FB1A6333C62B8C
:1008F00047D9464BE750394BE6507DE7444BE35A26
:100900008342E9DBD02380221B0612025A61802237
:1009100092035A610122394BE25404F089FF002905
:1009200057D0FA220023920005F098FB394BE05093
:10093000344BE35C002BD3D1304BE35C002BCFD1A5
:10094000354BE35C012B3AD0022BC9D1334BE35A30
:100950004B45C5DBD02380221B0612025A61802240
:10096000D2035A610222254BE25404F061FF0029B0
:100970002AD0FA220023920005F070FB254BE050AC
:10098000AEE7164BA7500420E65036E7244A254B25
:10099000A25CE35A002A04D0234AA25A9A4200D108
:1009A0007FE701331F4A1B051B0DA35266E7013287
:1009B000E25449E7164BE35AAB42A3DD8CE7174BF1
:1009C000E35AAB42C6DD8BE7FA21890005F008FB4C
:1009D000D4E7FA21890005F003FBA7E71C0001001A
:1009E0004C000100480001000C000100180001004B
:1009F0000400010010000100240001002600010095
:100A00003E000100250001008713000014000100D2
:100A100040000100280001004200010044000100E4
:100A2000080001000200010006000100D02380221E
:100A3000F0B5D6464F4646461B069203C0B59A61AE
:100A40008022D2039A61802212025A6180460A20D3
:100A50008A4604F0D7FDE0238020DB019946042379
:100A6000400000279C460100224A234E234D4C465D
:100A700013682340336063462B6013680B42FCD03D
:100A8000536801381B041B0C80B2FF180028EED1FC
:100A900043463F091F8080235B019946E023802164
:100AA000DB019846144B490000269C4604270800A9
:100AB000104A124D4C461368634044462340644636
:100AC00023602F6013680342FCD0536801391B0474
:100AD0001B0C89B2F6180029ECD1534636091E804A
:100AE0008022D02312021B069A61E0BCBA46B146AE
:100AF000A846F0BD00C0044000D0044000E004401F
:100B0000F0B5854CA5440AF0E3FF01236A4604A929
:100B10001382002008F09AFC08F0D2F87F4808F011
:100B20001DF9E1217E48490204F0D0FE0221002097
:100B300003F0CAFF0221012003F0C6FF7948FFF746
:100B4000D9FB794803F0C8FA7848FFF7D3FBE121D5
:100B50007348490204F0BAFE0221002003F0B4FFFA
:100B60000221012003F0B0FF714972480AF058FFDA
:100B70000321082003F0A8FF0321092003F0A4FFAC
:100B800000220121082003F0B9FF002201210920E1
:100B900003F0B4FF0AF080FF1A20FFF79BFB1B2035
:100BA000FFF798FB0F2003F0D1FF152003F0CEFFD5
:100BB000162003F0CBFF102003F0C8FF8024D023C1
:100BC0008020802180221B0624028003C903520258
:100BD0005C62586259625A629C61986199619A613B
:100BE00000F0C8F8002804D0FA20800004F00AFDC4
:100BF000FAE70021504A04A806F050FA4F4A504B39
:100C00006A4413CB13C213CB13C21B884D4D138000
:100C10004D4B01A82B604D4B0A266B604C4B0024BA
:100C2000AB604C4BEB604C4B2B616B46991DFFF757
:100C3000FDFE02A800F0C4F8200006F00FF90299AA
:100C400006F0B6F806F02CF9013E0400642004F02A
:100C5000D9FC002EEDD10A21200005F099F96A4651
:100C600010213E4B5218D0503DE0FA220023920052
:100C700005F0F4F9040001200021404208F060FC76
:100C80006A461021364B5218D35C002B1ED06846A2
:100C9000344A41188A58FA21A21A49008A4215D3C7
:100CA000012B2AD0D02380221B06D2039A618022F6
:100CB0006946120210209A6101222B4B0918CA546E
:100CC000694610200022264B0918CA5410276B468B
:100CD000264EDB199B5D21009B00EB5804A898472A
:100CE0006B46DB19985504F0A3FD0029BDD1FA210C
:100CF000890005F075F90400BDE7D02280211206B5
:100D00008903916180210902916110206946184A86
:100D100009188B54D4E7C0469CFFFEFF784C0110A5
:100D200000400340944C0110A45D0110A84C011038
:100D3000801A0600A8130020500001003C000100AA
:100D40000C5D0110D42900206905001091060010E7
:100D500051030010E1070010550400100C000100C1
:100D600026000100280001002500010046000100C6
:100D70002400010010B500F035F8002810D100F073
:100D800069F9002804D10A4807F0E8FF002010BDE7
:100D90000223084C0848237007F0E0FF2078F6E7AC
:100DA0000123044C0548237007F0D8FF2078EEE7B4
:100DB0000C4D0110112A0020E84C0110C04C01100C
:100DC00010B5074B1B78012B06D0022B02D100F087
:100DD000EBF910BD0020FCE700F06AF8F9E7C04627
:100DE000112A00207623F0B55746DE4645464E468A
:100DF0009A462B4BE0B59B4687B02A4F05AD53462C
:100E00003B701E232B7000232A0000935146584646
:100E100001330AF02DFE01280DD05346772201330D
:100E20009246782BEBD1002007B0F0BCBB46B2460F
:100E3000A946A046F0BD093004F0E4FB1A4B02AA13
:100E40001E00944603930B23634498460123A02479
:100E5000994643461C704B463978424600935846A3
:100E600001230AF005FE0128D7D1002339782A0092
:100E70000093584602330AF005FE0228CDD12B8894
:100E800002345BBAE4B233800236B02CE1D1039B6A
:100E9000064A1B88013B9BB29342BED80120C3E7A0
:100EA000A8130020142A002034290020FDFF000090
:100EB000F0B5DE4657464E464546E0B587B0482376
:100EC0006A4600255F4E604F137531780290009599
:100ED0003800473B05AA0AF0CBFD0400012807D0E3
:100EE000002007B0F0BCBB46B246A946A046F0BD04
:100EF0000A2004F087FB02A884460B2202ABDD72B5
:100F0000317801233800009462440AF0B1FD0128D1
:100F1000E6D1317803233800009505AA0AF0B2FD26
:100F20000328DDD102AB1C7B5B7B6A46039302ABDB
:100F30009B7B317898465823380013750095573BB2
:100F400005AA0AF095FD83460128C9D10A2004F0BC
:100F500059FB02AB02A88446DD720B225B46317856
:100F600038000093624401230AF082FD0128B7D1C2
:100F7000317803233800009505AA0AF083FD032881
:100F8000AED16B4602AA527B1B7D12021B04134397
:100F900002AA927B002113432C4A914652891202E5
:100FA0009B1A9A46DB179B464B465246D8885B46AF
:100FB00005F0DEFE4F06CB114946C2093A434F8881
:100FC0000021380480185941039B22041D02434626
:100FD0002A431A43002305F0CBFECB02440D1C43E9
:100FE0004B46524618894D155B46002105F0C0FE60
:100FF0008E068B114946820932438E88F10B7004AC
:1010000012184B41A41A9D416B04E40B1C434B4640
:101010005246988900215B4605F0AAFEFA23DB00C0
:101020009C464902C00D0843604405F017FF08497B
:1010300005F0C1FE029D6860200005F00FFF2860EA
:1010400001204EE7142A0020A81300203429002094
:101050000000C842D023F0B54E4645465746DE460E
:101060009946CF3B76249846E0B5404F8BB0404E32
:1010700004AD4B462B7043463C702A000093210080
:10108000012330000AF0F4FC01280BD0631C772404
:10109000782BEED100200BB0F0BCBB46B246A9467F
:1010A000A046F0BD0E236B449A46002339789B4638
:1010B00000935246300001330AF0E4FC0128E5D1E8
:1010C00053461B78582BE1D16A463033D3730F2235
:1010D0003978873B00906A4430000AF0C9FC012847
:1010E000D4D15B4639782A000093300018330AF0D7
:1010F000C9FC1828CAD11F4B2A8830001A801E4B01
:101100006A881A801D4BAA881A801D4BEA881A80AB
:101110001C4B2A891A801C4B6A891A801B4BAA898E
:101120001A801B4BEA891A801A4B2A8A1A801A4B9A
:101130006A8A1A80194BAA8A1A80EA8A184B397867
:101140001A80184B2A002B805B46009302330AF06A
:101150008FFCF5232B805B4639782A000093300002
:1011600002330AF085FC012095E7C0460F2A0020D3
:10117000A8130020062A0020082A00200A2A00209E
:10118000F4290020F6290020F8290020FA2900205F
:10119000FC290020FE290020002A0020022A00202D
:1011A000042A0020F4B7FFFFF0B54E464546DE4660
:1011B0005746F723E0B58DB006AA814606A8D3733B
:1011C00084460F227F4E804DF63B317828000093F5
:1011D00062440AF04DFC012807D000200DB0F0BC9D
:1011E000BB46B246A946A046F0BD00230AAC317802
:1011F00022000093280006330AF044FC0628ECD1B4
:10120000E37822791B03120113437049627909883C
:1012100012091A431B095B1AD2104900521A6C4971
:101220005B430020095E1B135143C9128A46694A79
:10123000694D0020125E53439B139A445544EB17AB
:101240002A0019002800984605F092FD634B029091
:101250000020185E8B462A004346C11705F088FD22
:10126000030D0F031F435E4B06030020185E029A16
:101270005B46C11705F07CFD0B06020A1A430B12F0
:101280001000190080238019794100221B02801868
:101290005941544B1A88002305F06AFD4F103B005A
:1012A000CE17334399D0504B029A0020185E5B460C
:1012B000C11705F05DFD4D4B04900020185E2A001B
:1012C00043460591C11705F053FDC50B4B042B4355
:1012D00042040498059912184B41029203936178D5
:1012E000A07809010009014320788024000301430C
:1012F0006403641A6508E117E0073D4CC907002242
:10130000A35E00242943DD00029A039BA4185D41DB
:101310000023001BA941374A05F02AFD3A0033009B
:1013200004F084FE06900791069E079FFB04740B51
:101330001C43314B7D130020185E22002B00C11787
:1013400005F016FD22002B0005F012FDCB01440E26
:101350001C432A4B32000020185E4D163B00C1177B
:1013600005F006FDA4197D41C20C4E033243CB1497
:1013700012196B4119121C06214B100A204300243C
:101380001C5FE617250F33012B43220112184B4136
:101390001D0053469800504480300012140005F0A0
:1013A0005DFD184905F007FD4B46290058602000F7
:1013B00005F0B0FDEE21890505F011FD4B461860E2
:1013C00001200BE70F2A0020A8130020062A002086
:1013D000082A00200A2A0020000CFEFFF62900201F
:1013E000F8290020F4290020FE290020FC290020F3
:1013F000FA290020350C0000042A0020022A0020CF
:10140000002A00200000C84200487047905D01108B
:10141000004870472C5D011070B5002823D00528C6
:101420002CD8174B8000C558280013F00DFAC0B215
:10143000041C1F2812D8E4B2002808D00023114A47
:10144000E95C01331180D9B202328C42F8D8C02253
:101450000134E3B25B00920013430CE01F24E4B2BA
:101460000028EBD1F3E7064B02221968054805F086
:101470001BFEC1239B000448038070BD0020FCE7D5
:10148000D0100020BE1F0020BC1F0020F0B5C646B3
:1014900000B588B08C4601A998460B00104C170087
:1014A00024CC24C3227804AD1A702B000D4C45CCFB
:1014B00045C3227860461A700B4B0822009305F052
:1014C000F3FD29000C22380005F0EEFD03226946E9
:1014D000404605F0E9FD08B080BCB846F0BDC04606
:1014E000684D0110744D0110312E300001207047FD
:1014F00070B592B014000D0002F07AFE80218900D0
:10150000286002AE21800091C1390300174A3000E3
:10151000FF3907F039FA3478002C18D03000002158
:1015200020220D26124B00255D5F124B002910D1A1
:10153000A54215D099690A42FCD11C60017801309E
:101540000D394C4261410478C9B2002CEED112B081
:1015500070BD99690A42F0D099690A42F9D1ECE765
:1015600099690A42FCD11E60E4E7C046844D01102F
:10157000F02900200040034001207047F0B5CE461E
:10158000474680B593B099461A9B02AC00938046BB
:101590000B000F0020004021234A07F0F5F92678C0
:1015A000002E19D00D25214B20000021595E20244A
:1015B0000023AC461E4A002B1ED1B14223D09569B0
:1015C0002C42FCD11660037801300D3B5D426B412B
:1015D0000678DBB2002EEED1164C2378002B18D003
:1015E00040464A4639001A9B02F01CFE1A9813B076
:1015F000C0BCB946B046F0BD95692C42E2D09569B1
:101600002C42F9D1DEE793691C42FCD1634613609A
:10161000D5E7094802F060FD012002F063FD02F009
:10162000B5FD01232370DBE7B44D0110F029002044
:1016300000400340132A0020A45D011001207047E0
:1016400010B51A00029B02F0A3FF029810BDC0461D
:1016500010B500232022052109F0B4F801204042F2
:1016600010BDC04610B5034807F078FB0022024BBE
:101670001A7010BDD44D0110132A002010B5044873
:1016800007F06CFB02F034FD002002F02BFD10BDD2
:10169000E44D01100020704770B5EFF3108472B66E
:1016A000056AC36909036B43C81A80239B03802220
:1016B0009C465101604413F083FA84F310880020A3
:1016C00070BDC04670B50C001900EFF3108572B6FE
:1016D00080239B039C46066AC369624473432403C8
:1016E000D01A0019049A13F05BFA85F310880020D1
:1016F00070BDC04610B50400180099235B059C46D8
:1017000009036244E3698918226A5343029AC91A99
:1017100005F0CAFC002010BDF0B5304B304E314D05
:101720001B68C5B03100280002AA1F6ADC6910F0EE
:101730002FFF023042D004232B4E2C4A3100FF33BE
:10174000280011F015F86A46294B280019881180E5
:101750009B7831009370032311F06AF9010003288C
:1017600038D17C430322002101A805F097FC600AD0
:1017700005F06FFBFC21890505F031FB0021071CFA
:1017800005F062FB0024002809D115E00134200097
:1017900005F05FFB391C05F051FB00280CD003233A
:1017A0003100280001AA11F043F90328EED0114BB3
:1017B0000100180007F056FB45B0F0BD31002800CD
:1017C00011F020FB0028B6D00B4B0100180007F0E9
:1017D00049FBF1E7074807F045FBEDE70429002046
:1017E000F84D011044290020A4240020344E01109B
:1017F000644E0110404E0110004E0110F0B583B050
:10180000040005F02BFBFC21051C890505F0E7FA17
:10181000291C05F0CDFA05F08BFB04F055FF04F010
:10182000F5FE184F184E82B200233900300011F037
:101830004BF900281EDB002301AD39002B802A0064
:101840003000023311F0E0F8011E0FDB2A786B78CC
:10185000E40705D510091B01184380B203B0F0BDA1
:101860001802F0231B0118401043F6E7074807F061
:10187000F9FAEBE7064B0100180007F0F3FA054808
:10188000ECE7C046A4240020442900208C4E01101F
:10189000684E0110FF0F0000F0B50E00FA21DBB01A
:1018A0008900040004F09CFB0A2104F099FB20004D
:1018B0000F000A21029404F093FB0A2104F090FB2C
:1018C00020000191642104F08BFB0A2104F088FBC5
:1018D00000918021194D3B002A0049001AA807F009
:1018E00053F8174D012328001AAA05A910F040FF4C
:1018F000041E0AD0831C02D120005BB0F0BD220080
:101900001AA9104807F0AEFAF6E78027BF003200A8
:101910003B00280005A911F077F80200B84208D072
:101920001AA9094807F09EFA280005A910F032FF0D
:10193000E2E7280005A910F02DFFDDE7B04E011009
:1019400044290020C84E0110F84E0110F0B5C646DB
:1019500000B52C4C0500A5442B4C020003A9200027
:1019600011F04AFB002834D1284B52AE984654AFB0
:101970003200200003A911F09BFB002825D000288D
:1019800031DB39882E29F3D0214B994227D084218D
:101990002B0042460097490010A806F0F5FF337867
:1019A000022B2BD0200010A910F07EFA0028DFD0E7
:1019B000184B020010A9180007F054FA320020005A
:1019C00003A911F075FB0028D9D1200003A911F05B
:1019D0005FFB94239B009D4480BCB846F0BDBB7860
:1019E000002BC5D0D3E70C4B02002900180007F0EC
:1019F00039FA200003A911F04BFBEAE710A8FFF722
:101A0000A5FFCFE7B0FDFFFF44290020604F011084
:101A10002E2E0000684F0110284F0110802370B552
:101A20009B0004000F2598B0C6180AE00B22210085
:101A3000684605F039FB00236A462034D372B4426D
:101A400026D02378002B23D0E37A2B400F2BEDD127
:101A5000611C0A2203A805F027FB162321006B4412
:101A600018000C220E3105F01FFB21002220042259
:101A70001C31684405F018FB00236A463521D384E5
:101A80000AA80D3303AA203402F0BAFFB442D8D119
:101A900018B070BD30B589B004AC05000B22200031
:101AA00012F0D8FD2378202B34D001AA137063786C
:101AB000202B3BD05370A378202B39D09370E37840
:101AC000202B39D0D3702379202B37D01371637931
:101AD000202B35D05371A379202B33D09371E37928
:101AE000202B31D0D37100231372217A202916D0F4
:101AF0006B461970617A202916D05970A17A202975
:101B000018D0997000212800D970104906F026FFDE
:101B100009B030BD002301AA0021D154E3E7002120
:101B20006B4600205854EDE70121FAE70123F3E763
:101B30000223F1E70221F4E70323EDE70423EBE7B7
:101B40000523E9E70623E7E70723E5E7984F0110B8
:101B5000F0B557464E464546DE46E0B585B00393A0
:101B6000002398465F4B0E0099460F239A465E4F1E
:101B7000019002920B223900300012F037FD00284C
:101B800064D00B224946300012F030FD00285DD0B1
:101B90005246F37A1A400F2A58D01B0756D408220F
:101BA000337800259346019CE52B66D04B46B14621
:101BB0001E0008E04B465A8B638B9A4254D0013585
:101BC0002034102D36D00B223900200012F00EFDEB
:101BD0000028F4D00B223100200012F007FD00286D
:101BE000EDD05246E37A1A400F2AE8D05A461A42FC
:101BF000E5D10B222100484612F0F8FC0028D9D08C
:101C0000A845DCD14B465A8B638B9A42D7D14B46C1
:101C1000DA69E3699A42D2D13300039D4E46994670
:101C20002B0007CC07C307CC07C3203506CC06C35F
:101C3000039502E033004E469946029C2022310073
:101C4000200005F031FA23002033029301239C4643
:101C5000E04443462036102B8CD105B0F0BCBB4687
:101C6000B246A946A046F0BD4B46DA69E3699A42FE
:101C7000A5D133004E469946E8E710212300002203
:101C80008C46083503E001322033102ADED0D97AA1
:101C90000D42F8D1748B588B8442F4D1F069DC6921
:101CA000A04214D064460C42EDD00028EBD1197844
:101CB000E529E8D09045E6D1039D2A0013CB13C255
:101CC00013CB13C2203503CB03C20395BEE71C78A8
:101CD000E52CD8D00028EFD1C906D4D59045D2D173
:101CE000EAE7C046AC4F0110A04F01100123F0B548
:101CF000DBB00293802100231A4A0193009349002C
:101D000006001AA806F040FE174D012328001AAA63
:101D100005A910F02DFD041E0AD0831C02D120005D
:101D20005BB0F0BD22001AA9104807F09BF8F6E757
:101D30008027BF0032003B00280005A910F064FE98
:101D40000200B84208D01AA9094807F08BF8280009
:101D500005A910F01FFDE2E7280005A910F01AFD03
:101D6000DDE7C046B04E011044290020C84E0110E6
:101D7000F84E0110F0B5C64600B582B0040005F07B
:101D800068F8FC21051C890505F029F8291C05F0D7
:101D90000FF805F0CDF804F097FC002301AD2B807F
:101DA00004F034FC214B224F9846020041460600C5
:101DB0000023380010F088FE011E2CDB02232A00CD
:101DC0004146380010F020FE002828DBE4071DD42F
:101DD0000F236A781A43F03341466A702B70320041
:101DE0000023380010F070FE011E14DB4146022370
:101DF0002A00380010F01CFE0100022802D00D4815
:101E000007F030F802B080BCB846F0BDF0222B7865
:101E100013430F32E0E7084807F024F8F2E7074BD6
:101E20000100180007F01EF8ECE7C046A4240020CB
:101E30004429002008500110B84F0110E04F011054
:101E4000F0B5C64600B5204C0378A54490460C007A
:101E5000002B34D004231D4D0200FF33280001A9BC
:101E600010F086FC00281ED18026194FB60010E025
:101E7000802328009B0016AA01A910F0D9FDB042CA
:101E80000DD12000FFF7BAFC431E9BB2BB4210D815
:101E90000400200016A9FFF7FFFC0028E8D0280066
:101EA00001A910F077FC96239B009D4480BCB846A6
:101EB000F0BD4246280001A910F080FEEFE705487A
:101EC00006F0D0FFEFE7C046A8FDFFFF4429002041
:101ED000F60F000030500110F0B5CE46474680B5F1
:101EE000474C8946A5440A21040004F079F80A21E8
:101EF00004F076F820008846642104F071F80A2185
:101F000004F06EF80F00FA212000890004F068F850
:101F10000A2104F065F80B000E008021394A4900BF
:101F20001AA806F031FD384D5AAA28001AA910F057
:101F30002FFB023045D08021344A490033000097FE
:101F40001AA806F021FD28005AAA1AA910F020FBB1
:101F5000023041D0434680212D4A0193490033008D
:101F600000971AA806F010FD28005AAA1AA910F026
:101F70000FFB023037D043468021264A01934900A7
:101F80003300029400971AA806F0FEFC04231AAA54
:101F90002800FF3305A910F0EBFB021E2AD1802395
:101FA00005A94A4628009B0010F042FD280005A91B
:101FB00010F0F0FB9D239B009D44C0BCB946B04689
:101FC000F0BD28001AA910F01DFF021EB3D01AA9F7
:101FD000114806F047FFEDE728001AA910F012FF9C
:101FE000021EB7D0F3E728001AA910F00BFF021E5B
:101FF000C1D0ECE71AA9094806F034FFDAE7C04679
:102000008CFDFFFF6450011044290020AC500110EA
:10201000BC500110B04E011070500110D050011092
:10202000F0B5DE4657464E464546E0B5964C0D00A7
:10203000A54404928022FFAE1C360400002130002B
:10204000920005F02BF80027002D4DDB8F4BA346A7
:10205000059302952B00012B40DD029886A9FFF71E
:102060001BFC00283FD100239A46894B86AC98463A
:10207000884B9946E37A082B65D02578002D27D028
:102080002268424540D04A454BD0E52D1DD0DA4369
:1020900012075ED0DB0616D55346002B00D181E037
:1020A00004AB9C46C12246AB9A4680218023D200D5
:1020B00062449B005046490002F0A2FC638B049AE4
:1020C000934200D1A5E000239A462034A642D1D104
:1020D0007B1C08D03B000297012BBEDC86A8FFF7D3
:1020E00005FE0028B9D05C46FF223100200012F026
:1020F000B1FAFF230022E254674B9D44F0BCBB467B
:10210000B246A946A046F0BD644960688842BAD18B
:10211000634920898842B6D1A17A2029D5D04A4581
:10212000B3D15E4A61689142AFD15D4A2189914243
:10213000ABD1A27A202AA8D1638B1F1C002B00D11F
:102140000127BFB2C1E72034A642CCD001277F428D
:1021500090E7C12304AA9446DB00634403936B0613
:1021600075D40F232B40013B5A00D2189200D5188A
:10217000039B68009C46611C60440A2204F094FFA3
:102180002100039B05356D0058190C220E3104F017
:102190008BFF2100039B0C35042258191C3104F0DD
:1021A00083FF92E746AD2100280012F041FBAB7A95
:1021B000AA46202B54D16B7A202B53D12B7A202B7B
:1021C00052D1EB79202B51D1AB79202B50D16B79A7
:1021D000202B4FD12B79202B4ED1EB78202B4DD1BA
:1021E000AB78202B4CD16B78202B4BD12B78203B1C
:1021F0005A1E93412B4A9B1804AA94462A4A6344C8
:102200009446002263441A70638B049A934200D070
:1022100059E706AC3100200012F00AFB237855463E
:10222000002B0BD1802229003000920012F012FA0C
:10223000FF230022F254029B049349E780212B00E4
:102240003000059A0094890006F09EFBF0E780229A
:10225000FF210398920004F021FF01239A4680E7B2
:102260000B23C7E70A23C5E70923C3E70823C1E710
:102270000723BFE70623BDE70523BBE70423B9E730
:102280000323B7E70223B5E7E4F7FFFF604F011030
:102290002E2020202E2E20201C0800002020202070
:1022A000202000000808000000F9FFFFF0B54546B7
:1022B000DE4657464E46E0B5B24C0D00A54404003C
:1022C000002900D1013504928022FFAE1C36002186
:1022D0003000920004F0E2FE002D49DB00230127CC
:1022E000A3460393012D00DC16E1280086A9FFF721
:1022F000D3FA002800D02AE100239A46A24B86ACEC
:102300009846A24B9946E37A082B4FD02578002DAA
:1023100028D0226842453BD04A454DD0E52D1ED0FD
:10232000DA43120700D17EE0DA0657D55346002B78
:1023300000D1A2E004AAC1239446DB0063441A0042
:102340008021802346AD9B002800490002F058FB05
:10235000638B049A934200D1C7E000239A4620344D
:10236000A642D0D1039B3D0004937B1CBAD15C46AE
:10237000FF223100200012F06DF9FF230022E25409
:10238000834B9D44F0BCBB46B246A946A046F0BD77
:10239000804960688842BFD17F4920898842BBD18B
:1023A000A17A2029B8D1638B0393D8E72034A642C1
:1023B000DDD001277F42A6E7764A61689142ADD120
:1023C000754A21899142A9D1A27A202AA6D1638B8C
:1023D0001F1C002B00D10127BFB2C0E79A0601D411
:1023E000002BBCD15346002B00D1A1E004AAC1238D
:1023F0009446DB0063441A008021802346AD280008
:102400009B00490002F0FCFA638B049A9342A4D12A
:102410002900300012F00CFA039B3D0004937B1C52
:1024200000D05FE7A3E7C12304AA9446DB0063441E
:1024300005936B0600D581E00F232B40013B5A002A
:10244000D2189200D518059B68009C46611C604418
:102450000A2204F029FE2100059B05356D0058195C
:102460000C220E3104F020FE2100059B0C350422C5
:1024700058191C3104F018FE71E746AB9A465546D0
:102480001800210012F0D4F9AB7A202B65D16B7AB9
:10249000202B64D12B7A202B63D1EB79202B62D1B6
:1024A000AB79202B61D16B79202B60D12B79202B3C
:1024B0005FD1EB78202B5ED1AB78202B5DD16B7890
:1024C000202B5CD12B78203B5A1E9341334A9B181A
:1024D00004AA9446324A63449446002263441A7024
:1024E000638B049A934200D037E706AC310020009A
:1024F00012F09EF980212B002A4A300000948900B6
:1025000006F042FAFF230022F254039B3D0004939D
:102510007B1C00D0E6E62AE786A8FFF7E7FB002849
:1025200000D1E2E6012120485C4606F09BFC1FE753
:1025300046AD21002800FFF7ADFA65E78022FF21B4
:102540000598920004F0AAFD01239A4674E7290039
:1025500015485C4606F086FC0AE70B23B6E70A231B
:10256000B4E70923B2E70823B0E70723AEE7062361
:10257000ACE70523AAE70423A8E70323A6E7022381
:10258000A4E7C046E4F7FFFF2E2020202E2E2020B7
:102590001C08000020202020202000000808000047
:1025A00000F9FFFF604F011008510110F0B55746C8
:1025B0004E464546DE468846E0B52F4C8146A5444A
:1025C000694640461700EA46FFF766F900284FD1F2
:1025D00043465D1E6B1E9D4110239B4601356C01D9
:1025E000264E54440B223100200011F0FFFF00283A
:1025F00011D02378E52B0ED0002B10D0618BE37A1D
:10260000B94216D05A461A4205D03A004846FFF75A
:10261000CDFF002804D101352034102DE2D1002057
:1026200081239B009D44F0BCBB46B246A946A04610
:10263000F0BD4946012240461B110A701A4086230C
:10264000486048466D0155440A72E9695B00C15013
:10265000002A06D009303A004146FFF7E1FC01208C
:10266000DEE709303A004146FFF720FE0120D7E7B8
:1026700001204042D4E7C046FCFDFFFFAC4F0110F3
:10268000F0B5DE46454657464E468023E0B5404C01
:102690009B009B46A5448846040083442378002B76
:1026A00008D1D9239B009D44F0BCBB46B246A94645
:1026B000A046F0BDE37A628BDB0611D518AB41462C
:1026C00018009946FFF7ACFC4B461B78002B03D053
:1026D000494630480FF0E8FB20345C45DED1E0E7A6
:1026E00018AB180041469946FFF7E0FD8022002113
:1026F000920058A8658B04F0D1FC264F4A4601236E
:10270000380003A910F034F8021E3BD1224B0026FA
:102710009A469D4228D8019412E0802338009B00FD
:1027200058AA03A910F070F9002822DB200058A94C
:10273000FFF7D2FB80239B009C46664455451FD87B
:102740002800FFF75BF82C0000230500320038005A
:1027500003A910F0B9F90028DFDA104B02003100AC
:102760001800019C06F07EFB380003A910F012F857
:10277000AAE70B4B01001800019C06F073FBF3E77E
:10278000019CF1E74946074806F06CFB9CE7C04610
:102790009CFCFFFF44290020F70F0000645101104A
:1027A000A051011030510110F0B54746CE4680B51A
:1027B0002A4C8046A54468460E00FFF797FA002889
:1027C00048D1102301259946254F08AC0B2239002A
:1027D000200011F00BFF002811D02378E52B0ED03C
:1027E000002B10D0618BE37AB14214D04A461A42D2
:1027F00005D032004046FFF7D9FE002804D101354C
:102800002034102DE2D1002081239B009D44C0BCC8
:10281000B946B046F0BD414601221B116D010A7058
:102820004A601A402B006B440A72D96986234046DD
:102830005B00C150002A06D0093032000121FFF7A9
:10284000EFFB0120E0E7093032000121FFF72EFD08
:102850000120D9E701204042D6E7C046FCFDFFFF3A
:10286000AC4F0110F0B5DE464E4645465746802235
:10287000E0B5C24C8846A544920006000021C2A8DB
:1028800004F00CFC002342AA13704346012B59D0DC
:10289000802300249B00F7183378002B2DD0E52BE4
:1028A00028D0052B26D03268B5498A422DD0B549AB
:1028B0008A423BD00F21F27A11400F2900D18AE1E0
:1028C000D30600D58AE093062BD5002C00D046E134
:1028D00002AC31002000FFF7DDF8728B002A0CD02B
:1028E00041462000FFF7E2FC2000F269718BFFF700
:1028F000A7FA00242036B742CED1A34B9D44F0BCAA
:10290000BB46B246A946A046F0BDA04970688842C1
:10291000CDD19F4930898842C9D1B17A2029C6D109
:10292000E8E7002AE5D1002CD2D018E1974A716877
:102930009142BFD1964A31899142BBD1B27A202AC5
:10294000B8D1D7E780239B0099468E4BB144340021
:10295000002598464E468A4F2378002BCDD0E52B94
:102960002CD0052B2AD02268BA422BD0424500D168
:10297000E6E00F21E27A11400F2900D1D0E1D30621
:1029800000D54FE1930600D4F3E0002D00D1F2E131
:102990008023802102AD28009B00C2AA490002F0DA
:1029A0002FF8628B002AA8D028000121FFF77EFCB7
:1029B0002800E269618BFFF743FA00252034A64224
:1029C000CAD19AE7714960688842CFD1704920899D
:1029D0008842CBD1A17A2029C8D1EFE7002C00D0C2
:1029E000F0E002AC3100200011F022FFA37A202B8E
:1029F00000D00EE2637A202B00D008E2237A202B4D
:102A000000D008E2E379202B00D008E2A379202B44
:102A100000D002E26379202B00D004E22379202B3E
:102A200000D0FEE1E378202B00D000E2A378202B39
:102A300000D0FAE16378202B00D0FAE12378203B24
:102A40005A1E93410022D200EC469B180022634498
:102A50009446002263441A724146728B42A8FFF7E3
:102A6000DFFAA02402AB9C464A4DE40064442200F5
:102A7000280042A90FF08CFD002803D0280042A9AD
:102A800010F0C0F98022738B00212000920099463B
:102A900004F004FB8021404D404B2A00490082A8ED
:102AA000019505F071FF0B22200082A904F0FCFAC9
:102AB000102302AA9446E3729B46394B394963447A
:102AC0001960A2233848DB0063441860374B384D47
:102AD00063441D604B46802163830023354DE361D1
:102AE0009A46019A344B2583490082A805F04CFF91
:102AF00082AB190002A8A4238446DB0063440B22A6
:102B0000180004F0D1FA2B235A46E25402AB9C463B
:102B10002A4A244962441160A6222348D200624412
:102B20001060274A224B6244136043466387534632
:102B300021002587E3634846FFF7CEF90024D9E654
:102B4000124A6168914200D013E7114A21899142EB
:102B500000D00EE7A27A202A00D00AE72EE78023D1
:102B6000802102AC20009B00C2AA490001F048FF6E
:102B7000B3E6002A00D108E700251FE7F4F8FFFFBD
:102B80002E2E20202E2020200C0700002020202088
:102B90002020000044290020D0510110584F01107E
:102BA0000C05000000C66D52436543651405000026
:102BB00000006D52436500005C4F01102C050000C1
:102BC00034050000802380219B00C2AA490002A88E
:102BD00001F016FF40E75A0600D504E10F2213402A
:102BE000013B5D00ED18AD00ED186B00C2AAD018D6
:102BF000711C0A2204F058FA31000535C2AB6D0091
:102C000058190C220E3104F04FFA3100C2AB0C35CA
:102C1000042258191C31203604F046FAB74200D07D
:102C20003AE66AE6002D00D1ABE0802380219B00CC
:102C3000C2AA490002A801F0E3FE0121628B42A86A
:102C4000FFF7EEF9A02502AB9C46ED00834B6544EF
:102C50002A00180042A999460FF09AFC002803D0D8
:102C6000484642A910F0CEF88022638B002128004C
:102C700092009A4604F012FA8021794A794B490071
:102C800082A8914605F080FE0B22280082A904F05C
:102C90000BFA102302AA9446EB729B46724B734ABE
:102CA00063441A60A2237249DB0063441960714BCC
:102CB000714863441860714B80212B8353466B83AA
:102CC00000234A46EB6149006D4B82A805F05CFE8B
:102CD00002ABA4209C46C0000B2282A9604404F0F1
:102CE000E3F92B235A46EA5402AB9C4665495F4AF6
:102CF00061440A60A6225E49D20062441160624AC1
:102D00005D4862441060A7225C4BD20062441360AD
:102D100000232900EB635046FFF7DEF800254DE65F
:102D20005A066BD40F221340013B5A00D21892006E
:102D3000914699444B46C2AA5B00D018611C0A22F6
:102D400004F0B2F94B4605335B0099462100C2A856
:102D50000C220E31484404F0A7F94B4621000C33F5
:102D6000C2AAD0181C310422203404F09DF9A642D6
:102D700000D0F1E5C1E502AD21002800FEF78AFE92
:102D80000FE602AD2100280011F052FDAB7A202B96
:102D900051D16B7A202B52D12B7A202B4DD1EB794C
:102DA000202B4ED1AB79202B26D16B79202B4CD107
:102DB0002B79202B47D1EB78202B4CD1AB78202BD3
:102DC00047D16B78202B42D12B78203B5A1E934160
:102DD0000022D200EC469B18002263449446002255
:102DE00063441A7229E78022F0319200C2A804F0ED
:102DF00055F901243378F1E60723E9E78022FF2122
:102E00009200C2A804F04AF9012523788AE70A2330
:102E100018E60B2316E6092314E6072312E6082317
:102E200010E605230EE606230CE603230AE6042338
:102E300008E6022306E60B23CAE70923C8E70A23AC
:102E4000C6E70823C4E70523C2E70623C0E7022339
:102E5000BEE70323BCE70423BAE7C04644290020A9
:102E6000D0510110584F01100C05000000C66D52E2
:102E7000436543651405000000006D524365000082
:102E80005C4F01102C050000340500000823F0B54C
:102E90004E464546DE4657469946E0B5CC4C0B7A41
:102EA000A5440E000400150089442E2B2CD14B465E
:102EB0005B78002B28D16B1E5A1E93415B421D404C
:102EC00080214B46C34A490012A805F05DFD0B2244
:102ED000200012A904F0E8F81023E372BE4B6583CA
:102EE000E360BE4B2361BE4B6361BE4B2383002373
:102EF000E3612000203093239B009D44F0BCBB463F
:102F0000B246A946A046F0BD337A2E2B00D12FE160
:102F1000484611F099FC0B2815D802234A46072190
:102F20009C46B14813361378002BC9D0C75C394290
:102F300000D028E1402B00D935E1222B00D93AE11D
:102F4000212B00D123E112AB9B468021A14A4900ED
:102F50004B46584605F018FD10230AAFFB729E4BF6
:102F60007D830D939D4B0E939D4B0F939D4B3B8308
:102F70000023FB6111F018FA9C4903F009F89C4A00
:102F80000B0058460C2105F0FFFC59460B22380077
:102F900004F08AF83A7848465308D20113437A7805
:102FA0009B18DAB25208DB011A43BB78D2B2D218AE
:102FB000D3B25B08D2011343FA78DBB29B18DAB2C2
:102FC0005208DB011A433B79D2B2D218D3B25B0864
:102FD000D20113437A79DBB29B18DAB25208DB01D3
:102FE0001A43BB79D2B2D218D3B25B08D2011343D1
:102FF000FA79DBB29B18DAB25208DB011A433B7A4A
:10300000D2B2D218D3B25B08D20113437A7ADBB2C0
:103010009B18DAB25208DB011343BA7A9B18DBB271
:10302000984611F011FC802103004A465846890059
:1030300001F040FCFF280FD8012580210300002665
:1030400042005A446D424900834200D1A4E001335A
:10305000158002328B42F7D10D21013802F0C0FFFA
:103060001A23260043435B441D000400B2468146F8
:10307000631CDBB229001A2203A8009304F014F8A1
:103080000A22701C03A904F00FF802AB9C46300022
:103090000E210C2261440E3004F006F802AB9C466F
:1030A00030001A2104221C30614403F0FDFF40224D
:1030B000009B013C134333700F234246F3720023FD
:1030C00072733373B376F3761A3D2036A145CFDDA4
:1030D00054464D4620346B1E9A46019300945A1C68
:1030E00040D01A260F236E431A3E5E449B460023AF
:1030F00099465346AA461D0000E0013D31001A22C0
:1031000003A803F0D1FF0A22601C03A903F0CCFF3F
:1031100002A98C460E232000634419000C220E30B5
:1031200003F0C2FF02A98C461A2320006344190051
:1031300004221C3003F0B8FF534623705B46E37251
:103140004B462373434663734B46AA46A376E37606
:103150001A3E2034002DD0D1019B5C01009B9C467F
:103160006444203420223900200003F09DFFC0E693
:103170004B465B782E2B00D0CAE64B469B78002B43
:1031800000D198E6C4E663463B4200D0DBE601325C
:10319000B24200D0C7E693E60133168002328B427A
:1031A00000D051E758E77B2BF1D00CD85E3B022BC7
:1031B00000D9C8E6EBE70F4F233BDBB2DF40FF0748
:1031C00000D4C0E6E3E77D3B012B00D9BBE6DEE798
:1031D000B4FDFFFFD051011000C66D524365436539
:1031E00000006D524365000039620110FFFF0000CE
:1031F000D85101107F040020F0B54546DE464E460A
:103200005746E0B55D4D06002B688B461A6ADB69B0
:1032100087B053435B0A9846834209D200239946FC
:10322000484607B0F0BCBB46B246A946A046F0BD32
:10323000FEF7E4FA0028F1D0514F3B6801339E427B
:1032400005D0002300223A607B600023BB604D491B
:1032500000238A464C495A46039141460291514601
:1032600013604A4BBA461F00029BB1460022A84693
:1032700000960191002B6FD043461B68196ADB69E9
:103280004B435B0A68D0002000210024404D21E020
:103290000B09120113433F495A1E8A4202D8009A71
:1032A00093424AD043461B6801341A6ADB69534390
:1032B0005B0A9C4236D2200003F0D0FDFC21061CA4
:1032C000890503F08CFD311C03F072FD03F030FE24
:1032D00003F0FAF903F09AF9002382B239002800CA
:1032E0000FF0F2FB002818DB002305AE3900338015
:1032F0003200280002330FF087FB011E09DB317812
:103300007278E307C4D41302F022120113400B4376
:10331000C1E7019805F0A6FDF1E70100039805F06B
:10332000A1FDBFE7009B4E4699465B4657461A688B
:103330004B463E607B60BA6072E75B461A680132BA
:103340001A60029B013B029353461B68A34208D0BC
:10335000029B0094002B8FD1009B4E465746994606
:10336000E6E75746009B9946BB68D3185A46136058
:103370004A46BB607B683A60994651E704290020C1
:10338000101900208C4E0110684E0110A42400205A
:1033900044290020F60F0000F0B5DE464E465746A1
:1033A0004546136891468022E0B5C54C9200A5447D
:1033B0000B9008910C006EA80021059303F06EFE9F
:1033C0006EAB0293002C00D192E20598FEF7D2FC7E
:1033D000BC4B0B9A18001FA99A460FF00DFE2CABA0
:1033E000061E9B4600D077E3C84681465A465046A3
:1033F0001FA90FF05DFE002800D1BDE1002800DA12
:103400006EE25B461B78022B00D1C7E1012BEDD1A8
:1034100043461B680EAA079301330D935B465C6815
:10342000B0239446DB0063441E00002C00D084E2ED
:103430005B461B7A2EAD2E2B00D17CE28022290028
:103440005200300011F006F99F4C3000210011F0BD
:1034500049F9039011F0F8F9082800D813E2802206
:1034600029005200300011F0F5F82100300011F071
:1034700039F921000700002011F034F980213B00C8
:10348000924A0090490017A805F07EFA2F212023C8
:103490000EAA521813708E4B0EAA1A938D4B300041
:1034A0001B938D4B1C938D4B93875B465A6813007F
:1034B000591E8B411E9280220D995B4219400EAB22
:1034C000D9875200290011F0C5F82100300011F011
:1034D00009F92100002011F005F90023C3700378D9
:1034E0000400002B0CD0032702007D48C15C39404A
:1034F000022900D1E5E1137053780132002BF5D198
:1035000010F052FF774902F043FD774A0B00009418
:103510000C2110A805F038FA17AB10AA03CA03C390
:1035200011880EA8198092780EAC9A702423C018C6
:1035300000784308C00103432000252400190078C7
:1035400001341B18D8B24008DB0118430EAB1B191D
:103550001B78C0B2C018C3B25B08C001034301347A
:103560000EA800190078DBB21B18D8B24008DB01A6
:10357000184301340EAB1B191B78C0B2C018C3B27C
:103580005B08C001034301340EA800190078DBB2C8
:103590001B18D8B24008DB01184301340EAB1B19CD
:1035A0001B78C0B2C018C3B25B08C001034301342A
:1035B0000EA800190078DBB21B18D8B24008DB0156
:1035C0001843C0B2CBB2C018C3B25B08C0010343FA
:1035D000090ADBB25B18D9B24908DB010B439B181F
:1035E000DBB22800039311F02FF9802103002A0099
:1035F0003000890001F05EF9FF280FD801248021F6
:10360000030000254200B21864424900984200D1EC
:103610005FE10133148002328B42F7D10D21013872
:1036200002F0DEFC1A2304000F274343029DF31827
:1036300006900493631CDBB21A22049910A8079326
:1036400003F032FD0A22681C10A903F02DFD0EAB19
:103650009C46280012210C2261440E3003F024FD08
:103660000EAB9C4628001E2104221C30614403F04E
:103670001BFD4022079B013C13432B7000232B733F
:10368000AB76EB76049B039A1A3B0493069BEF728E
:103690006A732035A342CDDD5C1E029B27002033D8
:1036A00002930493621C57D01A254A46069B06973C
:1036B0005D431A3D029F751999460026029216E055
:1036C00044F8FFFF44290020584F011040530110D7
:1036D00000C66D524365436500006D5243650000AE
:1036E00039620110FFFF00004C530110013C29001A
:1036F0001A2210A803F0D8FC0A22781C10A903F0A3
:10370000D3FC0EA98C4612233800634419000C2206
:103710000E3003F0C9FC0EA98C461E23380063440A
:10372000190004221C3003F0BFFC4B463B700F23F2
:10373000FB72039B3E737B73BE76FE76A1462037F9
:103740001A3D002CD2D1029B069F9946049B7F0113
:103750009C466744203702972022029817A903F05D
:10376000A3FC029B5A46203350461FA902930FF038
:103770009FFC002800D041E64E461FA950460FF09E
:1037800087FC05986EA9FEF7A7FB3000C44B9D444B
:10379000F0BCBB46B246A946A046F0BD089B002B34
:1037A00026D12EAD2800BF4910F0FEFF002800D121
:1037B0001CE62B782E2B61D02B782E2B03D16B7827
:1037C0002E2B00D1C0E143461868EEAC01301860E2
:1037D000FEF7D0FA434659461A680298FFF756FB9F
:1037E0008022029029002000920010F033FF33E085
:1037F0002EAD2B782E2B09D16B78002B06D1594694
:10380000059A0298FFF742FB0290EFE52B782E2BEA
:103810000CD16B782E2B09D1AB78002B06D15946F1
:10382000089A0298FFF732FB0290DFE543461868DA
:10383000EEAC01301860FEF79DFA434659461A680F
:103840000298FFF723FB80210290974A20000B9BF0
:103850000095890005F098F80022FF232000E2542B
:1038600005994246FFF798FD002800DBBEE50400FD
:103870001FA950460FF00CFC260086E76B78002B42
:1038800000D1B3E598E72100002010F02BFF0700DE
:1038900010F0DAFF032800D9E1E5039B1B78002B29
:1038A00000D1D4E18148C25C510700D0ADE1402B8A
:1038B00000D9EAE2222B00D9D4E2212B00D0CEE5B8
:1038C000A6E1203B137053780132002B00D00DE6A7
:1038D00016E6431C158002328B4200D096E69DE628
:1038E000734B02000B9918004E4605F0BBFA44E7F3
:1038F0000EA9B0248C46E40064446E4B0C216E4A41
:10390000200005F041F80B2221006EA803F0CCFB4B
:103910008C2108230EAAFF3152181370674B089AA6
:103920007393674B7192749376AB029301237292F7
:103930007592059349E5634C91E50D9A504694467E
:10394000530063449B0A5A0204935F4B170019000B
:103950000393002306920FF0B7F8011E00DA69E125
:103960000EABB0269C468023F600664432005046DB
:1039700003999B000FF048F8002800DAEBE000D133
:10398000EEE0200002F002FE0022504B02F093FD18
:1039900002F0F4FE02F03AFE051E00D11DE10D9C7E
:1039A000431EA4468444099363460A934346069FF4
:1039B0000F900E9359E0651CEAB201212140069157
:1039C000591C0C910121B846214200D1CCE0F15C98
:1039D00012018C460F21604601400A43F254591CE3
:1039E0002A097254FF225200934237DB00233A0027
:1039F000504603990FF068F8002800DACBE08023E6
:103A00003200504603999B000FF012F8002800DAAC
:103A1000D6E000D11AE380239B009846B8440023E7
:103A20004246504603990FF04FF8002800DAC0E0F4
:103A300080233200504603999B000EF0E5FF0028DA
:103A400000DA86E000D101E3069B002B00D1A9E05B
:103A50002B09DBB2049A3370013204920A9B0134C1
:103A60009C4200D1B4E0049B5F026000001902F0A8
:103A70008DFD0022164B02F01EFD02F025FE02F025
:103A8000A1FDC217D20D8318DB05DB0D9B1A079A27
:103A90000999A21A013A91428DD8FF220D4D8CE767
:103AA000BC070000F84D0110604F01103962011091
:103AB00028520110E4510110D051011000006D4F47
:103AC00043650000584F0110A42400200000603F0F
:103AD0000000E03FFF0F00000EABB0279C46FF0048
:103AE0006744009040213800CA4A0B9B04F04CFF09
:103AF0003C78002C00D148E60021C74B3800002557
:103B00005D5F20220D27C54B002911D1A54216D09B
:103B100099690A42FCD11C60017801300D394C4290
:103B200061410478C9B2002C00D12EE60029EDD005
:103B300099690A42EFD099690A42F9D1EBE799698C
:103B40000A42FCD11F60E3E7AB78002B00D14DE4C3
:103B500039E60E9B9846B24B0100180005F082F939
:103B600000234246136063E4F2540F22591C715C37
:103B7000280A914302400A43591C7254A94A9342AD
:103B800000D06BE700233A00504603990EF09CFFEB
:103B9000002800DB33E70E9B0100A348984605F0A0
:103BA00061F9DDE70F2233782D0A93432A4013434E
:103BB00050E70E9B01009D48984605F053F9CFE76A
:103BC0000E9B010098469A4B180005F04BF9C7E789
:103BD00043461F000E9B0F9D9846039900233A0011
:103BE00050460EF071FF011E00DA5DE180233200C5
:103BF000504603999B000EF01BFF002800DA93E16A
:103C0000AED0079B02335B19ABE7920700D526E4E1
:103C1000039B5B78002B1AD0C25C510778D1402BF4
:103C200000D928E1222B00D947E1212B01D0FFF751
:103C300016FC71E07D4805F015F9B0260EAB9C46E8
:103C4000F60066448CE7920701D5FFF708FC3B7845
:103C5000002B30D07748C25C910701D5FFF7FFFBFE
:103C6000520700D1F4E07B78002B24D0C25C91078E
:103C700001D5FFF7F4FB520709D1402B00D97DE1B4
:103C8000222B00D984E1212B01D0FFF7E8FBBB7880
:103C9000002B10D0C25C910701D5FFF7E0FB520763
:103CA00009D1402B00D997E1222B00D9AAE1212B81
:103CB00001D0FFF7D4FB802229005200300010F021
:103CC000C9FC2100300010F00DFD2100050000208E
:103CD00010F008FD8021029C49002B00564A0090FC
:103CE000200004F051FE2023E372544BE360544B58
:103CF0002361544B6361544B23835B465A68130022
:103D0000591E8B410D995B4219406183E26128E5A0
:103D1000920701D5FFF7A3FB039B9B78002B96D05E
:103D2000C25C510767D0920701D5FFF798FB039B50
:103D3000DB78002B8BD0C25C510700D0AFE0402B6A
:103D400000D9E7E0222B00D8F9E0404A233BDBB260
:103D5000DA401300DB0701D4FFF781FB039B1B79DB
:103D6000002B00D173E7C25C510700D0A0E0402BCC
:103D700000D9F9E0222B00D914E1212B01D0FFF763
:103D80006EFB039B5B79002B00D160E7C25C51079F
:103D900000D0A5E0402B00D914E1222B00D93BE153
:103DA000212B01D0FFF75BFB039B9B79002B00D1FC
:103DB0004DE7C25C510700D0BCE0402B00D935E193
:103DC000222B00D955E1212B01D0FFF748FB039BA3
:103DD000DB79002B00D13AE7C25C510700D032E713
:103DE000402B00D93BE1222B00D94CE1212B01D003
:103DF000FFF735FB2BE7402B68D8222B75D9134AE8
:103E0000233BDBB2DA401300DB0701D4FFF727FBCB
:103E10008DE7C046F0510110F0290020004003401A
:103E200098520110FF010000D052011060520110A1
:103E300008530110396201104053011000C66D5241
:103E40004365436500006D52436500007F04002018
:103E5000402B55D8222B00D97CE0212B01D0FFF735
:103E6000FEFA00E7994A233BDBB2DA40D20701D4DD
:103E7000FFF7F5FACCE67B2B00D14DE764D85E3B2B
:103E8000022B01D9FFF7EBFA46E77B2B00D1BFE607
:103E900030D85E3B022B01D9FFF7E1FAB8E6920772
:103EA00000D45BE7FFF7DBFA894804F0DBFF57E655
:103EB000920700D465E7FFF7D2FA844A233BDBB2CE
:103EC000DA40D20701D4FFF7CAFA25E77B2B00D1ED
:103ED0002DE771D85E3B022B01D9FFF7C0FA26E728
:103EE000920700D460E7FFF7BAFA212B01D0FFF761
:103EF000B6FA1CE77D3B012B01D9FFF7B0FA87E644
:103F00007B2B00D1AFE677D85E3B022B01D9FFF7C0
:103F1000A6FAA8E67B2B00D120E767D85E3B022BF0
:103F200001D9FFF79CFA19E76A4B0100180004F069
:103F300099FF15E6920700D449E7FFF790FA212B85
:103F400001D0FFF78CFA09E77D3B012B01D9FFF780
:103F500086FAE1E65D4A233BDBB2DA401300DB0779
:103F600001D4FFF77CFA7EE67B2B00D109E767D806
:103F70005E3B022B01D9FFF772FA02E77B2B00D1DF
:103F800085E666D85E3B022B01D9FFF768FA7EE62C
:103F90004E4A233BDBB2DA401300DB0701D4FFF7C4
:103FA0005EFA74E6494A233BDBB2DA401300DB07D2
:103FB00001D4FFF754FAE4E67D3B012B01D9FFF76A
:103FC0004EFAB4E67B2B00D1EEE66CD85E3B022BBA
:103FD00001D9FFF744FAE7E67B2B00D16BE65CD80A
:103FE0005E3B022B01D9FFF73AFA64E67D3B012BD9
:103FF00001D9FFF734FAB1E67D3B012B01D9FFF778
:104000002EFA30E6314A233BDBB2DA401300DB07FD
:1040100001D4FFF724FA4EE62C4A233BDBB2DA4008
:104020001300DB0701D4FFF71AFABDE67B2B00D1A2
:10403000CDE63ED85E3B022B01D9FFF710FAC6E66B
:104040007D3B012B01D9FFF70AFA9AE60E9B9846B1
:1040500086E57D3B012B01D9FFF701FA17E67B2BA3
:1040600000D1F4E52BD85E3B022B01D9FFF7F7F91D
:10407000EDE5164A233BDBB2DA401300DB0701D43F
:10408000FFF7EDF9A3E6114A233BDBB2DA40130058
:10409000DB0701D4FFF7E3F9D9E57D3B012B01D91B
:1040A000FFF7DDF907E67D3B012B01D9FFF7D7F9D3
:1040B0007AE67D3B012B01D9FFF7D1F987E67D3BFD
:1040C000012B01D9FFF7CBF9C1E5C0467F040020E1
:1040D000D052011008530110014B18607047C046C0
:1040E00004290020014B18707047C046152A002093
:1040F000F0B5204C204E214DA5443200280003A9E4
:104100000EF07AFF002826D11D4F54AC280052AA89
:1041100003A90EF0CDFF002819D0002823DB238847
:104120002E2BF3D0174A934219D084213A0049002C
:104130003300009410A804F027FC10A8FDF706FC3B
:10414000280052AA03A90EF0B3FF0028E5D12800E9
:1041500003A90EF09DFF95239B009D44F0BDA3781D
:10416000002BD3D0E1E7084B02003100180004F027
:1041700079FEECE7ACFDFFFFF84D0110442900206B
:10418000604F01102E2E00005C53011030B5144C0E
:1041900083B020000DF068FE124D200029680DF05C
:1041A000CDFC00280CDBFFF7A3FFFDF7B5FA0123D8
:1041B00000210D4801AA0193FFF7EEF803B030BDCE
:1041C000296820000DF01AFC200029680DF0B6FCCB
:1041D0000028E8DA054B0100180004F043FEEDE783
:1041E0004429002004290020185401109453011080
:1041F000094A10B51368002B0BD01A6AD8695043CE
:1042000002F0C4F90022054B02F055F902F0FEF964
:1042100010BD034B1360F0E7042900200000603F4D
:10422000A45D0110F0B54646D6464F46C0B592464D
:10423000C14A98460E001368E8B0002900D1D2E0C8
:104240001A6ADB6953435B0A5D00ED18BB4B01350D
:104250009C466D0865446D0AA94278D96B1C994249
:1042600003D3AB1C8B4200D91EE103AC33003021D9
:104270002000B34A04F088FB2778002F1AD00D21C4
:10428000B04B202000229A5E8C46002391462200EB
:10429000AD4C002B4ED1B94553D0A3691842FCD187
:1042A0002760137801320D3B5F427B411778DBB208
:1042B000002FEED18822002300215200761B24A873
:1042C000029302F0EBFE02A93000FEF795FF011EFB
:1042D00076D024A8FEF768FA012871D16B4698229F
:1042E0009B181B78002B00D018E19922974C6A4448
:1042F000012320000FA90EF03BFA021E00D006E1B8
:10430000029E2000730299460FA900234A460EF030
:10431000DBFB051E00DA31E14346524620000FA9BF
:104320000EF072FB002800DAFDE020000FA90EF06D
:1043300031FA45E0A3691842B2D0A3691842F9D115
:10434000AEE7A3691842FCD163462360A5E724AC1D
:104350000B00200020217E4A04F016FB2778002F56
:1043600019D00D25774B22000021595E202400230F
:10437000AC467548002B29D1B9422ED085692C4214
:10438000FCD10760137801320D3B5D426B41177819
:10439000DBB2002FEED16F4D6C4C013E29000023A3
:1043A000200072020EF090FB011E00DA74E029007A
:1043B0004346524620000EF027FB011E00DA6FE054
:1043C00068B0E0BCBA46B146A846F0BD83691C425D
:1043D000D7D083691C42F9D1D3E783691C42FCD151
:1043E00063460360CAE7002B53D01D6AD96924AE27
:1043F0004D43280002F0CAF80022574B02F05BF848
:1044000002F004F94D49554C8C46020A6D0A22759A
:104410006A005219013252086244E0740300B03954
:10442000500A520CA075E275FF3900904C4A3000DA
:10443000019504F0A9FA3778002F18D03000002138
:1044400020220D263F4B00255D5F3F4B002914D1F4
:10445000BD4219D099690A42FCD11F600178013030
:104460000D394F4279410778C9B2002FEED142464B
:104470002100504602F018FEA2E799690A42ECD0EA
:1044800099690A42F9D1E8E799690A42FCD11E60AC
:10449000E0E7344B1360A8E7334804F0E3FC8FE710
:1044A000324804F0DFFC8BE724AF0B0038003021EA
:1044B0002F4A04F069FA3C78002C18D0380000210B
:1044C00020220D261F4B00255D5F1F4B002912D1B6
:1044D000A54217D099690A42FCD11C6001780130CD
:1044E0000D394C4261410478C9B2002CEED15046DE
:1044F000FDF7FCFB64E799690A42EED099690A422C
:10450000F9D1EAE799690A42FCD11E60E2E79923F2
:104510006B441900174804F0A5FC51E751463000E0
:10452000FDF7BAF94CE799212B0032006944124893
:1045300004F098FCF9E6C04604290020FF010000C1
:1045400098540110F0290020004003404429002025
:1045500000540110A42400200000603FE810002057
:10456000C0530110A45D01101C54011044540110EB
:1045700070540110B45401102C55011099212B00D6
:104580004A466944014804F06DFCC5E6EC5401104C
:10459000F0B54646D6464F46C0B5B94C15001E008C
:1045A000A544002924D0B74B1B681A6ADB69534322
:1045B0005B0A5C00E418B44B01349C466408644414
:1045C000640AA1421CD8B14FB14C4A1E00233900E5
:1045D000200072430EF078FA011E00DACCE03900B8
:1045E00033002A0020000EF023FA0100B04263D10C
:1045F000E323DB009D44E0BCBA46B146A846F0BDCB
:104600000C1B012C79D0002301A920000193FEF797
:10461000F3FD011E54D002AF3800FEF7C5F8431C6D
:10462000E6D0002800D1E9E03B7A002B00D0A7E0DB
:10463000019B290020009946FDF74EFC3B78002B9A
:10464000D6D04B46002B00D0E2E011336B449A46A3
:10465000A323DB006B4498468D4C52464146200014
:104660008C4B0EF085F8002800D0F7E033002A00CC
:10467000414620000EF0DCF9802302009B009842A6
:1046800000D0DDE086235B00FA584B4601335B0225
:10469000934206D3414620000EF090FA002800D045
:1046A000E3E0414620000EF075F8021EA0D051460E
:1046B000794804F0D7FB9BE7784804F0D3FB97E7F1
:1046C0002900200002AFFDF707FC21003800FEF7AB
:1046D0006BF8012800D08BE73B78002B00D187E7EF
:1046E0003B7A002B00D083E70D33FF3310302100DD
:1046F000FA586844FDF7A4FB7AE780220021920073
:1047000046A802F0CBFC8022C6AE00219200300009
:1047100002F0C4FCA3238022DB006B440021920042
:104720001800984602F0BAFC46A8FDF7DFFA46A842
:10473000FDF774F92800FDF771F980222900920035
:1047400046A80FF04BFE002805D043463200290052
:1047500046A8FDF7FDF940460121FDF791FF29002C
:104760000120FDF7B9FB29000020FDF7B5FB012171
:104770003000FEF777F83BE7494804F073FB37E772
:1047800080220021920046A802F088FC8022C6AE5A
:1047900000219200300002F081FCA3238022DB0084
:1047A0006B44002118009200984602F077FC20002C
:1047B00046A9FDF771F8002825D146A8FDF72EF986
:1047C0002800FDF72BF980222900920046A80FF05F
:1047D00005FE002805D043463200290046A8FDF713
:1047E000B7F921004046FDF74BFF29002000FDF7F7
:1047F00073FB21003000FEF735F8F9E629002000B0
:10480000FDF76AFBF4E62100264804F02BFBEFE6F7
:1048100011236B449A46A323DB006B4498461C4C3F
:1048200052460223414620000DF0A2FF021E10D185
:104830004B4641465A02200000230EF045F915E789
:104840005146194804F00EFB414620000DF0A2FF2E
:10485000CEE65146154804F005FBC9E6134B0200AD
:104860005146180004F0FEFAC2E6114B0200514610
:10487000180004F0F7FA414620000DF08BFFB7E670
:10488000E8F8FFFF04290020FF010000A424002015
:10489000442900200205000094560110985501108B
:1048A0006C550110C455011028560110F455011023
:1048B0005C560110F0B5DE4657464E464546E0B51B
:1048C00084468B46002600203F2783B0002B0ED065
:1048D000834513D99557945D002D16DB451C614621
:1048E0004000013644522800B342F1D803009B45F2
:1048F00003D9002160465A001152180003B0F0BCE1
:10490000BB46B246A946A046F0BD1F252100A943DB
:10491000C02962D00F252100A943E02961D00725D5
:104920002100A943F02955D1ED3989462540711C54
:10493000884699424ED2545C2100B943802949D11E
:104940004946AD013C402C4301294ED0B11C88465C
:104950008B423FD9555C2900B94380293AD1494659
:10496000A4013D402C43032941D10336B34231D940
:10497000955D2900B94380292CD1A4013D402C43E9
:104980008021451C49028C42A9D31A49884621003E
:1049900041440191AB451DD941008A4601995446D5
:1049A0000903890D8946144901368846494645461A
:1049B00029438846614645460D535546019965444D
:1049C0008C050E49A40D0C436C800430B34200D911
:1049D0007EE78BE70120404290E7BF3989462540BA
:1049E000A5E7DE3989462540A1E7464676E74646F3
:1049F000C6E7C0460000FFFF00D8FFFF00DCFFFF56
:104A0000F0B54E46DE4657464546E0B5060083B053
:104A1000002B54D080242401A2463F24A046BF3C52
:104A200000250020A446019308E0471C8F4222D8AD
:104A300034543800019B0135AB421CD06C00145B30
:104A4000204B9C4217D07F2CEFD954451ED2871C97
:104A5000B9468F420FD84023A7095B421F43434604
:104A60001C4063461C43019B375401353018447089
:104A70004846AB42E2D1814201D90023335403B00E
:104A8000F0BCBB46B246A946A046F0BDC71CB9461D
:104A90008F42F0D8230B1F0020235B421F43A30942
:104AA00037541F0043461F4063461F4343461C4084
:104AB000634630181C43477084704846BAE70020AC
:104AC000D9E7C046FFFF0000094A83009A1810B5D5
:104AD00014684022544080322240064CC000A44654
:104AE00063441A60044B9C466044416010BDC0465C
:104AF00004C0014004D0014000400140074B800049
:104B0000C3181B68C90092000A435A400C23134083
:104B1000034A9446604403607047C04604C00140A5
:104B200004D001408000002905D0064B9C4640235C
:104B3000604403607047044B9C464023604403601C
:104B4000F8E7C04604E0014004F001400123D02210
:104B50008340120693629361094A83009A18116890
:104B60004022514080320A400649C0008C466344CE
:104B70001A60054B9C460523604443607047C0465D
:104B800004C0014004D00140004001408023DB0507
:104B90001868000F7047C0460FB400B5084883B0CE
:104BA00004F0DCF8049B002B07D005A91800019144
:104BB00003F010FF034804F0D1F8012003F022FFB6
:104BC000C85601109454011070B5EFF3108C72B6F2
:104BD0000D4D2B68002BFCD0BFF35F8F0724CB0853
:104BE000C618C05C01230C40A3401C0004400342D3
:104BF00007D118433070BFF35F8F2C608CF310889F
:104C000070BD1000FFF7C8FF2C0100D0F8B5474673
:104C1000CE46884680B5EFF3108C72B61C4D2C68DA
:104C2000002CFCD0BFF35F8F9A4222D807210126C7
:104C3000894602E00132934218D34D4637001540B1
:104C4000AF40D4080119045D2742F3D110003C4362
:104C50000C70BFF35F8F00220D4B1A608CF310882D
:104C600000280EDBC0BCB946B046F8BD012040426A
:104C7000EFE7BFF35F8F00232B608CF310880120D8
:104C800040424346002BEDD00898FFF785FFC04611
:104C90002C0100D0044A1078431CDBB2172B00D93A
:104CA000102313707047C046E812002010B5064B61
:104CB000064C82B00100009318221F232000FFF74A
:104CC000A5FF02B010BDC046D856011068240020D0
:104CD0000021044B044ABFF35F8F02C39342FAD111
:104CE0007047C046000100D0800100D0054B064A45
:104CF0001360064A136053609360D360136153617D
:104D0000936170478080808000E400E004E400E06C
:104D10001F2318401E3B8340002905D0C021044AB0
:104D20004900535013607047802201498B50FAE7C5
:104D300000E100E070B50D00EFF3108672B60F4A87
:104D40001368002BFCD0BFF35F8F0D4B10309B68B6
:104D500084001B590B4A934203D09D4201D000F0BE
:104D6000DBFF074B9B681D51BFF35F8FBFF35F8F66
:104D70000022024B1A6086F3108870BD240100D017
:104D800000ED00E0C1010010F0B557464E46DE468A
:104D90004546E0B585B0060000911700EFF3108B93
:104DA00072B66A4A1368002BFCD0BFF35F8F0025F0
:104DB000674B5D579A46002D00DAA9E06B00654C01
:104DC00001935B199B009846A146C1444B4652464D
:104DD0009B7910361370604BB6009B6899590B1B7A
:104DE0002F2B33D95D4B994200D0ACE0019B42465A
:104DF0009C465B4B6544AD0063535A4B0232A2188C
:104E0000043B9B1A1B05584A5B0D651913436B80C5
:104E1000564B0121AB80FF23AB71009BEF71AB6060
:104E20004B460B4319004C4B9B689951BFF35F8F66
:104E3000BFF35F8F0022454B1A608BF3108805B0DB
:104E4000F0BCBB46B246A946A046F0BD01200A0010
:104E50008243D3798C46BB4231D84546130044493E
:104E60001B1B5B415943090D3D4B63533D4B0235C1
:104E70006519043B5B1B1B053B4D5B0D2B43AA4691
:104E80004D466B800425AC465546E044131F444410
:104E90001B1B1B055B0D1D434B46997100999D80A3
:104EA00099604946DF71334B01431360BBE75800FB
:104EB000C01880002018C179B9422FD902000623FA
:104EC000D356002BF3DA02932B4B61460393131D49
:104ED0009A4604235B429C46E14450464B461B1ACB
:104EE0001B055B0D9C46204B9571984663464046DA
:104EF00003439380019B5A199200039BA418A3803B
:104F0000029B1C4AA371009B2260E771A3608AE7A1
:104F100000F002FF002553465D574FE7908802934B
:104F20004005131D9A46031561469C464046D444ED
:104F3000634604302018181AE0230005400D1B02B8
:104F400018430390C5E700F0E7FE4FE7240100D0C7
:104F5000122A0020EC12002000ED00E0C101001038
:104F600000A1FFFF1C13002000E0FFFF01BDFFFFB9
:104F7000AAAA00000148804701BD000070B50124C5
:104F80000443EFF30581EFF3108C72B6214A1368E6
:104F9000002BFCD0BFF35F8F1F4B05001F4AED1A9B
:104FA0006D416A43120D1E4D8900AE6852B27658AB
:104FB000A6421CD00621595691421CD012215956A6
:104FC000914222D01E215956914220D02A21595671
:104FD0000324914210D0134B19781A708171BFF3DA
:104FE0005F8F00220B4B1A608CF3108870BDAB688A
:104FF0000D4C5C50EFE700246100091989005B1833
:10500000FF21997109499980E5E70124F4E7022419
:10501000F2E7C046240100D0EC120020AAAA00004A
:1050200000ED00E0122A0020C101001001BDFFFFC9
:10503000024B9C4661448900016070474000003487
:1050400070B5114C114DAC420FD2FF262368002BD6
:105050000CD0FFF71FFE01002000FFF7E9FFA6803C
:10506000BFF35F8F0834AC42F0D370BDFFF712FE80
:1050700001002000FFF7DCFF2671BFF35F8F0834CB
:10508000AC42E3D3F1E7C046081900201019002014
:1050900010B50400FFF7FEFD01002000FFF7C8FF78
:1050A000FF232371BFF35F8F10BDC04610B504000E
:1050B0000120FFF7FBFD034BC3189B002360BFF3E8
:1050C0005F8F10BD400000340A4B1968EFF3108069
:1050D00072B60A68002AFCD0BFF35F8F1B68BFF36B
:1050E0005F8F00221A6080F3108840BF00200021EB
:1050F0007047C046D0290020F0B5DE4657464E46E0
:105100004546E0B587B0EFF30583032201251A4039
:10511000954091008846A946B34B03925C58B34B27
:105120001D60B34B04934B46B24843630823E55ECE
:10513000002D37DAA3881BB2002B00DBADE0A3798A
:10514000002B00D0EEE00823E05E002820DB4300C7
:1051500062691B18DB00D3189E68DD68731C00D1E0
:1051600011E1A44801004144826A0B69B71A9B1AF5
:105170009F4215D30123026A039883401A420FD03D
:105180009C4800F04DFB8D4202DCCCD18642CAD94E
:1051900040BF07B0F0BCBB46B246A946A046F0BD32
:1051A0000E61EDE762696B0092465B19DB009A4481
:1051B00053469E68DF6800F033FB8F42BADC00D1B3
:1051C00003E1002F00DAE8E05246534652691B69BA
:1051D0009346049A934200D1D9E052460821605E7A
:1051E0005288000459461043984700900191009955
:1051F000019A0B001000134300D1CEE013000A0007
:10520000B61A9F41002806DB7A4800F009FB009E91
:10521000019F36184F4153469E60DF6000229A5E20
:10522000002A00DA86E7530099186069C90041181E
:1052300002938B68C9689B46B94200DD7AE702D1C8
:10524000B34200D976E708239C46A44405956546F9
:105250002281A446029B2C0006E053009918C90045
:1052600041188D68C968AB469B18DB00C318B9426A
:1052700006DC00D1B3E01C000023E25E002AECDA79
:10528000230064469C4653461A806346059D1D8054
:10529000A3881BB2002B00DA51E72269EFF31081DB
:1052A00072B61368002BFCD0BFF35F8F0123A78871
:1052B0005B42A3803FB22369BFF35F8F00221A6075
:1052C00081F31088002F00DA39E723000833220029
:1052D0009A4666697B00DB19DB00F3189968504633
:1052E0008C460824115FDD68002910DB029306E07C
:1052F000AB4244D00023E15E2000002906DB4C00D5
:105300006418E4003419E368AB42F1DD029B0780C6
:1053100000201F5E1980002FDCDA1400A379002B17
:1053200000D110E70023A37126000823E15E0836B0
:105330004B1C00D12CE70800A246656902E03E0044
:105340004B1C1AD04B005B18DB00EF180A008C4690
:10535000E95E7B881BB2002BF1DA01235B42DC178C
:10536000BB60FC60824205D0534631801B893B8084
:1053700053461A8160464B1CE4D15446E5E6A368C7
:105380006345B7D9C2E76B1C00D0EAE6F8E65B4696
:1053900058461B69984700281BD153461B88226931
:1053A0002381EFF3108372B611680029FCD0BFF39C
:1053B0005F8F514662880A8022696580BFF35F8FE4
:1053C0000021116083F31088B4E6864200D8F8E625
:1053D000B0E65B461A685B680092019307E7B34545
:1053E00000D848E74CE7C046242900203C7005401F
:1053F000F95000100040054070B52E4C2569002D75
:1054000004D00A212C48FFF713FE70BD2B4E032158
:10541000300000F0FBF9E660FFF73CFC284B03226C
:105420009C46D02322701B061B6801216370254B0C
:105430006044A3600F2380002061022063806369C1
:105440004942A18019800231198647311D83585283
:1054500018315A5275325C399952183201319952C9
:1054600018320131995218320131995208351832E7
:105470009D52023118329952183201319952183224
:105480000131995218320131995218320131995231
:105490001832013199520C4B0C49DC6001303562F5
:1054A000FFF748FC01210320FFF732FC084B1D6089
:1054B000A7E7C04634130020D02900200040054053
:1054C00040000034FFFF100024290020F950001094
:1054D00038600540004870473413002070B5010063
:1054E0000469EFF3108C72B620680028FCD0BFF37B
:1054F0005F8F02200D5E4C6968004019C0002418BF
:105500000869002D36DB26884E80BFF35F8F0026AA
:1055100006608CF31088E36063880498013320618F
:105520005B0405985B0CA26060611A1C002B1FD005
:1055300093B22804628018430A69EFF3108C72B6A4
:105540001368002BFCD0BFF35F8F8B8823808D8086
:105550000B69BFF35F8F00221A608CF310880B7801
:1055600001329A40CB6808498C4663441A6070BD8A
:105570000122DDE7BFF35F8F002303608CF3108807
:1055800001204042F3E7C0463C20000010B54389AB
:105590000A1493421ADD53009B184269DB00D318AA
:1055A0000469EFF3108C72B62268002AFCD0BFF3B6
:1055B0005F8F5A88090494B2090C8A4208D00369A3
:1055C000BFF35F8F00221A608CF31088002010BD9B
:1055D0008022120214435C80012302698371BFF3AD
:1055E0005F8F002111608CF31088044902788C468B
:1055F0009340C268012062441360E8E73C20000049
:1056000040787047F0B5C64600B582B0040000F09F
:105610000FF9FA2206000F0020000023002192005B
:1056200001F0A6FB8019794104000D1E02DA012465
:105630002E4D644206267642F71736196F41AF4267
:1056400014D811D000F0F4F832003B00121A8B414C
:10565000002B15DC002B46D02000290000F026F995
:1056600002B080BCB846F0BDA642EBD900260027A8
:1056700000F0DEF832003B00121A8B41002BE9DD0E
:1056800000F0D6F832003B00121A8B41002B0ADBE7
:1056900000230193164B3200009316483B00FFF79E
:1056A0001DFF0130D8D000233900B0469C46124A75
:1056B0001248536A994204D8966A4645CCD2994218
:1056C000CAD10668EFF3108772B63368002BFCD09E
:1056D000BFF35F8F0368BFF35F8F66461E6087F37B
:1056E000108820BFE5E7002AB6D0C9E7FFFFFF7F9B
:1056F000C95000103413002000400540D02900207C
:10570000F0B557464E46DE464546E0B506000F006A
:1057100085B0EFF3058399468B46002B12D03849AC
:1057200000204B6ABB4206D38A6ADB1B591E8B41A1
:10573000B2424041184305B0F0BCBB46B246A94650
:10574000A046F0BD2F4B9A46DB68984653461B781F
:105750004046039300F064F84246039B0400043380
:105760009B009B580D001B1A39003000001BA941FB
:10577000894510DC0DD020BF214A0020536A5B45CB
:10578000D9D3926ADB1B591E8B41B2424041184368
:10579000D1E78342EFD900F04BF832003B00121AF8
:1057A0008B41002B1ADB00230193174B320000932F
:1057B00050463B00FFF792FE011E0FDD104B5A6A68
:1057C0005A451BD39B6AB34216D35046FFF7DEFE01
:1057D0000B4A0020536A5B45ADD3D2E7084A00204C
:1057E000536A5B45A7D30020926ADB1BB24240415B
:1057F0005A1E934118439EE75A45E6D120BFE4E77D
:105800000040054034130020C950001010B5024A72
:105810000248FFF7D9F910BDF45601106C2400209E
:105820000300416A0A00986A596A8A42FAD17047AD
:10583000034B596A0A00986A596A9142FAD1704733
:105840000040054070B504000D00174A536A190066
:10585000966A536A8B42FAD13000190024184D41E0
:10586000AB4216D813D0104B2A005B6A9D4203D975
:105870000D494B6A9342FCD3934207D10A4A02E096
:10588000516A994202D1916AA142F9D370BDA642F0
:10589000E9D9054B5B6A1C005A1CEFD00122012498
:1058A0006442E5175242E3E700400540064A536A66
:1058B0009942FCD807D1044B02E05A6A914202D1C6
:1058C0009A6A9042F9D8704700400540F8B5040044
:1058D00006200D0000F078F9002844D0374B3849F5
:1058E000E3185A1E93418022120494465B429B0D9A
:1058F000344A9B0563441360334A136018000A68F6
:105900009043FBD12D4B314AE31859424B41802142
:105910005B0049000620995200F056F92900C000AA
:1059200000F05EFB0130C3091ED1402701226262F4
:10593000A362266BF30722D4E36A254B0620E51801
:1059400000232B60266300F03FF93900800000F04F
:1059500047FB7023E26A5A400E3313402B601D4B05
:1059600023630323A364F8BD1B4A93421ED900237B
:105970001A4A1B4F6262A362266BF307DCD5194BF0
:10598000144AE3181A60656AA36A0620AD01ED188F
:1059900000F01AF9144900F023FBAD0201002800C1
:1059A00000F01EFB0021FFF74DFFC5E74006800E0B
:1059B0009F011A003F180300B9E7C0460080FCBFF2
:1059C00008C0004000E0004000F00040F029002046
:1059D0002C10000001030000FEFF0000FFFF00008C
:1059E000C0FF3F00303000004E0E0000F8B5DE462C
:1059F0004E4657464546E0B58B4605000A991800C5
:105A0000160000F0EDFA0A9B6C001F02324B64197D
:105A10009C46A4006444636881469F4200D9676045
:105A20002B1FDBB29846012B30D9C02380229B016B
:105A3000E31812011A60294BAD0059599A46002902
:105A40001BD17301E026226853401E40802342464A
:105A50005B01E3181E60012A30D9802380229B015C
:105A6000E31812011A6053464A4667605A51F0BC67
:105A7000BB46B246A946A046F8BD586900F0B0FA48
:105A8000013043001B18033BFDD2DAE75B46012BD4
:105A9000CBD1C02303229B01E3181A60023AA3680A
:105AA0001A42FCD07301E0262268AD0053401E402C
:105AB00080230A4A5B019246E3181E605A46216819
:105AC000514003220A401A6001225B469A40A368B3
:105AD0001A42FCD0C1E7C04600800040702400207C
